{
  "_format": "hh-sol-artifact-1",
  "contractName": "TicketNft",
  "sourceName": "contracts/TicketNft.sol",
  "abi": [
    {
      "inputs": [
        {
          "internalType": "string",
          "name": "name_",
          "type": "string"
        },
        {
          "internalType": "string",
          "name": "symbol_",
          "type": "string"
        },
        {
          "internalType": "string",
          "name": "imageUri",
          "type": "string"
        }
      ],
      "stateMutability": "nonpayable",
      "type": "constructor"
    },
    {
      "inputs": [
        {
          "internalType": "address",
          "name": "sender",
          "type": "address"
        },
        {
          "internalType": "uint256",
          "name": "tokenId",
          "type": "uint256"
        },
        {
          "internalType": "address",
          "name": "owner",
          "type": "address"
        }
      ],
      "name": "ERC721IncorrectOwner",
      "type": "error"
    },
    {
      "inputs": [
        {
          "internalType": "address",
          "name": "operator",
          "type": "address"
        },
        {
          "internalType": "uint256",
          "name": "tokenId",
          "type": "uint256"
        }
      ],
      "name": "ERC721InsufficientApproval",
      "type": "error"
    },
    {
      "inputs": [
        {
          "internalType": "address",
          "name": "approver",
          "type": "address"
        }
      ],
      "name": "ERC721InvalidApprover",
      "type": "error"
    },
    {
      "inputs": [
        {
          "internalType": "address",
          "name": "operator",
          "type": "address"
        }
      ],
      "name": "ERC721InvalidOperator",
      "type": "error"
    },
    {
      "inputs": [
        {
          "internalType": "address",
          "name": "owner",
          "type": "address"
        }
      ],
      "name": "ERC721InvalidOwner",
      "type": "error"
    },
    {
      "inputs": [
        {
          "internalType": "address",
          "name": "receiver",
          "type": "address"
        }
      ],
      "name": "ERC721InvalidReceiver",
      "type": "error"
    },
    {
      "inputs": [
        {
          "internalType": "address",
          "name": "sender",
          "type": "address"
        }
      ],
      "name": "ERC721InvalidSender",
      "type": "error"
    },
    {
      "inputs": [
        {
          "internalType": "uint256",
          "name": "tokenId",
          "type": "uint256"
        }
      ],
      "name": "ERC721NonexistentToken",
      "type": "error"
    },
    {
      "inputs": [
        {
          "internalType": "address",
          "name": "owner",
          "type": "address"
        }
      ],
      "name": "OwnableInvalidOwner",
      "type": "error"
    },
    {
      "inputs": [
        {
          "internalType": "address",
          "name": "account",
          "type": "address"
        }
      ],
      "name": "OwnableUnauthorizedAccount",
      "type": "error"
    },
    {
      "anonymous": false,
      "inputs": [
        {
          "indexed": true,
          "internalType": "address",
          "name": "owner",
          "type": "address"
        },
        {
          "indexed": true,
          "internalType": "address",
          "name": "approved",
          "type": "address"
        },
        {
          "indexed": true,
          "internalType": "uint256",
          "name": "tokenId",
          "type": "uint256"
        }
      ],
      "name": "Approval",
      "type": "event"
    },
    {
      "anonymous": false,
      "inputs": [
        {
          "indexed": true,
          "internalType": "address",
          "name": "owner",
          "type": "address"
        },
        {
          "indexed": true,
          "internalType": "address",
          "name": "operator",
          "type": "address"
        },
        {
          "indexed": false,
          "internalType": "bool",
          "name": "approved",
          "type": "bool"
        }
      ],
      "name": "ApprovalForAll",
      "type": "event"
    },
    {
      "anonymous": false,
      "inputs": [
        {
          "indexed": false,
          "internalType": "string",
          "name": "newImageUri",
          "type": "string"
        }
      ],
      "name": "ImageUriUpdated",
      "type": "event"
    },
    {
      "anonymous": false,
      "inputs": [
        {
          "indexed": true,
          "internalType": "address",
          "name": "oldMinter",
          "type": "address"
        },
        {
          "indexed": true,
          "internalType": "address",
          "name": "newMinter",
          "type": "address"
        }
      ],
      "name": "MinterChanged",
      "type": "event"
    },
    {
      "anonymous": false,
      "inputs": [
        {
          "indexed": true,
          "internalType": "address",
          "name": "previousOwner",
          "type": "address"
        },
        {
          "indexed": true,
          "internalType": "address",
          "name": "newOwner",
          "type": "address"
        }
      ],
      "name": "OwnershipTransferred",
      "type": "event"
    },
    {
      "anonymous": false,
      "inputs": [
        {
          "indexed": true,
          "internalType": "address",
          "name": "to",
          "type": "address"
        },
        {
          "indexed": true,
          "internalType": "uint256",
          "name": "tokenId",
          "type": "uint256"
        },
        {
          "indexed": true,
          "internalType": "uint256",
          "name": "ticketId",
          "type": "uint256"
        }
      ],
      "name": "TicketMinted",
      "type": "event"
    },
    {
      "anonymous": false,
      "inputs": [
        {
          "indexed": true,
          "internalType": "address",
          "name": "from",
          "type": "address"
        },
        {
          "indexed": true,
          "internalType": "address",
          "name": "to",
          "type": "address"
        },
        {
          "indexed": true,
          "internalType": "uint256",
          "name": "tokenId",
          "type": "uint256"
        }
      ],
      "name": "Transfer",
      "type": "event"
    },
    {
      "inputs": [
        {
          "internalType": "address",
          "name": "to",
          "type": "address"
        },
        {
          "internalType": "uint256",
          "name": "tokenId",
          "type": "uint256"
        }
      ],
      "name": "approve",
      "outputs": [],
      "stateMutability": "nonpayable",
      "type": "function"
    },
    {
      "inputs": [
        {
          "internalType": "address",
          "name": "owner",
          "type": "address"
        }
      ],
      "name": "balanceOf",
      "outputs": [
        {
          "internalType": "uint256",
          "name": "",
          "type": "uint256"
        }
      ],
      "stateMutability": "view",
      "type": "function"
    },
    {
      "inputs": [
        {
          "internalType": "uint256",
          "name": "",
          "type": "uint256"
        }
      ],
      "name": "descriptionOfToken",
      "outputs": [
        {
          "internalType": "string",
          "name": "",
          "type": "string"
        }
      ],
      "stateMutability": "view",
      "type": "function"
    },
    {
      "inputs": [
        {
          "internalType": "uint256",
          "name": "",
          "type": "uint256"
        }
      ],
      "name": "eventNameOfToken",
      "outputs": [
        {
          "internalType": "string",
          "name": "",
          "type": "string"
        }
      ],
      "stateMutability": "view",
      "type": "function"
    },
    {
      "inputs": [
        {
          "internalType": "uint256",
          "name": "",
          "type": "uint256"
        }
      ],
      "name": "eventTimestampOfToken",
      "outputs": [
        {
          "internalType": "uint256",
          "name": "",
          "type": "uint256"
        }
      ],
      "stateMutability": "view",
      "type": "function"
    },
    {
      "inputs": [
        {
          "internalType": "uint256",
          "name": "tokenId",
          "type": "uint256"
        }
      ],
      "name": "getApproved",
      "outputs": [
        {
          "internalType": "address",
          "name": "",
          "type": "address"
        }
      ],
      "stateMutability": "view",
      "type": "function"
    },
    {
      "inputs": [],
      "name": "imageUri",
      "outputs": [
        {
          "internalType": "string",
          "name": "",
          "type": "string"
        }
      ],
      "stateMutability": "view",
      "type": "function"
    },
    {
      "inputs": [
        {
          "internalType": "address",
          "name": "owner",
          "type": "address"
        },
        {
          "internalType": "address",
          "name": "operator",
          "type": "address"
        }
      ],
      "name": "isApprovedForAll",
      "outputs": [
        {
          "internalType": "bool",
          "name": "",
          "type": "bool"
        }
      ],
      "stateMutability": "view",
      "type": "function"
    },
    {
      "inputs": [
        {
          "internalType": "uint256",
          "name": "",
          "type": "uint256"
        }
      ],
      "name": "locationOfToken",
      "outputs": [
        {
          "internalType": "string",
          "name": "",
          "type": "string"
        }
      ],
      "stateMutability": "view",
      "type": "function"
    },
    {
      "inputs": [
        {
          "internalType": "address",
          "name": "to",
          "type": "address"
        },
        {
          "internalType": "uint256",
          "name": "ticketId",
          "type": "uint256"
        },
        {
          "internalType": "string",
          "name": "eventName",
          "type": "string"
        },
        {
          "internalType": "string",
          "name": "description",
          "type": "string"
        },
        {
          "internalType": "uint256",
          "name": "eventTimestamp",
          "type": "uint256"
        },
        {
          "internalType": "string",
          "name": "location",
          "type": "string"
        }
      ],
      "name": "mintForRegistrant",
      "outputs": [
        {
          "internalType": "uint256",
          "name": "",
          "type": "uint256"
        }
      ],
      "stateMutability": "nonpayable",
      "type": "function"
    },
    {
      "inputs": [],
      "name": "minter",
      "outputs": [
        {
          "internalType": "address",
          "name": "",
          "type": "address"
        }
      ],
      "stateMutability": "view",
      "type": "function"
    },
    {
      "inputs": [],
      "name": "name",
      "outputs": [
        {
          "internalType": "string",
          "name": "",
          "type": "string"
        }
      ],
      "stateMutability": "view",
      "type": "function"
    },
    {
      "inputs": [],
      "name": "owner",
      "outputs": [
        {
          "internalType": "address",
          "name": "",
          "type": "address"
        }
      ],
      "stateMutability": "view",
      "type": "function"
    },
    {
      "inputs": [
        {
          "internalType": "uint256",
          "name": "tokenId",
          "type": "uint256"
        }
      ],
      "name": "ownerOf",
      "outputs": [
        {
          "internalType": "address",
          "name": "",
          "type": "address"
        }
      ],
      "stateMutability": "view",
      "type": "function"
    },
    {
      "inputs": [],
      "name": "renounceOwnership",
      "outputs": [],
      "stateMutability": "nonpayable",
      "type": "function"
    },
    {
      "inputs": [
        {
          "internalType": "address",
          "name": "from",
          "type": "address"
        },
        {
          "internalType": "address",
          "name": "to",
          "type": "address"
        },
        {
          "internalType": "uint256",
          "name": "tokenId",
          "type": "uint256"
        }
      ],
      "name": "safeTransferFrom",
      "outputs": [],
      "stateMutability": "nonpayable",
      "type": "function"
    },
    {
      "inputs": [
        {
          "internalType": "address",
          "name": "from",
          "type": "address"
        },
        {
          "internalType": "address",
          "name": "to",
          "type": "address"
        },
        {
          "internalType": "uint256",
          "name": "tokenId",
          "type": "uint256"
        },
        {
          "internalType": "bytes",
          "name": "data",
          "type": "bytes"
        }
      ],
      "name": "safeTransferFrom",
      "outputs": [],
      "stateMutability": "nonpayable",
      "type": "function"
    },
    {
      "inputs": [
        {
          "internalType": "address",
          "name": "operator",
          "type": "address"
        },
        {
          "internalType": "bool",
          "name": "approved",
          "type": "bool"
        }
      ],
      "name": "setApprovalForAll",
      "outputs": [],
      "stateMutability": "nonpayable",
      "type": "function"
    },
    {
      "inputs": [
        {
          "internalType": "string",
          "name": "newImageUri",
          "type": "string"
        }
      ],
      "name": "setImageUri",
      "outputs": [],
      "stateMutability": "nonpayable",
      "type": "function"
    },
    {
      "inputs": [
        {
          "internalType": "address",
          "name": "newMinter",
          "type": "address"
        }
      ],
      "name": "setMinter",
      "outputs": [],
      "stateMutability": "nonpayable",
      "type": "function"
    },
    {
      "inputs": [
        {
          "internalType": "bytes4",
          "name": "interfaceId",
          "type": "bytes4"
        }
      ],
      "name": "supportsInterface",
      "outputs": [
        {
          "internalType": "bool",
          "name": "",
          "type": "bool"
        }
      ],
      "stateMutability": "view",
      "type": "function"
    },
    {
      "inputs": [],
      "name": "symbol",
      "outputs": [
        {
          "internalType": "string",
          "name": "",
          "type": "string"
        }
      ],
      "stateMutability": "view",
      "type": "function"
    },
    {
      "inputs": [
        {
          "internalType": "uint256",
          "name": "",
          "type": "uint256"
        }
      ],
      "name": "ticketOfToken",
      "outputs": [
        {
          "internalType": "uint256",
          "name": "",
          "type": "uint256"
        }
      ],
      "stateMutability": "view",
      "type": "function"
    },
    {
      "inputs": [
        {
          "internalType": "uint256",
          "name": "tokenId",
          "type": "uint256"
        }
      ],
      "name": "tokenURI",
      "outputs": [
        {
          "internalType": "string",
          "name": "",
          "type": "string"
        }
      ],
      "stateMutability": "view",
      "type": "function"
    },
    {
      "inputs": [
        {
          "internalType": "address",
          "name": "from",
          "type": "address"
        },
        {
          "internalType": "address",
          "name": "to",
          "type": "address"
        },
        {
          "internalType": "uint256",
          "name": "tokenId",
          "type": "uint256"
        }
      ],
      "name": "transferFrom",
      "outputs": [],
      "stateMutability": "nonpayable",
      "type": "function"
    },
    {
      "inputs": [
        {
          "internalType": "address",
          "name": "newOwner",
          "type": "address"
        }
      ],
      "name": "transferOwnership",
      "outputs": [],
      "stateMutability": "nonpayable",
      "type": "function"
    }
  ],
  "bytecode": "0x608060405234620003e5576200242c803803806200001d81620003ea565b9283398101606082820312620003e55781516001600160401b0390818111620003e557826200004e91850162000410565b60209384810151838111620003e557846200006b91830162000410565b936040820151848111620003e55762000085920162000410565b918151818111620003cf576000948554916001948584811c94168015620003c4575b89851014620003b0578190601f948581116200035d575b508990858311600114620002f9578992620002ed575b5050600019600383901b1c191690851b1786555b8051928311620002d95783548481811c91168015620002ce575b88821014620002ba579081838594931162000265575b508791831160011462000201578692620001f5575b5050600019600383901b1c191690821b1790555b3315620001dc5760068054336001600160a01b031982168117909255604051936001600160a01b03909116907f8be0079c531659141344cd1fd0a4f28419497f9722a3daafe3b4186f6b6457e09080a35115620001a857604051611fa99081620004838239f35b60649162461bcd60e51b8252600482015260116024820152701a5b5859d9555c9a481c995c5d5a5c9959607a1b6044820152fd5b604051631e4fbdf760e01b815260048101839052602490fd5b0151905038806200012d565b8487528787208594509190601f198416885b8a8282106200024e575050841162000234575b505050811b01905562000141565b015160001960f88460031b161c1916905538808062000226565b838501518655889790950194938401930162000213565b909192508487528787208380860160051c8201928a8710620002b0575b91869588929594930160051c01915b828110620002a157505062000118565b89815586955087910162000291565b9250819262000282565b634e487b7160e01b87526022600452602487fd5b90607f169062000102565b634e487b7160e01b86526041600452602486fd5b015190503880620000d4565b8980528a8a208894509190601f1984168b5b8d8282106200034657505084116200032c575b505050811b018655620000e8565b015160001960f88460031b161c191690553880806200031e565b8385015186558b979095019493840193016200030b565b9091508880528989208580850160051c8201928c8610620003a6575b918991869594930160051c01915b82811062000397575050620000be565b8b815585945089910162000387565b9250819262000379565b634e487b7160e01b88526022600452602488fd5b93607f1693620000a7565b634e487b7160e01b600052604160045260246000fd5b600080fd5b6040519190601f01601f191682016001600160401b03811183821017620003cf57604052565b919080601f84011215620003e55782516001600160401b038111620003cf5760209062000446601f8201601f19168301620003ea565b92818452828287010111620003e55760005b8181106200046e57508260009394955001015290565b85810183015184820184015282016200045856fe608080604052600436101561001357600080fd5b60003560e01c90816301ffc9a71461164a5750806306fdde03146115a7578063075461721461157e578063081812fc14611540578063095ea7b3146114595780630bf82da4146113c557806323b872dd146113ae57806342842e0e14611380578063547ca2ee146113545780636352211e14611324578063666abc16146112f857806370a082311461129f578063715018a6146112425780637754f3d0146112165780638da5cb5b146111ed57806395d89b4114611122578063a22cb4651461107d578063b428181e1461103d578063b88d4fde14610fcf578063c492892014610fa3578063c87b56dd14610c06578063d9e5ea4d14610a18578063da16b5481461029a578063e985e9c514610244578063f2fde38b146101b65763fca3b5aa1461013d57600080fd5b346101b15760203660031901126101b1576101566116fd565b61015e6118ed565b6001600160a01b0390811690610175821515611c28565b816008549182167f3b0007eb941cf645526cbb3a4fdaecda9d28ce4843167d9263b536a1f1edc0f6600080a36001600160a01b03191617600855005b600080fd5b346101b15760203660031901126101b1576101cf6116fd565b6101d76118ed565b6001600160a01b0390811690811561022b57600654826bffffffffffffffffffffffff60a01b821617600655167f8be0079c531659141344cd1fd0a4f28419497f9722a3daafe3b4186f6b6457e0600080a3005b604051631e4fbdf760e01b815260006004820152602490fd5b346101b15760403660031901126101b15761025d6116fd565b610265611713565b9060018060a01b03809116600052600560205260406000209116600052602052602060ff604060002054166040519015158152f35b346101b15760c03660031901126101b1576102b36116fd565b60443567ffffffffffffffff81116101b1576102d39036906004016118cf565b60643567ffffffffffffffff81116101b1576102f39036906004016118cf565b9160a43567ffffffffffffffff81116101b1576103149036906004016118cf565b6008549093906001600160a01b031633036109d3576001600160a01b038216159261033f8415611c28565b6007549360001985146109bd57600185016007556040519061036082611763565b80600083526109a457600186016000908152600260205260409020546001600160a01b0316908161095e575b1561093a575b60018601600081815260026020526040812080546001600160a01b0319166001600160a01b0389169081179091559083907fddf252ad1be2c89b69c2b068fc378daa952ba7f163c4a11628f55a4df523b3ef9080a461092157833b6107e0575b5060018401600052600a602052602435604060002055600b60205260406000209080519067ffffffffffffffff821161063e5781906104318454611729565b601f8111610790575b50602090601f831160011461072457600092610719575b50508160011b916000199060031b1c19161790555b60018301600052600c60205260406000209080519067ffffffffffffffff821161063e5781906104968454611729565b601f81116106cb575b50602090601f831160011461065f57600092610654575b50508160011b916000199060031b1c19161790555b60018201600052600d602052608435604060002055600e60205260406000209183519267ffffffffffffffff841161063e576105078154611729565b94601f86116105f6575b602095508590601f861160011461058d5794809160019596600092610582575b5050600019600383901b1c191690841b1790555b604051926024359083830190848060a01b03167fcbea9c23945e351434f7ae5b1a435091cc278dd9dd0eba4c04203674014ca7d7600080a4018152f35b015190508780610531565b90601f1986169183600052876000209260005b8181106105df57509160019697929183889593106105c6575b505050811b019055610545565b015160001960f88460031b161c191690558780806105b9565b9293896001819287860151815501950193016105a0565b816000526020600020601f860160051c81019660208710610634575b601f0160051c01955b8681106106285750610511565b6000815560010161061b565b9096508690610612565b634e487b7160e01b600052604160045260246000fd5b0151905086806104b6565b9250836000526020600020906000935b601f19841685106106b0576001945083601f19811610610697575b505050811b0190556104cb565b015160001960f88460031b161c1916905586808061068a565b8181015183556020948501946001909301929091019061066f565b909150836000526020600020601f840160051c810160208510610712575b90601f8594930160051c01905b818110610703575061049f565b600081558493506001016106f6565b50806106e9565b015190508780610451565b9250836000526020600020906000935b601f1984168510610775576001945083601f1981161061075c575b505050811b019055610466565b015160001960f88460031b161c1916905587808061074f565b81810151835560209485019460019093019290910190610734565b909150836000526020600020601f840160051c8101602085106107d9575b90849392915b601f830160051c820181106107ca57505061043a565b600081558594506001016107b4565b50806107ae565b6040959493955160208180610821630a85bd0160e11b958683523360048401526000602484015260018a0160448401526080606484015260848301906116d8565b038160006001600160a01b038c165af1600091816108dc575b506108a257863d1561089a573d906108518261187c565b9161085f604051938461177f565b82523d6000602084013e5b8151918261089357604051633250574960e11b81526001600160a01b0383166004820152602490fd5b6020915001fd5b60609061086a565b949593946001600160e01b031916036108bb57856103f2565b604051633250574960e11b81526001600160a01b0384166004820152602490fd5b9091506020813d602011610919575b816108f86020938361177f565b810103126101b157516001600160e01b0319811681036101b157908861083a565b3d91506108eb565b6040516339e3563760e11b815260006004820152602490fd5b6001600160a01b038516600090815260036020526040902080546001019055610392565b61098960018801600052600460205260406000206bffffffffffffffffffffffff60a01b8154169055565b8160005260036020526040600020600019815401905561038c565b604051633250574960e11b815260006004820152602490fd5b634e487b7160e01b600052601160045260246000fd5b60405162461bcd60e51b815260206004820152601f60248201527f5469636b65744e66743a2063616c6c6572206973206e6f74206d696e746572006044820152606490fd5b346101b1576020806003193601126101b15767ffffffffffffffff906004358281116101b157610a4c9036906004016118cf565b90610a556118ed565b815115610bce57815192831161063e57610a70600954611729565b601f8111610b7c575b508092601f8111600114610aeb57807ff7c3621393b2fb83d58a2e2c303cc58d9f6599a753edddfa633df52a07a1011494600091610ae0575b508160011b916000199060031b1c1916176009555b610adb6040519282849384528301906116d8565b0390a1005b905083015185610ab2565b601f198116936009600052600080516020611f548339815191529460005b818110610b6557509482916001937ff7c3621393b2fb83d58a2e2c303cc58d9f6599a753edddfa633df52a07a101149710610b4c575b5050811b01600955610ac7565b85015160001960f88460031b161c191690558580610b3f565b858301518755600190960195918401918401610b09565b6009600052600080516020611f54833981519152601f850160051c810191838610610bc4575b601f0160051c01905b818110610bb85750610a79565b60008155600101610bab565b9091508190610ba2565b6064906040519062461bcd60e51b8252600482015260116024820152701a5b5859d9555c9a481c995c5d5a5c9959607a1b6044820152fd5b346101b1576020806003193601126101b157610c9f60043580600052600b83526040600020610c3482611e10565b9180600052600c8086526040600020600a8752610c55604060002054611e10565b9083600052600d8852610c6c604060002054611e10565b93600052600e8852610ceb604060002096604051988997693d913730b6b2911d101160b11b8c8a0152602a890190611c63565b61202360f01b8152610cba825180938d6002850191016116b5565b0191601461088b60f21b938460028201526f113232b9b1b934b83a34b7b7111d101160811b60048201520190611c63565b818152691134b6b0b3b2911d101160b11b600282015260095460009491610d1182611729565b91600190818116908115610f845750600114610f34575b505050506004949383610e549793608893610e3296526e2261747472696275746573223a205b841b60028301527f7b2274726169745f74797065223a20224576656e74204944222c202276616c7560118301526432911d101160d91b91826031820152610d9f8c83519384916036850191016116b5565b019162089f4b60ea1b928360368201527f7b2274726169745f74797065223a20224576656e742044617465222c20227661603982015266363ab2911d101160c91b6059820152610df98c83519384916060850191016116b5565b019160608301527f7b2274726169745f74797065223a20224c6f636174696f6e222c202276616c75606383015260838201520190611c63565b61227d60f01b8152615d7d60f01b600282015203601b1981018452018261177f565b604051606081019181831067ffffffffffffffff84111761063e57610eca92604052604082527f4142434445464748494a4b4c4d4e4f505152535455565758595a616263646566848301527f6768696a6b6c6d6e6f707172737475767778797a303132333435363738392b2f6040830152611d18565b90610f1c603d60405180947f646174613a6170706c69636174696f6e2f6a736f6e3b6261736536342c00000085830152610f0c815180928786860191016116b5565b810103601d81018552018361177f565b610f306040519282849384528301906116d8565b0390f35b9091929395506009600052600080516020611f54833981519152908b6000925b858410610f6d5750505050010191838183610e32610d28565b80548585018801528c9a509201918c908201610f54565b60ff191683860152505081151590910201019250838183610e32610d28565b346101b15760203660031901126101b157600435600052600d6020526020604060002054604051908152f35b346101b15760803660031901126101b157610fe86116fd565b610ff0611713565b906044356064359267ffffffffffffffff84116101b157366023850112156101b15761102961103b943690602481600401359101611898565b92611035838383611919565b33611ada565b005b346101b15760203660031901126101b157600435600052600e602052610f3061106960406000206117a1565b6040519182916020835260208301906116d8565b346101b15760403660031901126101b1576110966116fd565b602435908115158092036101b1576001600160a01b031690811561110957336000526005602052604060002082600052602052604060002060ff1981541660ff83161790556040519081527f17307eab39ab6107e8899845ad3d59bd9653f200f220920489ca2b5937696c3160203392a3005b604051630b61174360e31b815260048101839052602490fd5b346101b15760003660031901126101b1576040516000600180549061114682611729565b808552918181169081156111c6575060011461116d575b610f30846110698186038261177f565b600081815292507fb10e2d527612073b26eecdfd717e6a320cf44b4afac2b0732d9fcbe2b7fa0cf65b8284106111ae5750505081016020016110698261115d565b80546020858701810191909152909301928101611196565b60ff191660208087019190915292151560051b85019092019250611069915083905061115d565b346101b15760003660031901126101b1576006546040516001600160a01b039091168152602090f35b346101b15760203660031901126101b157600435600052600c602052610f3061106960406000206117a1565b346101b15760003660031901126101b15761125b6118ed565b600680546001600160a01b031981169091556000906001600160a01b03167f8be0079c531659141344cd1fd0a4f28419497f9722a3daafe3b4186f6b6457e08280a3005b346101b15760203660031901126101b1576001600160a01b036112c06116fd565b1680156112df5760005260036020526020604060002054604051908152f35b6040516322718ad960e21b815260006004820152602490fd5b346101b15760203660031901126101b157600435600052600a6020526020604060002054604051908152f35b346101b15760203660031901126101b1576020611342600435611a9f565b6040516001600160a01b039091168152f35b346101b15760203660031901126101b157600435600052600b602052610f3061106960406000206117a1565b346101b15761103b61139136611847565b906040519261139f84611763565b60008452611035838383611919565b346101b15761103b6113bf36611847565b91611919565b346101b15760003660031901126101b15760405160006009546113e781611729565b808452906001908181169081156111c6575060011461141057610f30846110698186038261177f565b600960009081529250600080516020611f548339815191525b8284106114415750505081016020016110698261115d565b80546020858701810191909152909301928101611429565b346101b15760403660031901126101b1576114726116fd565b60243561147e81611a9f565b3315158061152d575b80611500575b6114e8576001600160a01b039283169282918491167f8c5be1e5ebec7d5bd14f71427d1e84f3dd0314c0f7b2291e5b200ac8c7c3b925600080a4600090815260046020526040902080546001600160a01b0319169091179055005b60405163a9fbf51f60e01b8152336004820152602490fd5b5060018060a01b038116600052600560205260406000203360005260205260ff604060002054161561148d565b506001600160a01b038116331415611487565b346101b15760203660031901126101b15760043561155d81611a9f565b506000526004602052602060018060a01b0360406000205416604051908152f35b346101b15760003660031901126101b1576008546040516001600160a01b039091168152602090f35b346101b15760003660031901126101b157604051600080546115c881611729565b808452906001908181169081156111c657506001146115f157610f30846110698186038261177f565b600080805292507f290decd9548b62a8d60345a988386fc84ba6bc95484008f6362f93160ef3e5635b8284106116325750505081016020016110698261115d565b8054602085870181019190915290930192810161161a565b346101b15760203660031901126101b1576004359063ffffffff60e01b82168092036101b1576020916380ac58cd60e01b81149081156116a4575b8115611693575b5015158152f35b6301ffc9a760e01b1490508361168c565b635b5e139f60e01b81149150611685565b60005b8381106116c85750506000910152565b81810151838201526020016116b8565b906020916116f1815180928185528580860191016116b5565b601f01601f1916010190565b600435906001600160a01b03821682036101b157565b602435906001600160a01b03821682036101b157565b90600182811c92168015611759575b602083101461174357565b634e487b7160e01b600052602260045260246000fd5b91607f1691611738565b6020810190811067ffffffffffffffff82111761063e57604052565b90601f8019910116810190811067ffffffffffffffff82111761063e57604052565b90604051918260008254926117b584611729565b90818452600194858116908160001461182457506001146117e1575b50506117df9250038361177f565b565b9093915060005260209081600020936000915b81831061180c5750506117df935082010138806117d1565b855488840185015294850194879450918301916117f4565b9150506117df94506020925060ff191682840152151560051b82010138806117d1565b60609060031901126101b1576001600160a01b039060043582811681036101b1579160243590811681036101b1579060443590565b67ffffffffffffffff811161063e57601f01601f191660200190565b9291926118a48261187c565b916118b2604051938461177f565b8294818452818301116101b1578281602093846000960137010152565b9080601f830112156101b1578160206118ea93359101611898565b90565b6006546001600160a01b0316330361190157565b60405163118cdaa760e01b8152336004820152602490fd5b6001600160a01b0391821692909183156109a457600092828452826020956002875260409684888820541696879133151580611a09575b509060027fddf252ad1be2c89b69c2b068fc378daa952ba7f163c4a11628f55a4df523b3ef92846119d6575b858352600381528b8320805460010190558683525289812080546001600160a01b0319168517905580a416928383036119b55750505050565b6064945051926364283d7b60e01b8452600484015260248301526044820152fd5b600087815260046020526040902080546001600160a01b0319169055848352600381528b8320805460001901905561197c565b91939450915080611a5e575b15611a2557859291879138611950565b878688611a42576024915190637e27328960e01b82526004820152fd5b604491519063177e802f60e01b82523360048301526024820152fd5b503387148015611a83575b80611a155750858252600481523385898420541614611a15565b5086825260058152878220338352815260ff8883205416611a69565b6000818152600260205260409020546001600160a01b0316908115611ac2575090565b60249060405190637e27328960e01b82526004820152fd5b90939192833b611aec575b5050505050565b604051630a85bd0160e11b8082526001600160a01b039384166004830152958316602482015260448101919091526080606482015294921692602092918590611b399060848301906116d8565b039483816000978189895af1869181611be4575b50611bae575050503d600014611ba5573d611b678161187c565b90611b75604051928361177f565b81528093823d92013e5b82519283611ba057604051633250574960e11b815260048101849052602490fd5b019050fd5b60609250611b7f565b919450915063ffffffff60e01b1603611bcc57503880808080611ae5565b60249060405190633250574960e11b82526004820152fd5b9091508481813d8311611c21575b611bfc818361177f565b81010312611c1d57516001600160e01b031981168103611c1d579038611b4d565b8680fd5b503d611bf2565b15611c2f57565b60405162461bcd60e51b815260206004820152600c60248201526b7a65726f206164647265737360a01b6044820152606490fd5b600092918154611c7281611729565b92600191808316908115611ccb5750600114611c8f575b50505050565b90919293945060005260209081600020906000915b858310611cba5750505050019038808080611c89565b805485840152918301918101611ca4565b60ff1916845250505081151590910201915038808080611c89565b90611cf08261187c565b611cfd604051918261177f565b8281528092611d0e601f199161187c565b0190602036910137565b805115611dfb5780516002918282018092116109bd576003918290046001600160fe1b03811681036109bd57611d51908495941b611ce6565b936020850193829183518401906020820192835194600085525b838110611daa575050505052510680600114611d9757600214611d8c575090565b603d90600019015390565b50603d9081600019820153600119015390565b87600491999293949901918251600190603f9082828260121c16880101518453828282600c1c16880101518385015382828260061c1688010151888501531685010151898201530197929190611d6b565b5050604051611e0981611763565b6000815290565b806000917a184f03e93ff9f4daa797ed6e38ed64bf6a1f01000000000000000080821015611f45575b506d04ee2d6d415b85acef810000000080831015611f36575b50662386f26fc1000080831015611f27575b506305f5e10080831015611f18575b5061271080831015611f09575b506064821015611ef9575b600a80921015611eef575b600190816021611ea7828701611ce6565b95860101905b611eb9575b5050505090565b600019019083906f181899199a1a9b1b9c1cb0b131b232b360811b8282061a835304918215611eea57919082611ead565b611eb2565b9160010191611e96565b9190606460029104910191611e8b565b60049193920491019138611e80565b60089193920491019138611e73565b60109193920491019138611e64565b60209193920491019138611e52565b604093508104915038611e3956fe6e1540171b6c0c960b71a7020d9f60077f6af931a8bbf590da0223dacf75c7afa264697066735822122011bee8ddcb472142575cfd96fad7811332e491fb95f66964a3a2681118dc8c3464736f6c63430008140033",
  "linkReferences": {},
  "deployedLinkReferences": {}
}