{
  "_format": "hh-sol-artifact-1",
  "contractName": "EventTicketing",
  "sourceName": "contracts/EventTicketing.sol",
  "abi": [
    {
      "inputs": [
        {
          "internalType": "address",
          "name": "ticketNftAddress",
          "type": "address"
        },
        {
          "internalType": "address payable",
          "name": "feeRecipient_",
          "type": "address"
        },
        {
          "internalType": "uint16",
          "name": "feeBps",
          "type": "uint16"
        }
      ],
      "stateMutability": "nonpayable",
      "type": "constructor"
    },
    {
      "inputs": [
        {
          "internalType": "address",
          "name": "owner",
          "type": "address"
        }
      ],
      "name": "OwnableInvalidOwner",
      "type": "error"
    },
    {
      "inputs": [
        {
          "internalType": "address",
          "name": "account",
          "type": "address"
        }
      ],
      "name": "OwnableUnauthorizedAccount",
      "type": "error"
    },
    {
      "inputs": [],
      "name": "ReentrancyGuardReentrantCall",
      "type": "error"
    },
    {
      "anonymous": false,
      "inputs": [
        {
          "indexed": true,
          "internalType": "address",
          "name": "newRecipient",
          "type": "address"
        }
      ],
      "name": "FeeRecipientUpdated",
      "type": "event"
    },
    {
      "anonymous": false,
      "inputs": [
        {
          "indexed": true,
          "internalType": "uint256",
          "name": "ticketId",
          "type": "uint256"
        },
        {
          "indexed": false,
          "internalType": "uint256",
          "name": "newMaxSupply",
          "type": "uint256"
        }
      ],
      "name": "MaxSupplyUpdated",
      "type": "event"
    },
    {
      "anonymous": false,
      "inputs": [
        {
          "indexed": true,
          "internalType": "address",
          "name": "previousOwner",
          "type": "address"
        },
        {
          "indexed": true,
          "internalType": "address",
          "name": "newOwner",
          "type": "address"
        }
      ],
      "name": "OwnershipTransferred",
      "type": "event"
    },
    {
      "anonymous": false,
      "inputs": [
        {
          "indexed": true,
          "internalType": "uint256",
          "name": "ticketId",
          "type": "uint256"
        },
        {
          "indexed": true,
          "internalType": "address",
          "name": "creator",
          "type": "address"
        },
        {
          "indexed": false,
          "internalType": "uint256",
          "name": "creatorAmount",
          "type": "uint256"
        },
        {
          "indexed": false,
          "internalType": "uint256",
          "name": "feeAmount",
          "type": "uint256"
        }
      ],
      "name": "ProceedsWithdrawn",
      "type": "event"
    },
    {
      "anonymous": false,
      "inputs": [
        {
          "indexed": true,
          "internalType": "uint256",
          "name": "ticketId",
          "type": "uint256"
        },
        {
          "indexed": true,
          "internalType": "address",
          "name": "user",
          "type": "address"
        },
        {
          "indexed": false,
          "internalType": "uint256",
          "name": "amount",
          "type": "uint256"
        }
      ],
      "name": "RefundClaimed",
      "type": "event"
    },
    {
      "anonymous": false,
      "inputs": [
        {
          "indexed": true,
          "internalType": "uint256",
          "name": "ticketId",
          "type": "uint256"
        },
        {
          "indexed": true,
          "internalType": "address",
          "name": "registrant",
          "type": "address"
        },
        {
          "indexed": false,
          "internalType": "uint256",
          "name": "nftTokenId",
          "type": "uint256"
        }
      ],
      "name": "Registered",
      "type": "event"
    },
    {
      "anonymous": false,
      "inputs": [
        {
          "indexed": false,
          "internalType": "uint16",
          "name": "newFeeBps",
          "type": "uint16"
        }
      ],
      "name": "ServiceFeeUpdated",
      "type": "event"
    },
    {
      "anonymous": false,
      "inputs": [
        {
          "indexed": true,
          "internalType": "uint256",
          "name": "ticketId",
          "type": "uint256"
        },
        {
          "indexed": true,
          "internalType": "address",
          "name": "canceledBy",
          "type": "address"
        }
      ],
      "name": "TicketCanceled",
      "type": "event"
    },
    {
      "anonymous": false,
      "inputs": [
        {
          "indexed": true,
          "internalType": "uint256",
          "name": "ticketId",
          "type": "uint256"
        },
        {
          "indexed": true,
          "internalType": "address",
          "name": "closedBy",
          "type": "address"
        }
      ],
      "name": "TicketClosed",
      "type": "event"
    },
    {
      "anonymous": false,
      "inputs": [
        {
          "indexed": true,
          "internalType": "uint256",
          "name": "ticketId",
          "type": "uint256"
        },
        {
          "indexed": true,
          "internalType": "address",
          "name": "creator",
          "type": "address"
        },
        {
          "indexed": false,
          "internalType": "uint256",
          "name": "price",
          "type": "uint256"
        },
        {
          "indexed": false,
          "internalType": "string",
          "name": "eventName",
          "type": "string"
        },
        {
          "indexed": false,
          "internalType": "string",
          "name": "description",
          "type": "string"
        },
        {
          "indexed": false,
          "internalType": "uint256",
          "name": "eventTimestamp",
          "type": "uint256"
        },
        {
          "indexed": false,
          "internalType": "uint256",
          "name": "maxSupply",
          "type": "uint256"
        }
      ],
      "name": "TicketCreated",
      "type": "event"
    },
    {
      "anonymous": false,
      "inputs": [
        {
          "indexed": true,
          "internalType": "uint256",
          "name": "ticketId",
          "type": "uint256"
        },
        {
          "indexed": false,
          "internalType": "uint256",
          "name": "newPrice",
          "type": "uint256"
        },
        {
          "indexed": false,
          "internalType": "uint256",
          "name": "newTimestamp",
          "type": "uint256"
        },
        {
          "indexed": false,
          "internalType": "string",
          "name": "newLocation",
          "type": "string"
        }
      ],
      "name": "TicketUpdated",
      "type": "event"
    },
    {
      "stateMutability": "payable",
      "type": "fallback"
    },
    {
      "inputs": [
        {
          "internalType": "uint256",
          "name": "ticketId",
          "type": "uint256"
        }
      ],
      "name": "cancelTicket",
      "outputs": [],
      "stateMutability": "nonpayable",
      "type": "function"
    },
    {
      "inputs": [
        {
          "internalType": "uint256",
          "name": "ticketId",
          "type": "uint256"
        }
      ],
      "name": "claimRefund",
      "outputs": [],
      "stateMutability": "nonpayable",
      "type": "function"
    },
    {
      "inputs": [
        {
          "internalType": "uint256",
          "name": "ticketId",
          "type": "uint256"
        }
      ],
      "name": "closeTicket",
      "outputs": [],
      "stateMutability": "nonpayable",
      "type": "function"
    },
    {
      "inputs": [
        {
          "internalType": "uint256",
          "name": "price",
          "type": "uint256"
        },
        {
          "internalType": "string",
          "name": "eventName",
          "type": "string"
        },
        {
          "internalType": "string",
          "name": "description",
          "type": "string"
        },
        {
          "internalType": "uint256",
          "name": "eventTimestamp",
          "type": "uint256"
        },
        {
          "internalType": "uint256",
          "name": "maxSupply",
          "type": "uint256"
        },
        {
          "internalType": "string",
          "name": "metadata",
          "type": "string"
        },
        {
          "internalType": "string",
          "name": "location",
          "type": "string"
        }
      ],
      "name": "createTicket",
      "outputs": [
        {
          "internalType": "uint256",
          "name": "",
          "type": "uint256"
        }
      ],
      "stateMutability": "nonpayable",
      "type": "function"
    },
    {
      "inputs": [],
      "name": "feeRecipient",
      "outputs": [
        {
          "internalType": "address payable",
          "name": "",
          "type": "address"
        }
      ],
      "stateMutability": "view",
      "type": "function"
    },
    {
      "inputs": [],
      "name": "getAllTickets",
      "outputs": [
        {
          "components": [
            {
              "internalType": "uint256",
              "name": "id",
              "type": "uint256"
            },
            {
              "internalType": "address payable",
              "name": "creator",
              "type": "address"
            },
            {
              "internalType": "uint256",
              "name": "price",
              "type": "uint256"
            },
            {
              "internalType": "string",
              "name": "eventName",
              "type": "string"
            },
            {
              "internalType": "string",
              "name": "description",
              "type": "string"
            },
            {
              "internalType": "uint256",
              "name": "eventTimestamp",
              "type": "uint256"
            },
            {
              "internalType": "string",
              "name": "location",
              "type": "string"
            },
            {
              "internalType": "bool",
              "name": "closed",
              "type": "bool"
            },
            {
              "internalType": "bool",
              "name": "canceled",
              "type": "bool"
            },
            {
              "internalType": "string",
              "name": "metadata",
              "type": "string"
            },
            {
              "internalType": "uint256",
              "name": "maxSupply",
              "type": "uint256"
            },
            {
              "internalType": "uint256",
              "name": "sold",
              "type": "uint256"
            },
            {
              "internalType": "uint256",
              "name": "totalCollected",
              "type": "uint256"
            },
            {
              "internalType": "uint256",
              "name": "totalRefunded",
              "type": "uint256"
            },
            {
              "internalType": "bool",
              "name": "proceedsWithdrawn",
              "type": "bool"
            }
          ],
          "internalType": "struct EventTicketing.Ticket[]",
          "name": "",
          "type": "tuple[]"
        }
      ],
      "stateMutability": "view",
      "type": "function"
    },
    {
      "inputs": [
        {
          "internalType": "uint256",
          "name": "ticketId",
          "type": "uint256"
        }
      ],
      "name": "getRegistrants",
      "outputs": [
        {
          "internalType": "address[]",
          "name": "",
          "type": "address[]"
        }
      ],
      "stateMutability": "view",
      "type": "function"
    },
    {
      "inputs": [
        {
          "internalType": "uint256",
          "name": "ticketId",
          "type": "uint256"
        }
      ],
      "name": "getStatus",
      "outputs": [
        {
          "internalType": "enum EventTicketing.Status",
          "name": "",
          "type": "uint8"
        }
      ],
      "stateMutability": "view",
      "type": "function"
    },
    {
      "inputs": [
        {
          "internalType": "uint256",
          "name": "ticketId",
          "type": "uint256"
        }
      ],
      "name": "isAvailable",
      "outputs": [
        {
          "internalType": "bool",
          "name": "",
          "type": "bool"
        }
      ],
      "stateMutability": "view",
      "type": "function"
    },
    {
      "inputs": [
        {
          "internalType": "uint256",
          "name": "",
          "type": "uint256"
        },
        {
          "internalType": "address",
          "name": "",
          "type": "address"
        }
      ],
      "name": "isRegistered",
      "outputs": [
        {
          "internalType": "bool",
          "name": "",
          "type": "bool"
        }
      ],
      "stateMutability": "view",
      "type": "function"
    },
    {
      "inputs": [],
      "name": "owner",
      "outputs": [
        {
          "internalType": "address",
          "name": "",
          "type": "address"
        }
      ],
      "stateMutability": "view",
      "type": "function"
    },
    {
      "inputs": [
        {
          "internalType": "uint256",
          "name": "",
          "type": "uint256"
        },
        {
          "internalType": "address",
          "name": "",
          "type": "address"
        }
      ],
      "name": "paidAmount",
      "outputs": [
        {
          "internalType": "uint256",
          "name": "",
          "type": "uint256"
        }
      ],
      "stateMutability": "view",
      "type": "function"
    },
    {
      "inputs": [],
      "name": "platformFeeBps",
      "outputs": [
        {
          "internalType": "uint16",
          "name": "",
          "type": "uint16"
        }
      ],
      "stateMutability": "view",
      "type": "function"
    },
    {
      "inputs": [
        {
          "internalType": "uint256",
          "name": "ticketId",
          "type": "uint256"
        }
      ],
      "name": "register",
      "outputs": [
        {
          "internalType": "uint256",
          "name": "",
          "type": "uint256"
        }
      ],
      "stateMutability": "payable",
      "type": "function"
    },
    {
      "inputs": [],
      "name": "renounceOwnership",
      "outputs": [],
      "stateMutability": "nonpayable",
      "type": "function"
    },
    {
      "inputs": [
        {
          "internalType": "address payable",
          "name": "newRecipient",
          "type": "address"
        }
      ],
      "name": "setFeeRecipient",
      "outputs": [],
      "stateMutability": "nonpayable",
      "type": "function"
    },
    {
      "inputs": [
        {
          "internalType": "uint16",
          "name": "feeBps",
          "type": "uint16"
        }
      ],
      "name": "setServiceFee",
      "outputs": [],
      "stateMutability": "nonpayable",
      "type": "function"
    },
    {
      "inputs": [
        {
          "internalType": "address",
          "name": "ticketNftAddress",
          "type": "address"
        }
      ],
      "name": "setTicketNft",
      "outputs": [],
      "stateMutability": "nonpayable",
      "type": "function"
    },
    {
      "inputs": [],
      "name": "ticketNft",
      "outputs": [
        {
          "internalType": "contract ITicketNft",
          "name": "",
          "type": "address"
        }
      ],
      "stateMutability": "view",
      "type": "function"
    },
    {
      "inputs": [
        {
          "internalType": "uint256",
          "name": "",
          "type": "uint256"
        }
      ],
      "name": "tickets",
      "outputs": [
        {
          "internalType": "uint256",
          "name": "id",
          "type": "uint256"
        },
        {
          "internalType": "address payable",
          "name": "creator",
          "type": "address"
        },
        {
          "internalType": "uint256",
          "name": "price",
          "type": "uint256"
        },
        {
          "internalType": "string",
          "name": "eventName",
          "type": "string"
        },
        {
          "internalType": "string",
          "name": "description",
          "type": "string"
        },
        {
          "internalType": "uint256",
          "name": "eventTimestamp",
          "type": "uint256"
        },
        {
          "internalType": "string",
          "name": "location",
          "type": "string"
        },
        {
          "internalType": "bool",
          "name": "closed",
          "type": "bool"
        },
        {
          "internalType": "bool",
          "name": "canceled",
          "type": "bool"
        },
        {
          "internalType": "string",
          "name": "metadata",
          "type": "string"
        },
        {
          "internalType": "uint256",
          "name": "maxSupply",
          "type": "uint256"
        },
        {
          "internalType": "uint256",
          "name": "sold",
          "type": "uint256"
        },
        {
          "internalType": "uint256",
          "name": "totalCollected",
          "type": "uint256"
        },
        {
          "internalType": "uint256",
          "name": "totalRefunded",
          "type": "uint256"
        },
        {
          "internalType": "bool",
          "name": "proceedsWithdrawn",
          "type": "bool"
        }
      ],
      "stateMutability": "view",
      "type": "function"
    },
    {
      "inputs": [
        {
          "internalType": "uint256",
          "name": "ticketId",
          "type": "uint256"
        }
      ],
      "name": "ticketsLeft",
      "outputs": [
        {
          "internalType": "uint256",
          "name": "",
          "type": "uint256"
        }
      ],
      "stateMutability": "view",
      "type": "function"
    },
    {
      "inputs": [
        {
          "internalType": "address",
          "name": "newOwner",
          "type": "address"
        }
      ],
      "name": "transferOwnership",
      "outputs": [],
      "stateMutability": "nonpayable",
      "type": "function"
    },
    {
      "inputs": [
        {
          "internalType": "uint256",
          "name": "ticketId",
          "type": "uint256"
        },
        {
          "internalType": "uint256",
          "name": "newMaxSupply",
          "type": "uint256"
        }
      ],
      "name": "updateMaxSupply",
      "outputs": [],
      "stateMutability": "nonpayable",
      "type": "function"
    },
    {
      "inputs": [
        {
          "internalType": "uint256",
          "name": "ticketId",
          "type": "uint256"
        },
        {
          "internalType": "uint256",
          "name": "newPrice",
          "type": "uint256"
        },
        {
          "internalType": "string",
          "name": "newLocation",
          "type": "string"
        },
        {
          "internalType": "uint256",
          "name": "newEventTimestamp",
          "type": "uint256"
        }
      ],
      "name": "updateTicket",
      "outputs": [],
      "stateMutability": "nonpayable",
      "type": "function"
    },
    {
      "inputs": [
        {
          "internalType": "uint256",
          "name": "ticketId",
          "type": "uint256"
        }
      ],
      "name": "withdrawProceeds",
      "outputs": [],
      "stateMutability": "nonpayable",
      "type": "function"
    },
    {
      "stateMutability": "payable",
      "type": "receive"
    }
  ],
  "bytecode": "0x608034620001ec57601f6200274738819003918201601f191683019291906001600160401b03841183851017620001f1578160609284926040968752833981010312620001ec5780516001600160a01b039081811690819003620001ec5760208301519180831693848403620001ec578501519361ffff8516809503620001ec573315620001d4576000549160018060a01b03199233848216176000558751913391167f8be0079c531659141344cd1fd0a4f28419497f9722a3daafe3b4186f6b6457e0600080a3600180558315620001925750156200014e5761271084116200011b5760025416176002556008549062010000600160b01b039060101b169060018060b01b03191617176008555161253f9081620002088239f35b845162461bcd60e51b815260206004820152600c60248201526b0cccaca40e8dede40d0d2ced60a31b6044820152606490fd5b845162461bcd60e51b815260206004820152601560248201527f666565526563697069656e7420726571756972656400000000000000000000006044820152606490fd5b62461bcd60e51b815260206004820152601a60248201527f5469636b65744e667420616464726573732072657175697265640000000000006044820152606490fd5b8551631e4fbdf760e01b815260006004820152602490fd5b600080fd5b634e487b7160e01b600052604160045260246000fdfe608080604052600436101561008f575b50361561004a5760405162461bcd60e51b815260206004820152600c60248201526b1a5b9d985b1a590818d85b1b60a21b6044820152606490fd5b60405162461bcd60e51b815260206004820152601860248201527f73656e642043454c4f20766961207265676973746572282900000000000000006044820152606490fd5b60003560e01c908163017c565514611e5f5750806303e96fe314611b0957806320e14e4914611a3257806322dcd13e14611a10578063238e875f146119095780633a178d99146118e15780633d914ecd14611165578063469048401461113857806350b4471214610fbe5780635b7baf6414610e3b5780635c622a0e14610df65780637031ff8014610da9578063710c597314610d83578063715018a614610d2a5780637c00e4db14610a9a5780638da5cb5b14610a71578063999a27fe14610a295780639b3e745a1461098a578063b81f6e181461093d578063d9f1aed91461070b578063e09b2a62146106e2578063e74b981b1461065b578063ee355b1f1461057f578063f207564e1461023d5763f2fde38b146101af573861000f565b34610238576020366003190112610238576101c861208d565b6101d06120b9565b6001600160a01b0390811690811561021f57600054826001600160601b0360a01b821617600055167f8be0079c531659141344cd1fd0a4f28419497f9722a3daafe3b4186f6b6457e0600080a3005b604051631e4fbdf760e01b815260006004820152602490fd5b600080fd5b60206003198181360112610238576004356102566122fc565b806000526003835260406000209161027083541515612236565b61029060ff600785015461028682821615612275565b60081c16156122b1565b600583015442101561054b578160005260058452604060002033600052845260ff6040600020541661051157600a83018054600985015411156104e157600284015434036104a4578260005260068552604060002033600052855234604060002055600b84016103013482546122ef565b90558054906001820180921161048e57558160005260048452604060002090815493680100000000000000008510156104785760018501808455851015610462576103db9486936000528360002001336001600160601b0360a01b825416179055836000526005835260406000203360005283526040600020600160ff198254161790556004600060018060a01b036002541692604051978895869485936362f1e7c960e01b855233828601528a6024860152608060448601526103cb6084860160038301611fba565b9285840301606486015201611fba565b03925af191821561045657600092610427575b50604051908282527f39dd062cc095bf933d83338d8e4591b7eb119264d876f173cacb1cfdf2c9737f843393a360018055604051908152f35b9091508281813d831161044f575b61043f818361206c565b81010312610238575190836103ee565b503d610435565b6040513d6000823e3d90fd5b634e487b7160e01b600052603260045260246000fd5b634e487b7160e01b600052604160045260246000fd5b634e487b7160e01b600052601160045260246000fd5b60405162461bcd60e51b81526004810186905260156024820152741a5b98dbdc9c9958dd0810d15313c8185b5bdd5b9d605a1b6044820152606490fd5b60405162461bcd60e51b81526004810186905260086024820152671cdbdb19081bdd5d60c21b6044820152606490fd5b60405162461bcd60e51b8152600481018590526012602482015271185b1c9958591e481c9959da5cdd195c995960721b6044820152606490fd5b60405162461bcd60e51b815260048101859052600c60248201526b195d995b9d081c185cdcd95960a21b6044820152606490fd5b3461023857602036600319011261023857600435806000526003602052600760406000206105af81541515612236565b60018101546105d390336001600160a01b039182161490811561064d575b5061235a565b01805460ff8160081c166106155761ffff191661010117905533907f856f105c150817c7b4994960bcf1ff34f18912db8f0892ae56fb87470c8b9f3f600080a3005b60405162461bcd60e51b815260206004820152601060248201526f185b1c9958591e4818d85b98d95b195960821b6044820152606490fd5b9050600054163314856105cd565b34610238576020366003190112610238576004356001600160a01b03811690818103610238576106896120b9565b6106948215156120e5565b6008805462010000600160b01b03191660109290921b62010000600160b01b03169190911790557f7a7b5a0a132f9e0581eb8527f66eae9ee89c2a3e79d4ac7e41a1f1f4d48a7fc2600080a2005b34610238576000366003190112610238576002546040516001600160a01b039091168152602090f35b3461023857602080600319360112610238576004356107286122fc565b8060005260038252604060002061074181541515612236565b6001810180546001600160a01b039061075d908216331461231f565b61077160ff600785015460081c16156122b1565b6005830154421061090557600d83019182549360ff85166108cc5780600c600b6107a093015491015490612397565b9261ffff6008541680850290858204148515171561048e576107c9612710600192048096612397565b9560ff191617905582610874575b83610816575b917ff267235ebfb630032a6a04de47e34751541c9a48e736f5c5ae79cbb519cbbd5293916040935416958351928352820152a360018055005b600080808087868654165af161082a6123a4565b506107dd5760405162461bcd60e51b815260048101879052601760248201527f63726561746f72207472616e73666572206661696c65640000000000000000006044820152606490fd5b6000808080868660085460101c165af161088c6123a4565b506107d75760405162461bcd60e51b8152600481018790526013602482015272199959481d1c985b9cd9995c8819985a5b1959606a1b6044820152606490fd5b60405162461bcd60e51b815260048101889052601160248201527030b63932b0b23c903bb4ba34323930bbb760791b6044820152606490fd5b60405162461bcd60e51b815260048101869052601060248201526f195d995b9d081b9bdd081c185cdcd95960821b6044820152606490fd5b34610238576040366003190112610238576109566120a3565b600435600052600560205260406000209060018060a01b0316600052602052602060ff604060002054166040519015158152f35b346102385760203660031901126102385760043561ffff8116809103610238576109b26120b9565b61271081116109f5576020817fb4c8a49c815aff443d1d27ce1429e4affed0237024410b84729f24d349b80e1a9261ffff196008541617600855604051908152a1005b60405162461bcd60e51b815260206004820152600c60248201526b0cccaca40e8dede40d0d2ced60a31b6044820152606490fd5b3461023857604036600319011261023857610a426120a3565b600435600052600660205260406000209060018060a01b03166000526020526020604060002054604051908152f35b34610238576000366003190112610238576000546040516001600160a01b039091168152602090f35b34610238576080366003190112610238576024356004356001600160401b0360443581811161023857610ad1903690600401611f53565b6064949194358460005260209360038552604060002090610af482541515612236565b6001610b0c60018060a01b038285015416331461231f565b610b2c60ff6007850154610b25828260081c16156122b1565b1615612275565b60058301928354421015610cf55742851115610cbf578615610c8657600690610b5687151561211d565b8760028201550191851161047857610b7885610b728454611f80565b846121c1565b6000601f8611600114610bfa5792849286807fc23f26eef4d4205025e77d6fc59bd3e912b6e335b222c54f5980d65a8fd5812e9b9c9794610bea9997600093610bef575b501b906000198760031b1c19161790555b556040519586958652850152606060408501526060840191612215565b0390a2005b89013592508e610bbc565b601f1986169083600052886000209160005b818110610c71575092879592879592610bea997fc23f26eef4d4205025e77d6fc59bd3e912b6e335b222c54f5980d65a8fd5812e9d9e999610610c57575b505085811b019055610bcd565b880135600019600389901b60f8161c191690558c80610c4a565b8c830135845592840192918a01918a01610c0c565b60405162461bcd60e51b815260048101899052601160248201527007072696365206d757374206265203e203607c1b6044820152606490fd5b60405162461bcd60e51b815260048101899052600e60248201526d6d7573742062652066757475726560901b6044820152606490fd5b60405162461bcd60e51b815260048101899052600d60248201526c195d995b9d081cdd185c9d1959609a1b6044820152606490fd5b3461023857600036600319011261023857610d436120b9565b600080546001600160a01b0319811682556001600160a01b03167f8be0079c531659141344cd1fd0a4f28419497f9722a3daafe3b4186f6b6457e08280a3005b34610238576020366003190112610238576020610da160043561244a565b604051908152f35b3461023857602036600319011261023857610dc261208d565b610dca6120b9565b6001600160a01b0316610dde8115156120e5565b6001600160601b0360a01b6002541617600255600080f35b3461023857602036600319011261023857610e12600435612484565b6040516004821015610e25576020918152f35b634e487b7160e01b600052602160045260246000fd5b346102385760208060031936011261023857600435610e586122fc565b8060005260038252604060002091610e7283541515612236565b60ff600784015460081c1615610f8b5781600052600681526040600020336000528152604060002054928315610f5257600c90836000526006835260406000203360005283526000604081205501610ecb8482546122ef565b9055600080808086335af1610ede6123a4565b5015610f15577ff3f402280ef0a7905e124aa621b65eaeb2725c343e8b36d398ed78c29daf285c906040519384523393a360018055005b6064906040519062461bcd60e51b8252600482015260166024820152751c99599d5b99081d1c985b9cd9995c8819985a5b195960521b6044820152fd5b60405162461bcd60e51b81526004810183905260116024820152701b9bdd1a1a5b99c81d1bc81c99599d5b99607a1b6044820152606490fd5b6064906040519062461bcd60e51b82526004820152600c60248201526b1b9bdd0818d85b98d95b195960a21b6044820152fd5b3461023857602036600319011261023857600435600052600360205260406000208054600160a01b60019003600183015416916002810154604051918280600383019061100a91611fba565b03611015908461206c565b60405192836110278160048501611fba565b03611032908561206c565b6005820154936040518080600686019061104b91611fba565b03611056908261206c565b6007840154604051918261106d8160088901611fba565b03611078908461206c565b600986015497600a87015494600b88015496600c89015498600d015460ff16996040519d8e809e81526020015260408d01528b6101e06060819201528c016110bf91611f13565b8b810360808d01526110d091611f13565b9060a08b015289810360c08b01526110e791611f13565b9060ff8116151560e08a015260081c60ff16151561010089015287810361012089015261111391611f13565b946101408701526101608601526101808501526101a084015215156101c08301520390f35b346102385760003660031901126102385760085460405160109190911c6001600160a01b03168152602090f35b346102385760e0366003190112610238576024356001600160401b03811161023857611195903690600401611f53565b6044356001600160401b038111610238576111b4903690600401611f53565b91909260a4356001600160401b038111610238576111d6903690600401611f53565b94909360c4356001600160401b038111610238576111f8903690600401611f53565b96909542606435111561189c5766b1a2bc2ec500006004351061184357608435156118065785156117cc576112ad9161123284151561211d565b611292611240600754612160565b98896007556040519a6112528c612050565b8a8c523360208d015260043560408d015261126e368b8b61218a565b60608d015261127e36888a61218a565b60808d015260643560a08d0152369161218a565b60c08a0152600060e08a015260006101008a0152369161218a565b6101208701526084356101408701526000610160870152600061018087015260006101a087015260006101c0870152846000526003602052604060002092865184556001840160018060a01b036020890151166001600160601b0360a01b8254161790556040870151600285015560608701518051906001600160401b03821161047857819061134d8261134460038a0154611f80565b60038a016121c1565b602090601f831160011461175a5760009261174f575b50508160011b916000199060031b1c19161760038501555b60808701518051906001600160401b0382116104785781906113ad826113a460048a0154611f80565b60048a016121c1565b602090601f83116001146116dd576000926116d2575b50508160011b916000199060031b1c19161760048501555b60a0870151600585015560c08701518051906001600160401b0382116104785781906114178261140e60068a0154611f80565b60068a016121c1565b602090601f831160011461166057600092611655575b50508160011b916000199060031b1c19161760068501555b6007840161146560e08901511515829060ff801983541691151516179055565b610100880151151561ff0082549160081b169061ff001916179055610120870151938451976001600160401b038911610478578888966114b760209b6114ae6008870154611f80565b600887016121c1565b8a90601f83116001146115b05793600d6101c061157895857ff71b42493765497065cfba18b42f5fdcf53336aad1f5ae821f7e3b54482880679b999661155f966115869c9a6000926115a5575b50508160011b916000199060031b1c19161760088501555b6101408101516009850155610160810151600a850155610180810151600b8501556101a0810151600c8501550151151591019060ff801983541691151516179055565b60405197600435895260a08b8a015260a0890191612215565b918683036040880152612215565b92606435606082015260843560808201528033940390a3604051908152f35b015190503880611504565b90600885016000528b6000209160005b601f198516811061163b57506101c06115789560018661155f966115869c9a96600d967ff71b42493765497065cfba18b42f5fdcf53336aad1f5ae821f7e3b54482880679f9d9a601f19811610611622575b505050811b01600885015561151c565b015160001960f88460031b161c19169055388080611612565b8183015184558c9a50600190930192918d01918d016115c0565b01519050898061142d565b9250600687016000526020600020906000935b601f19841685106116b7576001945083601f1981161061169e575b505050811b016006850155611445565b015160001960f88460031b161c1916905589808061168e565b81810151835560209485019460019093019290910190611673565b0151905089806113c3565b9250600487016000526020600020906000935b601f1984168510611734576001945083601f1981161061171b575b505050811b0160048501556113db565b015160001960f88460031b161c1916905589808061170b565b818101518355602094850194600190930192909101906116f0565b015190508980611363565b9250600387016000526020600020906000935b601f19841685106117b1576001945083601f19811610611798575b505050811b01600385015561137b565b015160001960f88460031b161c19169055898080611788565b8181015183556020948501946001909301929091019061176d565b60405162461bcd60e51b8152602060048201526012602482015271195d995b9d13985b59481c995c5d5a5c995960721b6044820152606490fd5b60405162461bcd60e51b815260206004820152601560248201527406d6178537570706c79206d757374206265203e203605c1b6044820152606490fd5b60405162461bcd60e51b815260206004820152602b60248201527f7072696365206d7573742062652067726561746572207468616e206f7220657160448201526a75616c20746f20302e303560a81b6064820152608490fd5b60405162461bcd60e51b815260206004820152601d60248201527f6576656e7454696d657374616d70206d757374206265206675747572650000006044820152606490fd5b346102385760203660031901126102385760206118ff6004356123d4565b6040519015158152f35b3461023857604036600319011261023857600435602435816000526003602052604060002061193a81541515612236565b61195160018060a01b03600183015416331461231f565b61196a60ff6007830154610b25828260081c16156122b1565b600a81015482106119de5781156119ae57817f44ecfc706d63e347851cfd40acfa6cf2e3a41faa3e8b460210c03938e84a91ad9260096020930155604051908152a2005b60405162461bcd60e51b81526020600482015260086024820152670f4cae4de40dac2f60c31b6044820152606490fd5b60405162461bcd60e51b815260206004820152600a60248201526918995b1bddc81cdbdb1960b21b6044820152606490fd5b3461023857600036600319011261023857602061ffff60085416604051908152f35b346102385760203660031901126102385760043580600052600360205260076040600020611a6281541515612236565b6001810154611a8590336001600160a01b039182161490811561064d575061235a565b01805460ff8116611ad35780611aa360ff60019360081c16156122b1565b60ff191617905533907f6b1b7348ef8c34cb796294e383344baff089786a86c14cd5cd96bb50382d7dfe600080a3005b60405162461bcd60e51b815260206004820152600e60248201526d185b1c9958591e4818db1bdcd95960921b6044820152606490fd5b34610238576000366003190112610238576007805490611b28826124de565b90611b36604051928361206c565b828252601f19611b45846124de565b0160005b818110611ddc575050600192835b81811115611c99578385604051918291602090818401828552835180915260408501928060408360051b8801019501936000905b838210611b985787870388f35b918496819592949698508190603f198b82030185528951908151815260018060a01b0383830151168382015260408201516040820152611c4e611c21611c04611bf1606080870151906101e08091880152860190611f13565b6080808701519086830390870152611f13565b60a0808601519085015260c0808601519085830390860152611f13565b60e0840151151560e084015261010080850151151590840152610120808501519084830390850152611f13565b916101408082015190830152610160808201519083015261018080820151908301526101a080820151908301526101c080910151151591015298019201920187969593919492611b8b565b8060005260039060209180835260406000209260001983019083821161048e57611dd794611d04611d0b611dd19560405194611cd486612050565b845486528d8501546001600160a01b03169086015260028401546040808701919091525192839182908601611fba565b038261206c565b6060830152604051611d2481611d048160048601611fba565b6080830152600581015460a0830152604051611d4781611d048160068601611fba565b60c0830152600d8882015491611d04611d8360ff94858116151560e088015285600891821c161515610100880152604051928380928601611fba565b6101208501526009810154610140850152600a810154610160850152600b810154610180850152600c8101546101a085015201541615156101c0820152611dca82896124f5565b52866124f5565b50612160565b611b57565b602090604051611deb81612050565b60008152826000818301526000604083015260608080840152806080840152600060a08401528060c0840152600060e0840152600061010084015261012083015260006101408301526000610160830152600061018083015260006101a083015260006101c0830152828701015201611b49565b346102385760209081600319360112610238576004356000526004825260406000208054808352838301908192600052846000209060005b86828210611ef6578686611ead8288038361206c565b604051928392818401908285525180915260408401929160005b828110611ed657505050500390f35b83516001600160a01b031685528695509381019392810192600101611ec7565b83546001600160a01b031685529093019260019283019201611e97565b919082519283825260005b848110611f3f575050826000602080949584010152601f8019910116010190565b602081830181015184830182015201611f1e565b9181601f84011215610238578235916001600160401b038311610238576020838186019501011161023857565b90600182811c92168015611fb0575b6020831014611f9a57565b634e487b7160e01b600052602260045260246000fd5b91607f1691611f8f565b9060009291805491611fcb83611f80565b91828252600193848116908160001461202d5750600114611fed575b50505050565b90919394506000526020928360002092846000945b838610612019575050505001019038808080611fe7565b805485870183015294019385908201612002565b9294505050602093945060ff191683830152151560051b01019038808080611fe7565b6101e081019081106001600160401b0382111761047857604052565b90601f801991011681019081106001600160401b0382111761047857604052565b600435906001600160a01b038216820361023857565b602435906001600160a01b038216820361023857565b6000546001600160a01b031633036120cd57565b60405163118cdaa760e01b8152336004820152602490fd5b156120ec57565b60405162461bcd60e51b81526020600482015260096024820152683d32b9379030b2323960b91b6044820152606490fd5b1561212457565b60405162461bcd60e51b815260206004820152601460248201527319195cd8dc9a5c1d1a5bdb881c995c5d5a5c995960621b6044820152606490fd5b600019811461048e5760010190565b6001600160401b03811161047857601f01601f191660200190565b9291926121968261216f565b916121a4604051938461206c565b829481845281830111610238578281602093846000960137010152565b90601f81116121cf57505050565b600091825260208220906020601f850160051c8301941061220b575b601f0160051c01915b82811061220057505050565b8181556001016121f4565b90925082906121eb565b908060209392818452848401376000828201840152601f01601f1916010190565b1561223d57565b60405162461bcd60e51b815260206004820152601060248201526f1d1a58dad95d081b9bdd08199bdd5b9960821b6044820152606490fd5b1561227c57565b60405162461bcd60e51b815260206004820152600d60248201526c1d1a58dad95d0818db1bdcd959609a1b6044820152606490fd5b156122b857565b60405162461bcd60e51b815260206004820152600f60248201526e1d1a58dad95d0818d85b98d95b1959608a1b6044820152606490fd5b9190820180921161048e57565b60026001541461230d576002600155565b604051633ee5aeb560e01b8152600490fd5b1561232657565b60405162461bcd60e51b815260206004820152600c60248201526b37b7363c9031b932b0ba37b960a11b6044820152606490fd5b1561236157565b60405162461bcd60e51b815260206004820152600e60248201526d1b9bdd08185d5d1a1bdc9a5e995960921b6044820152606490fd5b9190820391821161048e57565b3d156123cf573d906123b58261216f565b916123c3604051938461206c565b82523d6000602084013e565b606090565b60005260036020526040600020805415801561243c575b801561242b575b801561241d575b612417576009600a820154910154111561241257600190565b600090565b50600090565b5060058101544210156123f9565b5060ff600782015460081c166123f2565b5060ff6007820154166123eb565b60005260036020526040600020805415612417576009600a820154910154908181101561247d5761247a91612397565b90565b5050600090565b6000526003602052604060002080541561223d57600781015460ff8160081c166124d75760ff166124c5575b600501544210156124c057600090565b600190565b60058101544210156124b05750600390565b5050600290565b6001600160401b0381116104785760051b60200190565b80518210156104625760209160051b01019056fea26469706673582212200b5bf71b041246ce2897a36109d868a18ef4f112ca9974929bc77d998eb611e964736f6c63430008140033",
  "linkReferences": {},
  "deployedLinkReferences": {}
}