{
  "_format": "hh-sol-artifact-1",
  "contractName": "TicketNft",
  "sourceName": "contracts/TicketNft.sol",
  "abi": [
    {
      "inputs": [
        {
          "internalType": "string",
          "name": "name_",
          "type": "string"
        },
        {
          "internalType": "string",
          "name": "symbol_",
          "type": "string"
        },
        {
          "internalType": "string",
          "name": "imageUri_",
          "type": "string"
        }
      ],
      "stateMutability": "nonpayable",
      "type": "constructor"
    },
    {
      "inputs": [
        {
          "internalType": "address",
          "name": "sender",
          "type": "address"
        },
        {
          "internalType": "uint256",
          "name": "tokenId",
          "type": "uint256"
        },
        {
          "internalType": "address",
          "name": "owner",
          "type": "address"
        }
      ],
      "name": "ERC721IncorrectOwner",
      "type": "error"
    },
    {
      "inputs": [
        {
          "internalType": "address",
          "name": "operator",
          "type": "address"
        },
        {
          "internalType": "uint256",
          "name": "tokenId",
          "type": "uint256"
        }
      ],
      "name": "ERC721InsufficientApproval",
      "type": "error"
    },
    {
      "inputs": [
        {
          "internalType": "address",
          "name": "approver",
          "type": "address"
        }
      ],
      "name": "ERC721InvalidApprover",
      "type": "error"
    },
    {
      "inputs": [
        {
          "internalType": "address",
          "name": "operator",
          "type": "address"
        }
      ],
      "name": "ERC721InvalidOperator",
      "type": "error"
    },
    {
      "inputs": [
        {
          "internalType": "address",
          "name": "owner",
          "type": "address"
        }
      ],
      "name": "ERC721InvalidOwner",
      "type": "error"
    },
    {
      "inputs": [
        {
          "internalType": "address",
          "name": "receiver",
          "type": "address"
        }
      ],
      "name": "ERC721InvalidReceiver",
      "type": "error"
    },
    {
      "inputs": [
        {
          "internalType": "address",
          "name": "sender",
          "type": "address"
        }
      ],
      "name": "ERC721InvalidSender",
      "type": "error"
    },
    {
      "inputs": [
        {
          "internalType": "uint256",
          "name": "tokenId",
          "type": "uint256"
        }
      ],
      "name": "ERC721NonexistentToken",
      "type": "error"
    },
    {
      "inputs": [
        {
          "internalType": "address",
          "name": "owner",
          "type": "address"
        }
      ],
      "name": "OwnableInvalidOwner",
      "type": "error"
    },
    {
      "inputs": [
        {
          "internalType": "address",
          "name": "account",
          "type": "address"
        }
      ],
      "name": "OwnableUnauthorizedAccount",
      "type": "error"
    },
    {
      "anonymous": false,
      "inputs": [
        {
          "indexed": true,
          "internalType": "address",
          "name": "owner",
          "type": "address"
        },
        {
          "indexed": true,
          "internalType": "address",
          "name": "approved",
          "type": "address"
        },
        {
          "indexed": true,
          "internalType": "uint256",
          "name": "tokenId",
          "type": "uint256"
        }
      ],
      "name": "Approval",
      "type": "event"
    },
    {
      "anonymous": false,
      "inputs": [
        {
          "indexed": true,
          "internalType": "address",
          "name": "owner",
          "type": "address"
        },
        {
          "indexed": true,
          "internalType": "address",
          "name": "operator",
          "type": "address"
        },
        {
          "indexed": false,
          "internalType": "bool",
          "name": "approved",
          "type": "bool"
        }
      ],
      "name": "ApprovalForAll",
      "type": "event"
    },
    {
      "anonymous": false,
      "inputs": [
        {
          "indexed": false,
          "internalType": "string",
          "name": "newImageUri",
          "type": "string"
        }
      ],
      "name": "ImageUriUpdated",
      "type": "event"
    },
    {
      "anonymous": false,
      "inputs": [
        {
          "indexed": true,
          "internalType": "address",
          "name": "oldMinter",
          "type": "address"
        },
        {
          "indexed": true,
          "internalType": "address",
          "name": "newMinter",
          "type": "address"
        }
      ],
      "name": "MinterChanged",
      "type": "event"
    },
    {
      "anonymous": false,
      "inputs": [
        {
          "indexed": true,
          "internalType": "address",
          "name": "previousOwner",
          "type": "address"
        },
        {
          "indexed": true,
          "internalType": "address",
          "name": "newOwner",
          "type": "address"
        }
      ],
      "name": "OwnershipTransferred",
      "type": "event"
    },
    {
      "anonymous": false,
      "inputs": [
        {
          "indexed": true,
          "internalType": "address",
          "name": "to",
          "type": "address"
        },
        {
          "indexed": true,
          "internalType": "uint256",
          "name": "tokenId",
          "type": "uint256"
        },
        {
          "indexed": true,
          "internalType": "uint256",
          "name": "ticketId",
          "type": "uint256"
        }
      ],
      "name": "TicketMinted",
      "type": "event"
    },
    {
      "anonymous": false,
      "inputs": [
        {
          "indexed": true,
          "internalType": "address",
          "name": "from",
          "type": "address"
        },
        {
          "indexed": true,
          "internalType": "address",
          "name": "to",
          "type": "address"
        },
        {
          "indexed": true,
          "internalType": "uint256",
          "name": "tokenId",
          "type": "uint256"
        }
      ],
      "name": "Transfer",
      "type": "event"
    },
    {
      "inputs": [
        {
          "internalType": "address",
          "name": "to",
          "type": "address"
        },
        {
          "internalType": "uint256",
          "name": "tokenId",
          "type": "uint256"
        }
      ],
      "name": "approve",
      "outputs": [],
      "stateMutability": "nonpayable",
      "type": "function"
    },
    {
      "inputs": [
        {
          "internalType": "address",
          "name": "owner",
          "type": "address"
        }
      ],
      "name": "balanceOf",
      "outputs": [
        {
          "internalType": "uint256",
          "name": "",
          "type": "uint256"
        }
      ],
      "stateMutability": "view",
      "type": "function"
    },
    {
      "inputs": [
        {
          "internalType": "uint256",
          "name": "",
          "type": "uint256"
        }
      ],
      "name": "descriptionOfToken",
      "outputs": [
        {
          "internalType": "string",
          "name": "",
          "type": "string"
        }
      ],
      "stateMutability": "view",
      "type": "function"
    },
    {
      "inputs": [
        {
          "internalType": "uint256",
          "name": "",
          "type": "uint256"
        }
      ],
      "name": "eventNameOfToken",
      "outputs": [
        {
          "internalType": "string",
          "name": "",
          "type": "string"
        }
      ],
      "stateMutability": "view",
      "type": "function"
    },
    {
      "inputs": [
        {
          "internalType": "uint256",
          "name": "",
          "type": "uint256"
        }
      ],
      "name": "eventTimestampOfToken",
      "outputs": [
        {
          "internalType": "uint256",
          "name": "",
          "type": "uint256"
        }
      ],
      "stateMutability": "view",
      "type": "function"
    },
    {
      "inputs": [
        {
          "internalType": "uint256",
          "name": "tokenId",
          "type": "uint256"
        }
      ],
      "name": "getApproved",
      "outputs": [
        {
          "internalType": "address",
          "name": "",
          "type": "address"
        }
      ],
      "stateMutability": "view",
      "type": "function"
    },
    {
      "inputs": [],
      "name": "imageUri",
      "outputs": [
        {
          "internalType": "string",
          "name": "",
          "type": "string"
        }
      ],
      "stateMutability": "view",
      "type": "function"
    },
    {
      "inputs": [
        {
          "internalType": "address",
          "name": "owner",
          "type": "address"
        },
        {
          "internalType": "address",
          "name": "operator",
          "type": "address"
        }
      ],
      "name": "isApprovedForAll",
      "outputs": [
        {
          "internalType": "bool",
          "name": "",
          "type": "bool"
        }
      ],
      "stateMutability": "view",
      "type": "function"
    },
    {
      "inputs": [
        {
          "internalType": "uint256",
          "name": "",
          "type": "uint256"
        }
      ],
      "name": "locationOfToken",
      "outputs": [
        {
          "internalType": "string",
          "name": "",
          "type": "string"
        }
      ],
      "stateMutability": "view",
      "type": "function"
    },
    {
      "inputs": [
        {
          "internalType": "address",
          "name": "to",
          "type": "address"
        },
        {
          "internalType": "uint256",
          "name": "ticketId",
          "type": "uint256"
        },
        {
          "internalType": "string",
          "name": "eventName",
          "type": "string"
        },
        {
          "internalType": "string",
          "name": "description",
          "type": "string"
        },
        {
          "internalType": "uint256",
          "name": "eventTimestamp",
          "type": "uint256"
        },
        {
          "internalType": "string",
          "name": "location",
          "type": "string"
        }
      ],
      "name": "mintForRegistrant",
      "outputs": [
        {
          "internalType": "uint256",
          "name": "",
          "type": "uint256"
        }
      ],
      "stateMutability": "nonpayable",
      "type": "function"
    },
    {
      "inputs": [],
      "name": "minter",
      "outputs": [
        {
          "internalType": "address",
          "name": "",
          "type": "address"
        }
      ],
      "stateMutability": "view",
      "type": "function"
    },
    {
      "inputs": [],
      "name": "name",
      "outputs": [
        {
          "internalType": "string",
          "name": "",
          "type": "string"
        }
      ],
      "stateMutability": "view",
      "type": "function"
    },
    {
      "inputs": [],
      "name": "owner",
      "outputs": [
        {
          "internalType": "address",
          "name": "",
          "type": "address"
        }
      ],
      "stateMutability": "view",
      "type": "function"
    },
    {
      "inputs": [
        {
          "internalType": "uint256",
          "name": "tokenId",
          "type": "uint256"
        }
      ],
      "name": "ownerOf",
      "outputs": [
        {
          "internalType": "address",
          "name": "",
          "type": "address"
        }
      ],
      "stateMutability": "view",
      "type": "function"
    },
    {
      "inputs": [],
      "name": "renounceOwnership",
      "outputs": [],
      "stateMutability": "nonpayable",
      "type": "function"
    },
    {
      "inputs": [
        {
          "internalType": "address",
          "name": "from",
          "type": "address"
        },
        {
          "internalType": "address",
          "name": "to",
          "type": "address"
        },
        {
          "internalType": "uint256",
          "name": "tokenId",
          "type": "uint256"
        }
      ],
      "name": "safeTransferFrom",
      "outputs": [],
      "stateMutability": "nonpayable",
      "type": "function"
    },
    {
      "inputs": [
        {
          "internalType": "address",
          "name": "from",
          "type": "address"
        },
        {
          "internalType": "address",
          "name": "to",
          "type": "address"
        },
        {
          "internalType": "uint256",
          "name": "tokenId",
          "type": "uint256"
        },
        {
          "internalType": "bytes",
          "name": "data",
          "type": "bytes"
        }
      ],
      "name": "safeTransferFrom",
      "outputs": [],
      "stateMutability": "nonpayable",
      "type": "function"
    },
    {
      "inputs": [
        {
          "internalType": "address",
          "name": "operator",
          "type": "address"
        },
        {
          "internalType": "bool",
          "name": "approved",
          "type": "bool"
        }
      ],
      "name": "setApprovalForAll",
      "outputs": [],
      "stateMutability": "nonpayable",
      "type": "function"
    },
    {
      "inputs": [
        {
          "internalType": "string",
          "name": "newImageUri",
          "type": "string"
        }
      ],
      "name": "setImageUri",
      "outputs": [],
      "stateMutability": "nonpayable",
      "type": "function"
    },
    {
      "inputs": [
        {
          "internalType": "address",
          "name": "newMinter",
          "type": "address"
        }
      ],
      "name": "setMinter",
      "outputs": [],
      "stateMutability": "nonpayable",
      "type": "function"
    },
    {
      "inputs": [
        {
          "internalType": "bytes4",
          "name": "interfaceId",
          "type": "bytes4"
        }
      ],
      "name": "supportsInterface",
      "outputs": [
        {
          "internalType": "bool",
          "name": "",
          "type": "bool"
        }
      ],
      "stateMutability": "view",
      "type": "function"
    },
    {
      "inputs": [],
      "name": "symbol",
      "outputs": [
        {
          "internalType": "string",
          "name": "",
          "type": "string"
        }
      ],
      "stateMutability": "view",
      "type": "function"
    },
    {
      "inputs": [
        {
          "internalType": "uint256",
          "name": "",
          "type": "uint256"
        }
      ],
      "name": "ticketOfToken",
      "outputs": [
        {
          "internalType": "uint256",
          "name": "",
          "type": "uint256"
        }
      ],
      "stateMutability": "view",
      "type": "function"
    },
    {
      "inputs": [
        {
          "internalType": "uint256",
          "name": "tokenId",
          "type": "uint256"
        }
      ],
      "name": "tokenURI",
      "outputs": [
        {
          "internalType": "string",
          "name": "",
          "type": "string"
        }
      ],
      "stateMutability": "view",
      "type": "function"
    },
    {
      "inputs": [
        {
          "internalType": "address",
          "name": "from",
          "type": "address"
        },
        {
          "internalType": "address",
          "name": "to",
          "type": "address"
        },
        {
          "internalType": "uint256",
          "name": "tokenId",
          "type": "uint256"
        }
      ],
      "name": "transferFrom",
      "outputs": [],
      "stateMutability": "nonpayable",
      "type": "function"
    },
    {
      "inputs": [
        {
          "internalType": "address",
          "name": "newOwner",
          "type": "address"
        }
      ],
      "name": "transferOwnership",
      "outputs": [],
      "stateMutability": "nonpayable",
      "type": "function"
    }
  ],
  "bytecode": "0x6080604052346200051f576200250d803803806200001d8162000524565b92833981016060828203126200051f5781516001600160401b0391908281116200051f57816200004f9185016200054a565b90602093848101518481116200051f57826200006d9183016200054a565b9160408201518581116200051f576200008792016200054a565b82519184831162000509576000908154936001958686811c96168015620004fe575b8987101462000408578190601f96878111620004ab575b508990878311600114620004475785926200043b575b5050600019600383901b1c191690861b1782555b805190868211620004275785548681811c911680156200041c575b898210146200040857908186849311620003b5575b5088908683116001146200035157849262000345575b5050600019600383901b1c191690851b1784555b33156200032d5760068054336001600160a01b03198216811790925560405191906001600160a01b03167f8be0079c531659141344cd1fd0a4f28419497f9722a3daafe3b4186f6b6457e08480a3825115620002f757508151948511620002e3576009548481811c91168015620002d8575b87821014620002c4578381116200027b575b50859285116001146200021257939450849291908362000206575b50501b916000199060031b1c1916176009555b604051611f509081620005bd8239f35b015192503880620001e3565b6009815285812093958591601f198316915b8883831062000260575050501062000246575b505050811b01600955620001f6565b015160001960f88460031b161c1916905538808062000237565b85870151885590960195948501948793509081019062000224565b600982528682208480880160051c820192898910620002ba575b0160051c019085905b828110620002ae575050620001c8565b8381550185906200029e565b9250819262000295565b634e487b7160e01b82526022600452602482fd5b90607f1690620001b6565b634e487b7160e01b81526041600452602490fd5b62461bcd60e51b81526004810187905260116024820152701a5b5859d9555c9a481c995c5d5a5c9959607a1b6044820152606490fd5b60249060405190631e4fbdf760e01b82526004820152fd5b01519050388062000130565b8785528985208894509190601f198416865b8c8282106200039e575050841162000384575b505050811b01845562000144565b015160001960f88460031b161c1916905538808062000376565b8385015186558b9790950194938401930162000363565b9091508684528884208680850160051c8201928b8610620003fe575b918991869594930160051c01915b828110620003ef5750506200011a565b868155859450899101620003df565b92508192620003d1565b634e487b7160e01b84526022600452602484fd5b90607f169062000105565b634e487b7160e01b83526041600452602483fd5b015190503880620000d6565b8580528a86208994509190601f198416875b8d8282106200049457505084116200047a575b505050811b018255620000ea565b015160001960f88460031b161c191690553880806200046c565b8385015186558c9790950194938401930162000459565b9091508480528985208780850160051c8201928c8610620004f4575b918a91869594930160051c01915b828110620004e5575050620000c0565b8781558594508a9101620004d5565b92508192620004c7565b95607f1695620000a9565b634e487b7160e01b600052604160045260246000fd5b600080fd5b6040519190601f01601f191682016001600160401b038111838210176200050957604052565b919080601f840112156200051f5782516001600160401b038111620005095760209062000580601f8201601f1916830162000524565b928184528282870101116200051f5760005b818110620005a857508260009394955001015290565b85810183015184820184015282016200059256fe608080604052600436101561001357600080fd5b60003560e01c90816301ffc9a7146115f15750806306fdde031461154e5780630754617214611525578063081812fc146114e7578063095ea7b3146114005780630bf82da41461136c57806323b872dd1461135557806342842e0e14611327578063547ca2ee146112fb5780636352211e146112cb578063666abc161461129f57806370a0823114611246578063715018a6146111e95780637754f3d0146111bd5780638da5cb5b1461119457806395d89b41146110c9578063a22cb46514611024578063b428181e14610fe4578063b88d4fde14610f76578063c492892014610f4a578063c87b56dd14610bad578063d9e5ea4d146109bf578063da16b5481461029a578063e985e9c514610244578063f2fde38b146101b65763fca3b5aa1461013d57600080fd5b346101b15760203660031901126101b1576101566116a4565b61015e611894565b6001600160a01b0390811690610175821515611bcf565b816008549182167f3b0007eb941cf645526cbb3a4fdaecda9d28ce4843167d9263b536a1f1edc0f6600080a36001600160a01b03191617600855005b600080fd5b346101b15760203660031901126101b1576101cf6116a4565b6101d7611894565b6001600160a01b0390811690811561022b57600654826bffffffffffffffffffffffff60a01b821617600655167f8be0079c531659141344cd1fd0a4f28419497f9722a3daafe3b4186f6b6457e0600080a3005b604051631e4fbdf760e01b815260006004820152602490fd5b346101b15760403660031901126101b15761025d6116a4565b6102656116ba565b9060018060a01b03809116600052600560205260406000209116600052602052602060ff604060002054166040519015158152f35b346101b15760c03660031901126101b1576102b36116a4565b60443567ffffffffffffffff81116101b1576102d3903690600401611876565b60643567ffffffffffffffff81116101b1576102f3903690600401611876565b9160a43567ffffffffffffffff81116101b157610314903690600401611876565b926001600160a01b038216159261032b8415611bcf565b6007549360001985146109a957600185016007556040519061034c8261170a565b806000835261099057600186016000908152600260205260409020546001600160a01b0316908161094a575b15610926575b60018601600081815260026020526040812080546001600160a01b0319166001600160a01b0389169081179091559083907fddf252ad1be2c89b69c2b068fc378daa952ba7f163c4a11628f55a4df523b3ef9080a461090d57833b6107cc575b5060018401600052600a602052602435604060002055600b60205260406000209080519067ffffffffffffffff821161062a57819061041d84546116d0565b601f811161077c575b50602090601f831160011461071057600092610705575b50508160011b916000199060031b1c19161790555b60018301600052600c60205260406000209080519067ffffffffffffffff821161062a57819061048284546116d0565b601f81116106b7575b50602090601f831160011461064b57600092610640575b50508160011b916000199060031b1c19161790555b60018201600052600d602052608435604060002055600e60205260406000209183519267ffffffffffffffff841161062a576104f381546116d0565b94601f86116105e2575b602095508590601f8611600114610579579480916001959660009261056e575b5050600019600383901b1c191690841b1790555b604051926024359083830190848060a01b03167fcbea9c23945e351434f7ae5b1a435091cc278dd9dd0eba4c04203674014ca7d7600080a4018152f35b01519050878061051d565b90601f1986169183600052876000209260005b8181106105cb57509160019697929183889593106105b2575b505050811b019055610531565b015160001960f88460031b161c191690558780806105a5565b92938960018192878601518155019501930161058c565b816000526020600020601f860160051c81019660208710610620575b601f0160051c01955b86811061061457506104fd565b60008155600101610607565b90965086906105fe565b634e487b7160e01b600052604160045260246000fd5b0151905086806104a2565b9250836000526020600020906000935b601f198416851061069c576001945083601f19811610610683575b505050811b0190556104b7565b015160001960f88460031b161c19169055868080610676565b8181015183556020948501946001909301929091019061065b565b909150836000526020600020601f840160051c8101602085106106fe575b90601f8594930160051c01905b8181106106ef575061048b565b600081558493506001016106e2565b50806106d5565b01519050878061043d565b9250836000526020600020906000935b601f1984168510610761576001945083601f19811610610748575b505050811b019055610452565b015160001960f88460031b161c1916905587808061073b565b81810151835560209485019460019093019290910190610720565b909150836000526020600020601f840160051c8101602085106107c5575b90849392915b601f830160051c820181106107b6575050610426565b600081558594506001016107a0565b508061079a565b604095949395516020818061080d630a85bd0160e11b958683523360048401526000602484015260018a01604484015260806064840152608483019061167f565b038160006001600160a01b038c165af1600091816108c8575b5061088e57863d15610886573d9061083d82611823565b9161084b6040519384611726565b82523d6000602084013e5b8151918261087f57604051633250574960e11b81526001600160a01b0383166004820152602490fd5b6020915001fd5b606090610856565b949593946001600160e01b031916036108a757856103de565b604051633250574960e11b81526001600160a01b0384166004820152602490fd5b9091506020813d602011610905575b816108e460209383611726565b810103126101b157516001600160e01b0319811681036101b1579088610826565b3d91506108d7565b6040516339e3563760e11b815260006004820152602490fd5b6001600160a01b03851660009081526003602052604090208054600101905561037e565b61097560018801600052600460205260406000206bffffffffffffffffffffffff60a01b8154169055565b81600052600360205260406000206000198154019055610378565b604051633250574960e11b815260006004820152602490fd5b634e487b7160e01b600052601160045260246000fd5b346101b1576020806003193601126101b15767ffffffffffffffff906004358281116101b1576109f3903690600401611876565b906109fc611894565b815115610b7557815192831161062a57610a176009546116d0565b601f8111610b23575b508092601f8111600114610a9257807ff7c3621393b2fb83d58a2e2c303cc58d9f6599a753edddfa633df52a07a1011494600091610a87575b508160011b916000199060031b1c1916176009555b610a8260405192828493845283019061167f565b0390a1005b905083015185610a59565b601f198116936009600052600080516020611efb8339815191529460005b818110610b0c57509482916001937ff7c3621393b2fb83d58a2e2c303cc58d9f6599a753edddfa633df52a07a101149710610af3575b5050811b01600955610a6e565b85015160001960f88460031b161c191690558580610ae6565b858301518755600190960195918401918401610ab0565b6009600052600080516020611efb833981519152601f850160051c810191838610610b6b575b601f0160051c01905b818110610b5f5750610a20565b60008155600101610b52565b9091508190610b49565b6064906040519062461bcd60e51b8252600482015260116024820152701a5b5859d9555c9a481c995c5d5a5c9959607a1b6044820152fd5b346101b1576020806003193601126101b157610c4660043580600052600b83526040600020610bdb82611db7565b9180600052600c8086526040600020600a8752610bfc604060002054611db7565b9083600052600d8852610c13604060002054611db7565b93600052600e8852610c92604060002096604051988997693d913730b6b2911d101160b11b8c8a0152602a890190611c0a565b61202360f01b8152610c61825180938d60028501910161165c565b0191601461088b60f21b938460028201526f113232b9b1b934b83a34b7b7111d101160811b60048201520190611c0a565b818152691134b6b0b3b2911d101160b11b600282015260095460009491610cb8826116d0565b91600190818116908115610f2b5750600114610edb575b505050506004949383610dfb9793608893610dd996526e2261747472696275746573223a205b841b60028301527f7b2274726169745f74797065223a20224576656e74204944222c202276616c7560118301526432911d101160d91b91826031820152610d468c835193849160368501910161165c565b019162089f4b60ea1b928360368201527f7b2274726169745f74797065223a20224576656e742044617465222c20227661603982015266363ab2911d101160c91b6059820152610da08c835193849160608501910161165c565b019160608301527f7b2274726169745f74797065223a20224c6f636174696f6e222c202276616c75606383015260838201520190611c0a565b61227d60f01b8152615d7d60f01b600282015203601b19810184520182611726565b604051606081019181831067ffffffffffffffff84111761062a57610e7192604052604082527f4142434445464748494a4b4c4d4e4f505152535455565758595a616263646566848301527f6768696a6b6c6d6e6f707172737475767778797a303132333435363738392b2f6040830152611cbf565b90610ec3603d60405180947f646174613a6170706c69636174696f6e2f6a736f6e3b6261736536342c00000085830152610eb38151809287868601910161165c565b810103601d810185520183611726565b610ed760405192828493845283019061167f565b0390f35b9091929395506009600052600080516020611efb833981519152908b6000925b858410610f145750505050010191838183610dd9610ccf565b80548585018801528c9a509201918c908201610efb565b60ff191683860152505081151590910201019250838183610dd9610ccf565b346101b15760203660031901126101b157600435600052600d6020526020604060002054604051908152f35b346101b15760803660031901126101b157610f8f6116a4565b610f976116ba565b906044356064359267ffffffffffffffff84116101b157366023850112156101b157610fd0610fe294369060248160040135910161183f565b92610fdc8383836118c0565b33611a81565b005b346101b15760203660031901126101b157600435600052600e602052610ed76110106040600020611748565b60405191829160208352602083019061167f565b346101b15760403660031901126101b15761103d6116a4565b602435908115158092036101b1576001600160a01b03169081156110b057336000526005602052604060002082600052602052604060002060ff1981541660ff83161790556040519081527f17307eab39ab6107e8899845ad3d59bd9653f200f220920489ca2b5937696c3160203392a3005b604051630b61174360e31b815260048101839052602490fd5b346101b15760003660031901126101b157604051600060018054906110ed826116d0565b8085529181811690811561116d5750600114611114575b610ed78461101081860382611726565b600081815292507fb10e2d527612073b26eecdfd717e6a320cf44b4afac2b0732d9fcbe2b7fa0cf65b82841061115557505050810160200161101082611104565b8054602085870181019190915290930192810161113d565b60ff191660208087019190915292151560051b850190920192506110109150839050611104565b346101b15760003660031901126101b1576006546040516001600160a01b039091168152602090f35b346101b15760203660031901126101b157600435600052600c602052610ed76110106040600020611748565b346101b15760003660031901126101b157611202611894565b600680546001600160a01b031981169091556000906001600160a01b03167f8be0079c531659141344cd1fd0a4f28419497f9722a3daafe3b4186f6b6457e08280a3005b346101b15760203660031901126101b1576001600160a01b036112676116a4565b1680156112865760005260036020526020604060002054604051908152f35b6040516322718ad960e21b815260006004820152602490fd5b346101b15760203660031901126101b157600435600052600a6020526020604060002054604051908152f35b346101b15760203660031901126101b15760206112e9600435611a46565b6040516001600160a01b039091168152f35b346101b15760203660031901126101b157600435600052600b602052610ed76110106040600020611748565b346101b157610fe2611338366117ee565b90604051926113468461170a565b60008452610fdc8383836118c0565b346101b157610fe2611366366117ee565b916118c0565b346101b15760003660031901126101b157604051600060095461138e816116d0565b8084529060019081811690811561116d57506001146113b757610ed78461101081860382611726565b600960009081529250600080516020611efb8339815191525b8284106113e857505050810160200161101082611104565b805460208587018101919091529093019281016113d0565b346101b15760403660031901126101b1576114196116a4565b60243561142581611a46565b331515806114d4575b806114a7575b61148f576001600160a01b039283169282918491167f8c5be1e5ebec7d5bd14f71427d1e84f3dd0314c0f7b2291e5b200ac8c7c3b925600080a4600090815260046020526040902080546001600160a01b0319169091179055005b60405163a9fbf51f60e01b8152336004820152602490fd5b5060018060a01b038116600052600560205260406000203360005260205260ff6040600020541615611434565b506001600160a01b03811633141561142e565b346101b15760203660031901126101b15760043561150481611a46565b506000526004602052602060018060a01b0360406000205416604051908152f35b346101b15760003660031901126101b1576008546040516001600160a01b039091168152602090f35b346101b15760003660031901126101b1576040516000805461156f816116d0565b8084529060019081811690811561116d575060011461159857610ed78461101081860382611726565b600080805292507f290decd9548b62a8d60345a988386fc84ba6bc95484008f6362f93160ef3e5635b8284106115d957505050810160200161101082611104565b805460208587018101919091529093019281016115c1565b346101b15760203660031901126101b1576004359063ffffffff60e01b82168092036101b1576020916380ac58cd60e01b811490811561164b575b811561163a575b5015158152f35b6301ffc9a760e01b14905083611633565b635b5e139f60e01b8114915061162c565b60005b83811061166f5750506000910152565b818101518382015260200161165f565b906020916116988151809281855285808601910161165c565b601f01601f1916010190565b600435906001600160a01b03821682036101b157565b602435906001600160a01b03821682036101b157565b90600182811c92168015611700575b60208310146116ea57565b634e487b7160e01b600052602260045260246000fd5b91607f16916116df565b6020810190811067ffffffffffffffff82111761062a57604052565b90601f8019910116810190811067ffffffffffffffff82111761062a57604052565b906040519182600082549261175c846116d0565b9081845260019485811690816000146117cb5750600114611788575b505061178692500383611726565b565b9093915060005260209081600020936000915b8183106117b357505061178693508201013880611778565b8554888401850152948501948794509183019161179b565b91505061178694506020925060ff191682840152151560051b8201013880611778565b60609060031901126101b1576001600160a01b039060043582811681036101b1579160243590811681036101b1579060443590565b67ffffffffffffffff811161062a57601f01601f191660200190565b92919261184b82611823565b916118596040519384611726565b8294818452818301116101b1578281602093846000960137010152565b9080601f830112156101b1578160206118919335910161183f565b90565b6006546001600160a01b031633036118a857565b60405163118cdaa760e01b8152336004820152602490fd5b6001600160a01b039182169290918315610990576000928284528260209560028752604096848888205416968791331515806119b0575b509060027fddf252ad1be2c89b69c2b068fc378daa952ba7f163c4a11628f55a4df523b3ef928461197d575b858352600381528b8320805460010190558683525289812080546001600160a01b0319168517905580a4169283830361195c5750505050565b6064945051926364283d7b60e01b8452600484015260248301526044820152fd5b600087815260046020526040902080546001600160a01b0319169055848352600381528b83208054600019019055611923565b91939450915080611a05575b156119cc578592918791386118f7565b8786886119e9576024915190637e27328960e01b82526004820152fd5b604491519063177e802f60e01b82523360048301526024820152fd5b503387148015611a2a575b806119bc57508582526004815233858984205416146119bc565b5086825260058152878220338352815260ff8883205416611a10565b6000818152600260205260409020546001600160a01b0316908115611a69575090565b60249060405190637e27328960e01b82526004820152fd5b90939192833b611a93575b5050505050565b604051630a85bd0160e11b8082526001600160a01b039384166004830152958316602482015260448101919091526080606482015294921692602092918590611ae090608483019061167f565b039483816000978189895af1869181611b8b575b50611b55575050503d600014611b4c573d611b0e81611823565b90611b1c6040519283611726565b81528093823d92013e5b82519283611b4757604051633250574960e11b815260048101849052602490fd5b019050fd5b60609250611b26565b919450915063ffffffff60e01b1603611b7357503880808080611a8c565b60249060405190633250574960e11b82526004820152fd5b9091508481813d8311611bc8575b611ba38183611726565b81010312611bc457516001600160e01b031981168103611bc4579038611af4565b8680fd5b503d611b99565b15611bd657565b60405162461bcd60e51b815260206004820152600c60248201526b7a65726f206164647265737360a01b6044820152606490fd5b600092918154611c19816116d0565b92600191808316908115611c725750600114611c36575b50505050565b90919293945060005260209081600020906000915b858310611c615750505050019038808080611c30565b805485840152918301918101611c4b565b60ff1916845250505081151590910201915038808080611c30565b90611c9782611823565b611ca46040519182611726565b8281528092611cb5601f1991611823565b0190602036910137565b805115611da25780516002918282018092116109a9576003918290046001600160fe1b03811681036109a957611cf8908495941b611c8d565b936020850193829183518401906020820192835194600085525b838110611d51575050505052510680600114611d3e57600214611d33575090565b603d90600019015390565b50603d9081600019820153600119015390565b87600491999293949901918251600190603f9082828260121c16880101518453828282600c1c16880101518385015382828260061c1688010151888501531685010151898201530197929190611d12565b5050604051611db08161170a565b6000815290565b806000917a184f03e93ff9f4daa797ed6e38ed64bf6a1f01000000000000000080821015611eec575b506d04ee2d6d415b85acef810000000080831015611edd575b50662386f26fc1000080831015611ece575b506305f5e10080831015611ebf575b5061271080831015611eb0575b506064821015611ea0575b600a80921015611e96575b600190816021611e4e828701611c8d565b95860101905b611e60575b5050505090565b600019019083906f181899199a1a9b1b9c1cb0b131b232b360811b8282061a835304918215611e9157919082611e54565b611e59565b9160010191611e3d565b9190606460029104910191611e32565b60049193920491019138611e27565b60089193920491019138611e1a565b60109193920491019138611e0b565b60209193920491019138611df9565b604093508104915038611de056fe6e1540171b6c0c960b71a7020d9f60077f6af931a8bbf590da0223dacf75c7afa2646970667358221220b93ea8f448c1957143e15d86a1e7a7b74fbe3c694321b071dea8d11c42c2f0ff64736f6c63430008140033",
  "linkReferences": {},
  "deployedLinkReferences": {}
}