{
  "_format": "hh-sol-artifact-1",
  "contractName": "EventTicketing",
  "sourceName": "contracts/EventTicketing.sol",
  "abi": [
    {
      "inputs": [
        {
          "internalType": "address",
          "name": "ticketNftAddress",
          "type": "address"
        },
        {
          "internalType": "address payable",
          "name": "feeRecipient_",
          "type": "address"
        },
        {
          "internalType": "uint16",
          "name": "feeBps",
          "type": "uint16"
        }
      ],
      "stateMutability": "nonpayable",
      "type": "constructor"
    },
    {
      "inputs": [
        {
          "internalType": "address",
          "name": "owner",
          "type": "address"
        }
      ],
      "name": "OwnableInvalidOwner",
      "type": "error"
    },
    {
      "inputs": [
        {
          "internalType": "address",
          "name": "account",
          "type": "address"
        }
      ],
      "name": "OwnableUnauthorizedAccount",
      "type": "error"
    },
    {
      "inputs": [],
      "name": "ReentrancyGuardReentrantCall",
      "type": "error"
    },
    {
      "anonymous": false,
      "inputs": [
        {
          "indexed": true,
          "internalType": "address",
          "name": "newRecipient",
          "type": "address"
        }
      ],
      "name": "FeeRecipientUpdated",
      "type": "event"
    },
    {
      "anonymous": false,
      "inputs": [
        {
          "indexed": true,
          "internalType": "uint256",
          "name": "ticketId",
          "type": "uint256"
        },
        {
          "indexed": false,
          "internalType": "uint256",
          "name": "newMaxSupply",
          "type": "uint256"
        }
      ],
      "name": "MaxSupplyUpdated",
      "type": "event"
    },
    {
      "anonymous": false,
      "inputs": [
        {
          "indexed": true,
          "internalType": "address",
          "name": "previousOwner",
          "type": "address"
        },
        {
          "indexed": true,
          "internalType": "address",
          "name": "newOwner",
          "type": "address"
        }
      ],
      "name": "OwnershipTransferred",
      "type": "event"
    },
    {
      "anonymous": false,
      "inputs": [
        {
          "indexed": true,
          "internalType": "uint256",
          "name": "ticketId",
          "type": "uint256"
        },
        {
          "indexed": true,
          "internalType": "address",
          "name": "creator",
          "type": "address"
        },
        {
          "indexed": false,
          "internalType": "uint256",
          "name": "creatorAmount",
          "type": "uint256"
        },
        {
          "indexed": false,
          "internalType": "uint256",
          "name": "feeAmount",
          "type": "uint256"
        }
      ],
      "name": "ProceedsWithdrawn",
      "type": "event"
    },
    {
      "anonymous": false,
      "inputs": [
        {
          "indexed": true,
          "internalType": "uint256",
          "name": "ticketId",
          "type": "uint256"
        },
        {
          "indexed": true,
          "internalType": "address",
          "name": "user",
          "type": "address"
        },
        {
          "indexed": false,
          "internalType": "uint256",
          "name": "amount",
          "type": "uint256"
        }
      ],
      "name": "RefundClaimed",
      "type": "event"
    },
    {
      "anonymous": false,
      "inputs": [
        {
          "indexed": true,
          "internalType": "uint256",
          "name": "ticketId",
          "type": "uint256"
        },
        {
          "indexed": true,
          "internalType": "address",
          "name": "registrant",
          "type": "address"
        },
        {
          "indexed": false,
          "internalType": "uint256",
          "name": "nftTokenId",
          "type": "uint256"
        }
      ],
      "name": "Registered",
      "type": "event"
    },
    {
      "anonymous": false,
      "inputs": [
        {
          "indexed": false,
          "internalType": "uint16",
          "name": "newFeeBps",
          "type": "uint16"
        }
      ],
      "name": "ServiceFeeUpdated",
      "type": "event"
    },
    {
      "anonymous": false,
      "inputs": [
        {
          "indexed": true,
          "internalType": "uint256",
          "name": "ticketId",
          "type": "uint256"
        },
        {
          "indexed": true,
          "internalType": "address",
          "name": "canceledBy",
          "type": "address"
        }
      ],
      "name": "TicketCanceled",
      "type": "event"
    },
    {
      "anonymous": false,
      "inputs": [
        {
          "indexed": true,
          "internalType": "uint256",
          "name": "ticketId",
          "type": "uint256"
        },
        {
          "indexed": true,
          "internalType": "address",
          "name": "closedBy",
          "type": "address"
        }
      ],
      "name": "TicketClosed",
      "type": "event"
    },
    {
      "anonymous": false,
      "inputs": [
        {
          "indexed": true,
          "internalType": "uint256",
          "name": "ticketId",
          "type": "uint256"
        },
        {
          "indexed": true,
          "internalType": "address",
          "name": "creator",
          "type": "address"
        },
        {
          "indexed": false,
          "internalType": "uint256",
          "name": "price",
          "type": "uint256"
        },
        {
          "indexed": false,
          "internalType": "string",
          "name": "eventName",
          "type": "string"
        },
        {
          "indexed": false,
          "internalType": "string",
          "name": "description",
          "type": "string"
        },
        {
          "indexed": false,
          "internalType": "uint256",
          "name": "eventTimestamp",
          "type": "uint256"
        },
        {
          "indexed": false,
          "internalType": "uint256",
          "name": "maxSupply",
          "type": "uint256"
        }
      ],
      "name": "TicketCreated",
      "type": "event"
    },
    {
      "anonymous": false,
      "inputs": [
        {
          "indexed": true,
          "internalType": "uint256",
          "name": "ticketId",
          "type": "uint256"
        },
        {
          "indexed": false,
          "internalType": "uint256",
          "name": "newPrice",
          "type": "uint256"
        },
        {
          "indexed": false,
          "internalType": "uint256",
          "name": "newTimestamp",
          "type": "uint256"
        },
        {
          "indexed": false,
          "internalType": "string",
          "name": "newLocation",
          "type": "string"
        }
      ],
      "name": "TicketUpdated",
      "type": "event"
    },
    {
      "stateMutability": "payable",
      "type": "fallback"
    },
    {
      "inputs": [
        {
          "internalType": "uint256",
          "name": "ticketId",
          "type": "uint256"
        }
      ],
      "name": "cancelTicket",
      "outputs": [],
      "stateMutability": "nonpayable",
      "type": "function"
    },
    {
      "inputs": [
        {
          "internalType": "uint256",
          "name": "ticketId",
          "type": "uint256"
        }
      ],
      "name": "claimRefund",
      "outputs": [],
      "stateMutability": "nonpayable",
      "type": "function"
    },
    {
      "inputs": [
        {
          "internalType": "uint256",
          "name": "ticketId",
          "type": "uint256"
        }
      ],
      "name": "closeTicket",
      "outputs": [],
      "stateMutability": "nonpayable",
      "type": "function"
    },
    {
      "inputs": [
        {
          "internalType": "uint256",
          "name": "price",
          "type": "uint256"
        },
        {
          "internalType": "string",
          "name": "eventName",
          "type": "string"
        },
        {
          "internalType": "string",
          "name": "description",
          "type": "string"
        },
        {
          "internalType": "uint256",
          "name": "eventTimestamp",
          "type": "uint256"
        },
        {
          "internalType": "uint256",
          "name": "maxSupply",
          "type": "uint256"
        },
        {
          "internalType": "string",
          "name": "metadata",
          "type": "string"
        },
        {
          "internalType": "string",
          "name": "location",
          "type": "string"
        }
      ],
      "name": "createTicket",
      "outputs": [
        {
          "internalType": "uint256",
          "name": "",
          "type": "uint256"
        }
      ],
      "stateMutability": "nonpayable",
      "type": "function"
    },
    {
      "inputs": [],
      "name": "feeRecipient",
      "outputs": [
        {
          "internalType": "address payable",
          "name": "",
          "type": "address"
        }
      ],
      "stateMutability": "view",
      "type": "function"
    },
    {
      "inputs": [
        {
          "internalType": "uint256",
          "name": "startIndex",
          "type": "uint256"
        },
        {
          "internalType": "uint256",
          "name": "endIndex",
          "type": "uint256"
        }
      ],
      "name": "getAllTickets",
      "outputs": [
        {
          "components": [
            {
              "internalType": "uint256",
              "name": "id",
              "type": "uint256"
            },
            {
              "internalType": "address payable",
              "name": "creator",
              "type": "address"
            },
            {
              "internalType": "uint256",
              "name": "price",
              "type": "uint256"
            },
            {
              "internalType": "string",
              "name": "eventName",
              "type": "string"
            },
            {
              "internalType": "string",
              "name": "description",
              "type": "string"
            },
            {
              "internalType": "uint256",
              "name": "eventTimestamp",
              "type": "uint256"
            },
            {
              "internalType": "string",
              "name": "location",
              "type": "string"
            },
            {
              "internalType": "bool",
              "name": "closed",
              "type": "bool"
            },
            {
              "internalType": "bool",
              "name": "canceled",
              "type": "bool"
            },
            {
              "internalType": "string",
              "name": "metadata",
              "type": "string"
            },
            {
              "internalType": "uint256",
              "name": "maxSupply",
              "type": "uint256"
            },
            {
              "internalType": "uint256",
              "name": "sold",
              "type": "uint256"
            },
            {
              "internalType": "uint256",
              "name": "totalCollected",
              "type": "uint256"
            },
            {
              "internalType": "uint256",
              "name": "totalRefunded",
              "type": "uint256"
            },
            {
              "internalType": "bool",
              "name": "proceedsWithdrawn",
              "type": "bool"
            }
          ],
          "internalType": "struct EventTicketingLib.Ticket[]",
          "name": "",
          "type": "tuple[]"
        }
      ],
      "stateMutability": "view",
      "type": "function"
    },
    {
      "inputs": [
        {
          "internalType": "uint256",
          "name": "ticketId",
          "type": "uint256"
        }
      ],
      "name": "getRegistrants",
      "outputs": [
        {
          "internalType": "address[]",
          "name": "",
          "type": "address[]"
        }
      ],
      "stateMutability": "view",
      "type": "function"
    },
    {
      "inputs": [
        {
          "internalType": "uint256",
          "name": "ticketId",
          "type": "uint256"
        }
      ],
      "name": "getStatus",
      "outputs": [
        {
          "internalType": "enum EventTicketing.Status",
          "name": "",
          "type": "uint8"
        }
      ],
      "stateMutability": "view",
      "type": "function"
    },
    {
      "inputs": [
        {
          "internalType": "uint256",
          "name": "ticketId",
          "type": "uint256"
        }
      ],
      "name": "isAvailable",
      "outputs": [
        {
          "internalType": "bool",
          "name": "",
          "type": "bool"
        }
      ],
      "stateMutability": "view",
      "type": "function"
    },
    {
      "inputs": [
        {
          "internalType": "uint256",
          "name": "",
          "type": "uint256"
        },
        {
          "internalType": "address",
          "name": "",
          "type": "address"
        }
      ],
      "name": "isRegistered",
      "outputs": [
        {
          "internalType": "bool",
          "name": "",
          "type": "bool"
        }
      ],
      "stateMutability": "view",
      "type": "function"
    },
    {
      "inputs": [],
      "name": "owner",
      "outputs": [
        {
          "internalType": "address",
          "name": "",
          "type": "address"
        }
      ],
      "stateMutability": "view",
      "type": "function"
    },
    {
      "inputs": [
        {
          "internalType": "uint256",
          "name": "",
          "type": "uint256"
        },
        {
          "internalType": "address",
          "name": "",
          "type": "address"
        }
      ],
      "name": "paidAmount",
      "outputs": [
        {
          "internalType": "uint256",
          "name": "",
          "type": "uint256"
        }
      ],
      "stateMutability": "view",
      "type": "function"
    },
    {
      "inputs": [],
      "name": "platformFeeBps",
      "outputs": [
        {
          "internalType": "uint16",
          "name": "",
          "type": "uint16"
        }
      ],
      "stateMutability": "view",
      "type": "function"
    },
    {
      "inputs": [
        {
          "internalType": "uint256",
          "name": "ticketId",
          "type": "uint256"
        }
      ],
      "name": "register",
      "outputs": [
        {
          "internalType": "uint256",
          "name": "",
          "type": "uint256"
        }
      ],
      "stateMutability": "payable",
      "type": "function"
    },
    {
      "inputs": [],
      "name": "renounceOwnership",
      "outputs": [],
      "stateMutability": "nonpayable",
      "type": "function"
    },
    {
      "inputs": [
        {
          "internalType": "address payable",
          "name": "newRecipient",
          "type": "address"
        }
      ],
      "name": "setFeeRecipient",
      "outputs": [],
      "stateMutability": "nonpayable",
      "type": "function"
    },
    {
      "inputs": [
        {
          "internalType": "uint16",
          "name": "feeBps",
          "type": "uint16"
        }
      ],
      "name": "setServiceFee",
      "outputs": [],
      "stateMutability": "nonpayable",
      "type": "function"
    },
    {
      "inputs": [
        {
          "internalType": "address",
          "name": "ticketNftAddress",
          "type": "address"
        }
      ],
      "name": "setTicketNft",
      "outputs": [],
      "stateMutability": "nonpayable",
      "type": "function"
    },
    {
      "inputs": [],
      "name": "ticketNft",
      "outputs": [
        {
          "internalType": "contract ITicketNft",
          "name": "",
          "type": "address"
        }
      ],
      "stateMutability": "view",
      "type": "function"
    },
    {
      "inputs": [
        {
          "internalType": "uint256",
          "name": "",
          "type": "uint256"
        }
      ],
      "name": "tickets",
      "outputs": [
        {
          "internalType": "uint256",
          "name": "id",
          "type": "uint256"
        },
        {
          "internalType": "address payable",
          "name": "creator",
          "type": "address"
        },
        {
          "internalType": "uint256",
          "name": "price",
          "type": "uint256"
        },
        {
          "internalType": "string",
          "name": "eventName",
          "type": "string"
        },
        {
          "internalType": "string",
          "name": "description",
          "type": "string"
        },
        {
          "internalType": "uint256",
          "name": "eventTimestamp",
          "type": "uint256"
        },
        {
          "internalType": "string",
          "name": "location",
          "type": "string"
        },
        {
          "internalType": "bool",
          "name": "closed",
          "type": "bool"
        },
        {
          "internalType": "bool",
          "name": "canceled",
          "type": "bool"
        },
        {
          "internalType": "string",
          "name": "metadata",
          "type": "string"
        },
        {
          "internalType": "uint256",
          "name": "maxSupply",
          "type": "uint256"
        },
        {
          "internalType": "uint256",
          "name": "sold",
          "type": "uint256"
        },
        {
          "internalType": "uint256",
          "name": "totalCollected",
          "type": "uint256"
        },
        {
          "internalType": "uint256",
          "name": "totalRefunded",
          "type": "uint256"
        },
        {
          "internalType": "bool",
          "name": "proceedsWithdrawn",
          "type": "bool"
        }
      ],
      "stateMutability": "view",
      "type": "function"
    },
    {
      "inputs": [
        {
          "internalType": "uint256",
          "name": "ticketId",
          "type": "uint256"
        }
      ],
      "name": "ticketsLeft",
      "outputs": [
        {
          "internalType": "uint256",
          "name": "",
          "type": "uint256"
        }
      ],
      "stateMutability": "view",
      "type": "function"
    },
    {
      "inputs": [
        {
          "internalType": "address",
          "name": "newOwner",
          "type": "address"
        }
      ],
      "name": "transferOwnership",
      "outputs": [],
      "stateMutability": "nonpayable",
      "type": "function"
    },
    {
      "inputs": [
        {
          "internalType": "uint256",
          "name": "ticketId",
          "type": "uint256"
        },
        {
          "internalType": "uint256",
          "name": "newMaxSupply",
          "type": "uint256"
        }
      ],
      "name": "updateMaxSupply",
      "outputs": [],
      "stateMutability": "nonpayable",
      "type": "function"
    },
    {
      "inputs": [
        {
          "internalType": "uint256",
          "name": "ticketId",
          "type": "uint256"
        },
        {
          "internalType": "uint256",
          "name": "newPrice",
          "type": "uint256"
        },
        {
          "internalType": "string",
          "name": "newLocation",
          "type": "string"
        },
        {
          "internalType": "uint256",
          "name": "newEventTimestamp",
          "type": "uint256"
        }
      ],
      "name": "updateTicket",
      "outputs": [],
      "stateMutability": "nonpayable",
      "type": "function"
    },
    {
      "inputs": [
        {
          "internalType": "uint256",
          "name": "ticketId",
          "type": "uint256"
        }
      ],
      "name": "withdrawProceeds",
      "outputs": [],
      "stateMutability": "nonpayable",
      "type": "function"
    },
    {
      "stateMutability": "payable",
      "type": "receive"
    }
  ],
  "bytecode": "0x608034620001ec57601f620028e038819003918201601f191683019291906001600160401b03841183851017620001f1578160609284926040968752833981010312620001ec5780516001600160a01b039081811690819003620001ec5760208301519180831693848403620001ec578501519361ffff8516809503620001ec573315620001d4576000549160018060a01b03199233848216176000558751913391167f8be0079c531659141344cd1fd0a4f28419497f9722a3daafe3b4186f6b6457e0600080a3600180558315620001925750156200014e5761271084116200011b5760025416176002556008549062010000600160b01b039060101b169060018060b01b0319161717600855516126d89081620002088239f35b845162461bcd60e51b815260206004820152600c60248201526b0cccaca40e8dede40d0d2ced60a31b6044820152606490fd5b845162461bcd60e51b815260206004820152601560248201527f666565526563697069656e7420726571756972656400000000000000000000006044820152606490fd5b62461bcd60e51b815260206004820152601a60248201527f5469636b65744e667420616464726573732072657175697265640000000000006044820152606490fd5b8551631e4fbdf760e01b815260006004820152602490fd5b600080fd5b634e487b7160e01b600052604160045260246000fdfe608080604052600436101561008f575b50361561004a5760405162461bcd60e51b815260206004820152600c60248201526b1a5b9d985b1a590818d85b1b60a21b6044820152606490fd5b60405162461bcd60e51b815260206004820152601860248201527f73656e642043454c4f20766961207265676973746572282900000000000000006044820152606490fd5b60003560e01c908163017c5655146120265750806320e14e4914611f4f57806322dcd13e14611f2d578063238e875f14611e2f5780633a178d9914611e075780633d914ecd146115bb578063469048401461158e57806350b44712146114575780635b7baf64146112ca5780635c622a0e146112855780637031ff8014611238578063710c597314611212578063715018a6146111b95780637c00e4db14610ec95780638da5cb5b14610ea0578063999a27fe14610e585780639b3e745a14610db9578063a80f6f1d146109f5578063b81f6e18146109a8578063d9f1aed914610761578063e09b2a6214610738578063e74b981b146106b1578063ee355b1f146105d5578063f207564e1461023d5763f2fde38b146101af573861000f565b34610238576020366003190112610238576101c861227a565b6101d06122a6565b6001600160a01b0390811690811561021f57600054826001600160601b0360a01b821617600055167f8be0079c531659141344cd1fd0a4f28419497f9722a3daafe3b4186f6b6457e0600080a3005b604051631e4fbdf760e01b815260006004820152602490fd5b600080fd5b6020600319818136011261023857600435610256612488565b8060005260038352604060002091610270835415156123cf565b61029060ff60078501546102868282161561240e565b60081c161561244a565b600583019081544210156105a1578260005260058552604060002033600052855260ff6040600020541661056757600a8401546009850154111561053757600284015434036104fa5782600052600685526040600020336000528552346040600020558260005260038552600b60406000200161030e348254612665565b90558260005260038552600a604060002001805490600182018092116104e457558260005260048552604060002090815492680100000000000000008410156104ce57600184018084558410156104b857869361040d936000528460002001336001600160601b0360a01b825416179055846000526005845260406000203360005284526040600020600160ff19825416179055546000856104316103b560038a01612194565b936103ce60066103c760048d01612194565b9b01612194565b60018060a01b03600254169661041d6040519c8d9a8b998a98631b42d6a960e31b8a523360048b015260248a015260c060448a015260c489019061223a565b908388830301606489015261223a565b9260848601528483030160a485015261223a565b03925af19182156104ac5760009261047d575b50604051908282527f39dd062cc095bf933d83338d8e4591b7eb119264d876f173cacb1cfdf2c9737f843393a360018055604051908152f35b9091508281813d83116104a5575b6104958183612173565b8101031261023857519083610444565b503d61048b565b6040513d6000823e3d90fd5b634e487b7160e01b600052603260045260246000fd5b634e487b7160e01b600052604160045260246000fd5b634e487b7160e01b600052601160045260246000fd5b60405162461bcd60e51b81526004810186905260156024820152741a5b98dbdc9c9958dd0810d15313c8185b5bdd5b9d605a1b6044820152606490fd5b60405162461bcd60e51b81526004810186905260086024820152671cdbdb19081bdd5d60c21b6044820152606490fd5b60405162461bcd60e51b8152600481018690526012602482015271185b1c9958591e481c9959da5cdd195c995960721b6044820152606490fd5b60405162461bcd60e51b815260048101869052600c60248201526b195d995b9d081c185cdcd95960a21b6044820152606490fd5b346102385760203660031901126102385760043580600052600360205260076040600020610605815415156123cf565b600181015461062990336001600160a01b03918216149081156106a3575b506124e6565b01805460ff8160081c1661066b5761ffff191661010117905533907f856f105c150817c7b4994960bcf1ff34f18912db8f0892ae56fb87470c8b9f3f600080a3005b60405162461bcd60e51b815260206004820152601060248201526f185b1c9958591e4818d85b98d95b195960821b6044820152606490fd5b905060005416331485610623565b34610238576020366003190112610238576004356001600160a01b03811690818103610238576106df6122a6565b6106ea8215156122d2565b6008805462010000600160b01b03191660109290921b62010000600160b01b03169190911790557f7a7b5a0a132f9e0581eb8527f66eae9ee89c2a3e79d4ac7e41a1f1f4d48a7fc2600080a2005b34610238576000366003190112610238576002546040516001600160a01b039091168152602090f35b34610238576020806003193601126102385760043561077e612488565b80600052600382526040600020610797815415156123cf565b6001810180546001600160a01b03906107b390821633146124ab565b6107c760ff600785015460081c161561244a565b6005830154421061097057600d83019182549360ff85166109375780600c600b6107f693015491015490612523565b9261ffff600854168085029085820414851517156104e45761081f612710600192048096612523565b9560ff1916179055828260085460101c16816108de575b5050818154168461087c575b50917ff267235ebfb630032a6a04de47e34751541c9a48e736f5c5ae79cbb519cbbd5293916040935416958351928352820152a360018055005b600080808781945af161088d612672565b50156108995786610842565b60405162461bcd60e51b815260048101879052601760248201527f63726561746f72207472616e73666572206661696c65640000000000000000006044820152606490fd5b600080809381935af16108ef612672565b50156108fc578287610836565b60405162461bcd60e51b8152600481018790526013602482015272199959481d1c985b9cd9995c8819985a5b1959606a1b6044820152606490fd5b60405162461bcd60e51b815260048101889052601160248201527030b63932b0b23c903bb4ba34323930bbb760791b6044820152606490fd5b60405162461bcd60e51b815260048101869052601060248201526f195d995b9d081b9bdd081c185cdcd95960821b6044820152606490fd5b34610238576040366003190112610238576109c1612290565b600435600052600560205260406000209060018060a01b0316600052602052602060ff604060002054166040519015158152f35b3461023857610a03366120da565b81811115610d635760079182548211610d1e57610a208183612523565b92610a2a8461263a565b93610a386040519586612173565b808552610a47601f199161263a565b0160005b818110610c9b575050815b838110610b8b576040805160208082528751818301819052600093600582901b8401810192808b01929185015b828710610a905785850386f35b909192938280600192603f1989820301855287519081518152848060a01b0383830151168382015260408201516040820152610b42610b15610af8610ae5606080870151906101e0809188015286019061223a565b608080870151908683039087015261223a565b60a0808601519085015260c080860151908583039086015261223a565b60e0840151151560e08401526101008085015115159084015261012080850151908483039085015261223a565b916101408082015190830152610160808201519083015261018080820151908301526101a080820151908301526101c08091015115159101529601920196019592919092610a83565b80610c9691600052610c90600360208181526040600020610be4610baf8987612523565b9360405193610bbd85612157565b8354855260018401546001600160a01b031690850152600283015460408501528201612194565b6060830152610bf560048201612194565b6080830152600581015460a0830152610c1060068201612194565b60c0830152600d8782015491610c4260ff93848116151560e087015284600891821c1615156101008701528201612194565b6101208501526009810154610140850152600a810154610160850152600b810154610180850152600c8101546101a085015201541615156101c0820152610c89828a612651565b5287612651565b5061234d565b610a56565b602090604051610caa81612157565b60008152826000818301526000604083015260608080840152806080840152600060a08401528060c0840152600060e0840152600061010084015261012083015260006101408301526000610160830152600061018083015260006101a083015260006101c0830152828901015201610a4b565b60405162461bcd60e51b815260206004820152601e60248201527f656e64496e646578206578636565647320746f74616c207469636b65747300006044820152606490fd5b60405162461bcd60e51b815260206004820152602860248201527f656e64496e646578206d7573742062652067726561746572207468616e2073746044820152670c2e4e892dcc8caf60c31b6064820152608490fd5b346102385760203660031901126102385760043561ffff811680910361023857610de16122a6565b6127108111610e24576020817fb4c8a49c815aff443d1d27ce1429e4affed0237024410b84729f24d349b80e1a9261ffff196008541617600855604051908152a1005b60405162461bcd60e51b815260206004820152600c60248201526b0cccaca40e8dede40d0d2ced60a31b6044820152606490fd5b3461023857604036600319011261023857610e71612290565b600435600052600660205260406000209060018060a01b03166000526020526020604060002054604051908152f35b34610238576000366003190112610238576000546040516001600160a01b039091168152602090f35b34610238576080366003190112610238576001600160401b0360043560243560443583811161023857610f009036906004016120f0565b91906064359284600052602093600385526040600020610f22815415156123cf565b600190610f3b60018060a01b03838301541633146124ab565b610f5b60ff6007830154610f54828260081c161561244a565b161561240e565b60058101918254421015611184574284111561114e57861561111557610f8285151561230a565b6006610f8f368789612377565b92886002820155019180519a8b116104ce578a610fac845461211d565b601f81116110ca575b50508890601f8c1160011461103c579a808087969461102c9a999896947fc23f26eef4d4205025e77d6fc59bd3e912b6e335b222c54f5980d65a8fd5812e9e9f600094611031575b50501b916000199060031b1c19161790555b5560405195869586528501526060604085015260608401916123ae565b0390a2005b015192508f80610ffd565b90601f198c1691846000528a6000209260005b8181106110b5575092879694928e927fc23f26eef4d4205025e77d6fc59bd3e912b6e335b222c54f5980d65a8fd5812e9e9f61102c9c9b9a98961061109c575b505050811b01905561100f565b015160001960f88460031b161c191690558d808061108f565b83830151855593850193928c01928c0161104f565b846000528a600020908b601f840160051c8301931061110b575b601f0160051c019083905b8281106110ff57508c9150610fb5565b600081550183906110ef565b90915081906110e4565b60405162461bcd60e51b815260048101899052601160248201527007072696365206d757374206265203e203607c1b6044820152606490fd5b60405162461bcd60e51b815260048101899052600e60248201526d6d7573742062652066757475726560901b6044820152606490fd5b60405162461bcd60e51b815260048101899052600d60248201526c195d995b9d081cdd185c9d1959609a1b6044820152606490fd5b34610238576000366003190112610238576111d26122a6565b600080546001600160a01b0319811682556001600160a01b03167f8be0079c531659141344cd1fd0a4f28419497f9722a3daafe3b4186f6b6457e08280a3005b346102385760203660031901126102385760206112306004356125a6565b604051908152f35b346102385760203660031901126102385761125161227a565b6112596122a6565b6001600160a01b031661126d8115156122d2565b6001600160601b0360a01b6002541617600255600080f35b34610238576020366003190112610238576112a16004356125e0565b60405160048210156112b4576020918152f35b634e487b7160e01b600052602160045260246000fd5b3461023857602080600319360112610238576004356112e7612488565b806000526003825260ff60076040600020611304815415156123cf565b015460081c161561142357806000526006825260406000203360005282526040600020549182156113eb5781600052600681526040600020336000528152600060408120558160005260038152600c604060002001611364848254612665565b9055600080808086335af1611377612672565b50156113ae577ff3f402280ef0a7905e124aa621b65eaeb2725c343e8b36d398ed78c29daf285c906040519384523393a360018055005b6064906040519062461bcd60e51b8252600482015260166024820152751c99599d5b99081d1c985b9cd9995c8819985a5b195960521b6044820152fd5b6064906040519062461bcd60e51b8252600482015260116024820152701b9bdd1a1a5b99c81d1bc81c99599d5b99607a1b6044820152fd5b60405162461bcd60e51b815260048101839052600c60248201526b1b9bdd0818d85b98d95b195960a21b6044820152606490fd5b3461023857602036600319011261023857600435600052600360205260406000208054600160a01b600190036001830154169160028101546003820161149c90612194565b916114a960048201612194565b600582015493906114bc60068401612194565b60078401546114cd60088601612194565b91600986015497600a87015494600b88015496600c89015498600d015460ff16996040519d8e809e81526020015260408d01528b6101e06060819201528c016115159161223a565b8b810360808d01526115269161223a565b9060a08b015289810360c08b015261153d9161223a565b9060ff8116151560e08a015260081c60ff1615156101008901528781036101208901526115699161223a565b946101408701526101608601526101808501526101a084015215156101c08301520390f35b346102385760003660031901126102385760085460405160109190911c6001600160a01b03168152602090f35b346102385760e0366003190112610238576024356001600160401b038111610238576115eb9036906004016120f0565b906044356001600160401b0381116102385761160b9036906004016120f0565b60a4939193356001600160401b0381116102385761162d9036906004016120f0565b939060c4356001600160401b0381116102385761164e9036906004016120f0565b9095426064351115611dc25760843515611d85578515611d4b5761167385151561230a565b6116b061168160075461234d565b97886007556116a8611694368a89612377565b956116a0368a8e612377565b943691612377565b933691612377565b90604051936116be85612157565b88855233602086015260043560408601526060850152608084015260643560a084015260c0830152600060e083015260006101008301526101208201526084356101408201526000610160820152600061018082015260006101a082015260006101c0820152846000526003602052604060002090805182556001820160018060a01b036020830151166001600160601b0360a01b8254161790556040810151600283015560608101518051906001600160401b0382116104ce578190611788600386015461211d565b601f8111611cf8575b50602090601f8311600114611c8657600092611c7b575b50508160011b916000199060031b1c19161760038301555b60808101518051906001600160401b0382116104ce5781906117e5600486015461211d565b601f8111611c28575b50602090601f8311600114611bb657600092611bab575b50508160011b916000199060031b1c19161760048301555b60a0810151600583015560c08101518051906001600160401b0382116104ce57819061184c600686015461211d565b601f8111611b58575b50602090601f8311600114611ae657600092611adb575b50508160011b916000199060031b1c19161760068301555b600782016118a460e08301511515829060ff801983541691151516179055565b610100820151815461ff00191690151560081b61ff00161790556101208101518051906001600160401b0382116104ce576118e2600885015461211d565b601f8111611a94575b50918795939160209995938a90601f83116001146119ef5793600d6101c06119b795857ff71b42493765497065cfba18b42f5fdcf53336aad1f5ae821f7e3b54482880679b999661199e966119c59c9a6000926119e4575b50508160011b916000199060031b1c19161760088501555b6101408101516009850155610160810151600a850155610180810151600b8501556101a0810151600c8501550151151591019060ff801983541691151516179055565b60405197600435895260a08b8a015260a08901916123ae565b9186830360408801526123ae565b92606435606082015260843560808201528033940390a3604051908152f35b015190503880611943565b90600885016000528b6000209160005b601f1985168110611a7a57506101c06119b79560018661199e966119c59c9a96600d967ff71b42493765497065cfba18b42f5fdcf53336aad1f5ae821f7e3b54482880679f9d9a601f19811610611a61575b505050811b01600885015561195b565b015160001960f88460031b161c19169055388080611a51565b8183015184558c9a50600190930192918d01918d016119ff565b600885016000526020600020601f840160051c810160208510611ad4575b601f830160051c82018110611ac85750506118eb565b60008155600101611ab2565b5080611ab2565b01519050898061186c565b9250600685016000526020600020906000935b601f1984168510611b3d576001945083601f19811610611b24575b505050811b016006830155611884565b015160001960f88460031b161c19169055898080611b14565b81810151835560209485019460019093019290910190611af9565b909150600685016000526020600020601f840160051c810160208510611ba4575b90849392915b601f830160051c82018110611b95575050611855565b60008155859450600101611b7f565b5080611b79565b015190508980611805565b9250600485016000526020600020906000935b601f1984168510611c0d576001945083601f19811610611bf4575b505050811b01600483015561181d565b015160001960f88460031b161c19169055898080611be4565b81810151835560209485019460019093019290910190611bc9565b909150600485016000526020600020601f840160051c810160208510611c74575b90849392915b601f830160051c82018110611c655750506117ee565b60008155859450600101611c4f565b5080611c49565b0151905089806117a8565b9250600385016000526020600020906000935b601f1984168510611cdd576001945083601f19811610611cc4575b505050811b0160038301556117c0565b015160001960f88460031b161c19169055898080611cb4565b81810151835560209485019460019093019290910190611c99565b909150600385016000526020600020601f840160051c810160208510611d44575b90849392915b601f830160051c82018110611d35575050611791565b60008155859450600101611d1f565b5080611d19565b60405162461bcd60e51b8152602060048201526012602482015271195d995b9d13985b59481c995c5d5a5c995960721b6044820152606490fd5b60405162461bcd60e51b815260206004820152601560248201527406d6178537570706c79206d757374206265203e203605c1b6044820152606490fd5b60405162461bcd60e51b815260206004820152601d60248201527f6576656e7454696d657374616d70206d757374206265206675747572650000006044820152606490fd5b34610238576020366003190112610238576020611e25600435612530565b6040519015158152f35b3461023857611e3d366120da565b8160005260036020526040600020611e57815415156123cf565b611e6e60018060a01b0360018301541633146124ab565b611e8760ff6007830154610f54828260081c161561244a565b600a8101548210611efb578115611ecb57817f44ecfc706d63e347851cfd40acfa6cf2e3a41faa3e8b460210c03938e84a91ad9260096020930155604051908152a2005b60405162461bcd60e51b81526020600482015260086024820152670f4cae4de40dac2f60c31b6044820152606490fd5b60405162461bcd60e51b815260206004820152600a60248201526918995b1bddc81cdbdb1960b21b6044820152606490fd5b3461023857600036600319011261023857602061ffff60085416604051908152f35b346102385760203660031901126102385760043580600052600360205260076040600020611f7f815415156123cf565b6001810154611fa290336001600160a01b03918216149081156106a357506124e6565b01805460ff8116611ff05780611fc060ff60019360081c161561244a565b60ff191617905533907f6b1b7348ef8c34cb796294e383344baff089786a86c14cd5cd96bb50382d7dfe600080a3005b60405162461bcd60e51b815260206004820152600e60248201526d185b1c9958591e4818db1bdcd95960921b6044820152606490fd5b346102385760209081600319360112610238576004356000526004825260406000208054808352838301908192600052846000209060005b868282106120bd57868661207482880383612173565b604051928392818401908285525180915260408401929160005b82811061209d57505050500390f35b83516001600160a01b03168552869550938101939281019260010161208e565b83546001600160a01b03168552909301926001928301920161205e565b6040906003190112610238576004359060243590565b9181601f84011215610238578235916001600160401b038311610238576020838186019501011161023857565b90600182811c9216801561214d575b602083101461213757565b634e487b7160e01b600052602260045260246000fd5b91607f169161212c565b6101e081019081106001600160401b038211176104ce57604052565b90601f801991011681019081106001600160401b038211176104ce57604052565b90604051918260008254926121a88461211d565b90818452600194858116908160001461221757506001146121d4575b50506121d292500383612173565b565b9093915060005260209081600020936000915b8183106121ff5750506121d2935082010138806121c4565b855488840185015294850194879450918301916121e7565b9150506121d294506020925060ff191682840152151560051b82010138806121c4565b919082519283825260005b848110612266575050826000602080949584010152601f8019910116010190565b602081830181015184830182015201612245565b600435906001600160a01b038216820361023857565b602435906001600160a01b038216820361023857565b6000546001600160a01b031633036122ba57565b60405163118cdaa760e01b8152336004820152602490fd5b156122d957565b60405162461bcd60e51b81526020600482015260096024820152683d32b9379030b2323960b91b6044820152606490fd5b1561231157565b60405162461bcd60e51b815260206004820152601460248201527319195cd8dc9a5c1d1a5bdb881c995c5d5a5c995960621b6044820152606490fd5b60001981146104e45760010190565b6001600160401b0381116104ce57601f01601f191660200190565b9291926123838261235c565b916123916040519384612173565b829481845281830111610238578281602093846000960137010152565b908060209392818452848401376000828201840152601f01601f1916010190565b156123d657565b60405162461bcd60e51b815260206004820152601060248201526f1d1a58dad95d081b9bdd08199bdd5b9960821b6044820152606490fd5b1561241557565b60405162461bcd60e51b815260206004820152600d60248201526c1d1a58dad95d0818db1bdcd959609a1b6044820152606490fd5b1561245157565b60405162461bcd60e51b815260206004820152600f60248201526e1d1a58dad95d0818d85b98d95b1959608a1b6044820152606490fd5b600260015414612499576002600155565b604051633ee5aeb560e01b8152600490fd5b156124b257565b60405162461bcd60e51b815260206004820152600c60248201526b37b7363c9031b932b0ba37b960a11b6044820152606490fd5b156124ed57565b60405162461bcd60e51b815260206004820152600e60248201526d1b9bdd08185d5d1a1bdc9a5e995960921b6044820152606490fd5b919082039182116104e457565b600052600360205260406000208054158015612598575b8015612587575b8015612579575b612573576009600a820154910154111561256e57600190565b600090565b50600090565b506005810154421015612555565b5060ff600782015460081c1661254e565b5060ff600782015416612547565b60005260036020526040600020805415612573576009600a82015491015490818110156125d9576125d691612523565b90565b5050600090565b600052600360205260406000208054156123d657600781015460ff8160081c166126335760ff16612621575b6005015442101561261c57600090565b600190565b600581015442101561260c5750600390565b5050600290565b6001600160401b0381116104ce5760051b60200190565b80518210156104b85760209160051b010190565b919082018092116104e457565b3d1561269d573d906126838261235c565b916126916040519384612173565b82523d6000602084013e565b60609056fea2646970667358221220e50e3e4bf00fecd265b572642ea7165792142dd7f0806528cf499e21aad140d764736f6c63430008140033",
  "linkReferences": {},
  "deployedLinkReferences": {}
}