{
  "_format": "hh-sol-artifact-1",
  "contractName": "TicketResaleMarket",
  "sourceName": "contracts/TicketResaleMarket.sol",
  "abi": [
    {
      "inputs": [
        {
          "internalType": "address",
          "name": "eventTicketingAddress",
          "type": "address"
        },
        {
          "internalType": "address",
          "name": "ticketNftAddress",
          "type": "address"
        },
        {
          "internalType": "address payable",
          "name": "feeRecipient_",
          "type": "address"
        },
        {
          "internalType": "uint16",
          "name": "royaltyBps_",
          "type": "uint16"
        }
      ],
      "stateMutability": "nonpayable",
      "type": "constructor"
    },
    {
      "inputs": [],
      "name": "ReentrancyGuardReentrantCall",
      "type": "error"
    },
    {
      "anonymous": false,
      "inputs": [
        {
          "indexed": true,
          "internalType": "address",
          "name": "newRecipient",
          "type": "address"
        }
      ],
      "name": "FeeRecipientUpdated",
      "type": "event"
    },
    {
      "anonymous": false,
      "inputs": [
        {
          "indexed": false,
          "internalType": "uint16",
          "name": "newRoyaltyBps",
          "type": "uint16"
        }
      ],
      "name": "RoyaltyUpdated",
      "type": "event"
    },
    {
      "anonymous": false,
      "inputs": [
        {
          "indexed": true,
          "internalType": "uint256",
          "name": "tokenId",
          "type": "uint256"
        },
        {
          "indexed": true,
          "internalType": "uint256",
          "name": "ticketId",
          "type": "uint256"
        },
        {
          "indexed": true,
          "internalType": "address",
          "name": "seller",
          "type": "address"
        },
        {
          "indexed": false,
          "internalType": "uint256",
          "name": "price",
          "type": "uint256"
        }
      ],
      "name": "TicketListed",
      "type": "event"
    },
    {
      "anonymous": false,
      "inputs": [
        {
          "indexed": true,
          "internalType": "uint256",
          "name": "tokenId",
          "type": "uint256"
        },
        {
          "indexed": true,
          "internalType": "uint256",
          "name": "ticketId",
          "type": "uint256"
        },
        {
          "indexed": true,
          "internalType": "address",
          "name": "seller",
          "type": "address"
        },
        {
          "indexed": false,
          "internalType": "address",
          "name": "buyer",
          "type": "address"
        },
        {
          "indexed": false,
          "internalType": "uint256",
          "name": "price",
          "type": "uint256"
        },
        {
          "indexed": false,
          "internalType": "uint256",
          "name": "royaltyAmount",
          "type": "uint256"
        }
      ],
      "name": "TicketSold",
      "type": "event"
    },
    {
      "stateMutability": "payable",
      "type": "fallback"
    },
    {
      "inputs": [
        {
          "internalType": "uint256",
          "name": "tokenId",
          "type": "uint256"
        }
      ],
      "name": "buyTicket",
      "outputs": [],
      "stateMutability": "payable",
      "type": "function"
    },
    {
      "inputs": [
        {
          "internalType": "uint256",
          "name": "tokenId",
          "type": "uint256"
        }
      ],
      "name": "cancelListing",
      "outputs": [],
      "stateMutability": "nonpayable",
      "type": "function"
    },
    {
      "inputs": [],
      "name": "eventTicketing",
      "outputs": [
        {
          "internalType": "contract IEventTicketing",
          "name": "",
          "type": "address"
        }
      ],
      "stateMutability": "view",
      "type": "function"
    },
    {
      "inputs": [],
      "name": "feeRecipient",
      "outputs": [
        {
          "internalType": "address payable",
          "name": "",
          "type": "address"
        }
      ],
      "stateMutability": "view",
      "type": "function"
    },
    {
      "inputs": [
        {
          "internalType": "uint256",
          "name": "tokenId",
          "type": "uint256"
        }
      ],
      "name": "getListing",
      "outputs": [
        {
          "internalType": "uint256",
          "name": "",
          "type": "uint256"
        },
        {
          "internalType": "uint256",
          "name": "",
          "type": "uint256"
        },
        {
          "internalType": "address",
          "name": "",
          "type": "address"
        },
        {
          "internalType": "uint256",
          "name": "",
          "type": "uint256"
        },
        {
          "internalType": "bool",
          "name": "",
          "type": "bool"
        }
      ],
      "stateMutability": "view",
      "type": "function"
    },
    {
      "inputs": [
        {
          "internalType": "uint256",
          "name": "tokenId",
          "type": "uint256"
        },
        {
          "internalType": "uint256",
          "name": "price",
          "type": "uint256"
        }
      ],
      "name": "listTicket",
      "outputs": [],
      "stateMutability": "nonpayable",
      "type": "function"
    },
    {
      "inputs": [
        {
          "internalType": "uint256",
          "name": "",
          "type": "uint256"
        }
      ],
      "name": "listings",
      "outputs": [
        {
          "internalType": "uint256",
          "name": "ticketId",
          "type": "uint256"
        },
        {
          "internalType": "uint256",
          "name": "tokenId",
          "type": "uint256"
        },
        {
          "internalType": "address",
          "name": "seller",
          "type": "address"
        },
        {
          "internalType": "uint256",
          "name": "price",
          "type": "uint256"
        },
        {
          "internalType": "bool",
          "name": "active",
          "type": "bool"
        }
      ],
      "stateMutability": "view",
      "type": "function"
    },
    {
      "inputs": [],
      "name": "royaltyBps",
      "outputs": [
        {
          "internalType": "uint16",
          "name": "",
          "type": "uint16"
        }
      ],
      "stateMutability": "view",
      "type": "function"
    },
    {
      "inputs": [
        {
          "internalType": "address payable",
          "name": "newRecipient",
          "type": "address"
        }
      ],
      "name": "setFeeRecipient",
      "outputs": [],
      "stateMutability": "nonpayable",
      "type": "function"
    },
    {
      "inputs": [
        {
          "internalType": "uint16",
          "name": "newRoyaltyBps",
          "type": "uint16"
        }
      ],
      "name": "setRoyalty",
      "outputs": [],
      "stateMutability": "nonpayable",
      "type": "function"
    },
    {
      "inputs": [],
      "name": "ticketNft",
      "outputs": [
        {
          "internalType": "contract IERC721",
          "name": "",
          "type": "address"
        }
      ],
      "stateMutability": "view",
      "type": "function"
    },
    {
      "stateMutability": "payable",
      "type": "receive"
    }
  ],
  "bytecode": "0x6080346101f057601f610f6338819003918201601f191683019291906001600160401b038411838510176101f55781608092849260409687528339810103126101f05761004b8161020b565b6100576020830161020b565b8383015190926001600160a01b039182811691908290036101f057606001519161ffff8316938484036101f057600160005581169485156101ac571692831561016857811561012457612710106100ed5760018060a01b03199384600154161760015560025493600354161760035561ffff60a01b9060a01b169160018060b01b031916171760025551610d4390816102208239f35b845162461bcd60e51b815260206004820152601060248201526f0e4def2c2d8e8f240e8dede40d0d2ced60831b6044820152606490fd5b855162461bcd60e51b815260206004820152601560248201527f666565526563697069656e7420726571756972656400000000000000000000006044820152606490fd5b855162461bcd60e51b815260206004820152601a60248201527f5469636b65744e667420616464726573732072657175697265640000000000006044820152606490fd5b865162461bcd60e51b815260206004820152601f60248201527f4576656e745469636b6574696e672061646472657373207265717569726564006044820152606490fd5b600080fd5b634e487b7160e01b600052604160045260246000fd5b51906001600160a01b03821682036101f05756fe6080604081815260049182361015610088575b50906020606492361561004b575162461bcd60e51b815291820152600c60248201526b1a5b9d985b1a590818d85b1b60a21b6044820152fd5b5162461bcd60e51b815291820152601960248201527f73656e642043454c4f20766961206275795469636b65742829000000000000006044820152fd5b600090813560e01c908163107a274a14610b0057508063305a67a814610a50578063305a905a146106bc57806336e79a5a1461060957806346904840146105e05780636188c42d146105b757806367dd74ca1461026b578063c63adb2b14610245578063de74e57b146101d6578063e09b2a62146101a95763e74b981b036100125791346101a55760203660031901126101a55780356001600160a01b03811692908390036101a1578215610172575050600380546001600160a01b031916821790557f7a7b5a0a132f9e0581eb8527f66eae9ee89c2a3e79d4ac7e41a1f1f4d48a7fc28280a280f35b906020606492519162461bcd60e51b835282015260096024820152683d32b9379030b2323960b91b6044820152fd5b8380fd5b8280fd5b5090346101d257816003193601126101d25760025490516001600160a01b039091168152602090f35b5080fd5b50346102425760203660031901126102425782358152602083815290829020805460018201546002830154600384015493909601549451918252928101929092526001600160a01b039093166040820152606081019290925260ff161515608082015260a090f35b0390f35b80fd5b5090346101d257816003193601126101d25760209061ffff60025460a01c169051908152f35b5091906020806003193601126101a15760028454146105a957600284558235845282815281842090838201938454936102a660ff8616610c71565b6003840154958634106105735760018060a01b03908160015416968654868551809a8193632e31150760e11b83528983015260249b8c915afa908115610569576102fc9160ff918d9161053c575b501615610c30565b60ff191690556002549561ffff8760a01c1680890290898204148915171561052a576127109004938261032f868b610caa565b9816916002880198848a5416938c60018b0195865490833b156101a557606490838b519586948593632142170760e11b85528b850152338a85015260448401525af18015610520576104f4575b508b9087610491575b858b82610435575b5050508a8034116103de575b8a8a7ffffc3deb35aa9e4517f4b252905c151b319d34187db6992abdc3dcd1b0ae382d60608c8c8c8c8c54965497541697815193338552840152820152a46001815580f35b81806103eb819334610caa565b335af16103f6610ccd565b5015610403578a8a610399565b845162461bcd60e51b8152918201879052600d908201526c1c99599d5b990819985a5b1959609a1b6044820152606490fd5b83928392839254165af1610447610ccd565b5015610456578a38858b61038d565b845162461bcd60e51b8152918201879052601690820152751cd95b1b195c881d1c985b9cd9995c8819985a5b195960521b6044820152606490fd5b908080808a89600354165af16104a5610ccd565b50156104b2578b90610385565b855162461bcd60e51b81528084018990526017818401527f726f79616c7479207472616e73666572206661696c65640000000000000000006044820152606490fd5b67ffffffffffffffff819d929d1161050f5786529a3861037c565b50634e487b7160e01b815260418352fd5b87513d8f823e3d90fd5b50634e487b7160e01b89526011845288fd5b61055c9150893d8b11610562575b6105548183610bd1565b810190610c17565b386102f4565b503d61054a565b85513d8d823e3d90fd5b5091606492519162461bcd60e51b83528201526011602482015270696e73756666696369656e742043454c4f60781b6044820152fd5b5051633ee5aeb560e01b8152fd5b5090346101d257816003193601126101d25760015490516001600160a01b039091168152602090f35b5090346101d257816003193601126101d25760035490516001600160a01b039091168152602090f35b509190346101a55760203660031901126101a557813561ffff8116928382036106b857612710841161068257506002805461ffff60a01b191660a09290921b61ffff60a01b16919091179055519081527fda0fdc743bf03c626bcac6e6509af1b15dfa6dabfde58682f6706b85efa9f9b490602090a180f35b606490602084519162461bcd60e51b8352820152601060248201526f0e4def2c2d8e8f240e8dede40d0d2ced60831b6044820152fd5b8480fd5b509190346101a557806003193601126101a55781356024928335928315610a1a5760025481516331a9108f60e11b8152808401859052602093916001600160a01b03919082169085818a81855afa90811561098b578a916109fd575b5082339116036109cf57835163e985e9c560e01b8152338482015230898201528581604481855afa90811561098b578a91610995575b50801561092c575b156108fb5785895282855260ff83858b200154166108c8579188918585948a98979651988980926333355e0b60e11b82528a878301525afa96871561088f578397610899575b5084816001541685519a8b8092632e31150760e11b82528b878301525afa98891561088f5760ff7f8b84647ec667515d9ce59e74ab9bb64476ec404345ebb9dfc3ea275bb6d8ee9b9798999a6107fa92869161087857501615610c30565b83519061080682610b9f565b888252858201908882528583019033825260608401928c8452876080860197600189528c8152878b522094518555516001850155600284019151166bffffffffffffffffffffffff60a01b825416179055516003820155019051151560ff80198354169116179055519485523394a480f35b61055c9150883d8a11610562576105548183610bd1565b84513d85823e3d90fd5b9096508481813d83116108c1575b6108b18183610bd1565b810103126101a55751953861079c565b503d6108a7565b835162461bcd60e51b8152808401869052600e818a01526d185b1c9958591e481b1a5cdd195960921b6044820152606490fd5b835162461bcd60e51b8152808401869052600c818a01526b1b9bdd08185c1c1c9bdd995960a21b6044820152606490fd5b50835163020604bf60e21b815283810187905285818a81855afa90811561098b578a9161095e575b5082163014610756565b61097e9150863d8811610984575b6109768183610bd1565b810190610bf3565b38610954565b503d61096c565b85513d8c823e3d90fd5b90508581813d83116109c8575b6109ac8183610bd1565b810103126109c4575180151581036109c4573861074e565b8980fd5b503d6109a2565b835162461bcd60e51b81528084018690526009818a0152683737ba1037bbb732b960b91b6044820152606490fd5b610a149150863d8811610984576109768183610bd1565b38610718565b906011856020606494519362461bcd60e51b85528401528201527007072696365206d757374206265203e203607c1b6044820152fd5b509190346101a55760203660031901126101a557813591828452806020528184209080820190815490610a8560ff8316610c71565b60028401546001600160a01b03163303610ad0575060ff19169055549051918383527f8b84647ec667515d9ce59e74ab9bb64476ec404345ebb9dfc3ea275bb6d8ee9b60203394a480f35b606490602086519162461bcd60e51b8352820152600a6024820152693737ba1039b2b63632b960b11b6044820152fd5b8385843461024257602036600319011261024257818360809261023e94358152826020522090610b2f86610b9f565b81549485875260018301549687602082015260ff60018060a01b0360028601541693848484015260038601549586606085015201541615159485910152519586958693909594919260809360a08601978652602086015260018060a01b0316604085015260608401521515910152565b60a0810190811067ffffffffffffffff821117610bbb57604052565b634e487b7160e01b600052604160045260246000fd5b90601f8019910116810190811067ffffffffffffffff821117610bbb57604052565b90816020910312610c1257516001600160a01b0381168103610c125790565b600080fd5b90816020910312610c12575160ff81168103610c125790565b15610c3757565b60405162461bcd60e51b81526020600482015260126024820152716576656e74206e6f74207570636f6d696e6760701b6044820152606490fd5b15610c7857565b60405162461bcd60e51b815260206004820152600a6024820152691b9bdd081b1a5cdd195960b21b6044820152606490fd5b91908203918211610cb757565b634e487b7160e01b600052601160045260246000fd5b3d15610d08573d9067ffffffffffffffff8211610bbb5760405191610cfc601f8201601f191660200184610bd1565b82523d6000602084013e565b60609056fea264697066735822122035e57224ad877fad17b24d8e9cf028566c37fdc5b805d6ac3132bbef379c38ac64736f6c63430008140033",
  "linkReferences": {},
  "deployedLinkReferences": {}
}