{
  "_format": "hh-sol-artifact-1",
  "contractName": "TicketResaleMarket",
  "sourceName": "contracts/TicketResaleMarket.sol",
  "abi": [
    {
      "inputs": [
        {
          "internalType": "address",
          "name": "eventTicketingAddress",
          "type": "address"
        },
        {
          "internalType": "address",
          "name": "ticketNftAddress",
          "type": "address"
        },
        {
          "internalType": "address payable",
          "name": "feeRecipient_",
          "type": "address"
        },
        {
          "internalType": "uint16",
          "name": "royaltyBps_",
          "type": "uint16"
        }
      ],
      "stateMutability": "nonpayable",
      "type": "constructor"
    },
    {
      "inputs": [],
      "name": "ReentrancyGuardReentrantCall",
      "type": "error"
    },
    {
      "anonymous": false,
      "inputs": [
        {
          "indexed": true,
          "internalType": "address",
          "name": "newRecipient",
          "type": "address"
        }
      ],
      "name": "FeeRecipientUpdated",
      "type": "event"
    },
    {
      "anonymous": false,
      "inputs": [
        {
          "indexed": false,
          "internalType": "uint256",
          "name": "newMaxPrice",
          "type": "uint256"
        }
      ],
      "name": "MaxPriceUpdated",
      "type": "event"
    },
    {
      "anonymous": false,
      "inputs": [
        {
          "indexed": true,
          "internalType": "address",
          "name": "previousOwner",
          "type": "address"
        },
        {
          "indexed": true,
          "internalType": "address",
          "name": "newOwner",
          "type": "address"
        }
      ],
      "name": "OwnershipTransferred",
      "type": "event"
    },
    {
      "anonymous": false,
      "inputs": [
        {
          "indexed": false,
          "internalType": "uint16",
          "name": "newRoyaltyBps",
          "type": "uint16"
        }
      ],
      "name": "RoyaltyUpdated",
      "type": "event"
    },
    {
      "anonymous": false,
      "inputs": [
        {
          "indexed": true,
          "internalType": "uint256",
          "name": "tokenId",
          "type": "uint256"
        },
        {
          "indexed": true,
          "internalType": "uint256",
          "name": "ticketId",
          "type": "uint256"
        },
        {
          "indexed": true,
          "internalType": "address",
          "name": "seller",
          "type": "address"
        },
        {
          "indexed": false,
          "internalType": "uint256",
          "name": "price",
          "type": "uint256"
        }
      ],
      "name": "TicketListed",
      "type": "event"
    },
    {
      "anonymous": false,
      "inputs": [
        {
          "indexed": true,
          "internalType": "uint256",
          "name": "tokenId",
          "type": "uint256"
        },
        {
          "indexed": true,
          "internalType": "uint256",
          "name": "ticketId",
          "type": "uint256"
        },
        {
          "indexed": true,
          "internalType": "address",
          "name": "seller",
          "type": "address"
        },
        {
          "indexed": false,
          "internalType": "address",
          "name": "buyer",
          "type": "address"
        },
        {
          "indexed": false,
          "internalType": "uint256",
          "name": "price",
          "type": "uint256"
        },
        {
          "indexed": false,
          "internalType": "uint256",
          "name": "royaltyAmount",
          "type": "uint256"
        }
      ],
      "name": "TicketSold",
      "type": "event"
    },
    {
      "stateMutability": "payable",
      "type": "fallback"
    },
    {
      "inputs": [
        {
          "internalType": "uint256",
          "name": "tokenId",
          "type": "uint256"
        }
      ],
      "name": "buyTicket",
      "outputs": [],
      "stateMutability": "payable",
      "type": "function"
    },
    {
      "inputs": [
        {
          "internalType": "uint256",
          "name": "tokenId",
          "type": "uint256"
        }
      ],
      "name": "cancelListing",
      "outputs": [],
      "stateMutability": "nonpayable",
      "type": "function"
    },
    {
      "inputs": [],
      "name": "eventTicketing",
      "outputs": [
        {
          "internalType": "contract IEventTicketing",
          "name": "",
          "type": "address"
        }
      ],
      "stateMutability": "view",
      "type": "function"
    },
    {
      "inputs": [],
      "name": "feeRecipient",
      "outputs": [
        {
          "internalType": "address payable",
          "name": "",
          "type": "address"
        }
      ],
      "stateMutability": "view",
      "type": "function"
    },
    {
      "inputs": [
        {
          "internalType": "uint256",
          "name": "tokenId",
          "type": "uint256"
        }
      ],
      "name": "getListing",
      "outputs": [
        {
          "internalType": "uint256",
          "name": "",
          "type": "uint256"
        },
        {
          "internalType": "uint256",
          "name": "",
          "type": "uint256"
        },
        {
          "internalType": "address",
          "name": "",
          "type": "address"
        },
        {
          "internalType": "uint256",
          "name": "",
          "type": "uint256"
        },
        {
          "internalType": "bool",
          "name": "",
          "type": "bool"
        }
      ],
      "stateMutability": "view",
      "type": "function"
    },
    {
      "inputs": [
        {
          "internalType": "uint256",
          "name": "tokenId",
          "type": "uint256"
        },
        {
          "internalType": "uint256",
          "name": "price",
          "type": "uint256"
        }
      ],
      "name": "listTicket",
      "outputs": [],
      "stateMutability": "nonpayable",
      "type": "function"
    },
    {
      "inputs": [
        {
          "internalType": "uint256",
          "name": "",
          "type": "uint256"
        }
      ],
      "name": "listings",
      "outputs": [
        {
          "internalType": "uint256",
          "name": "ticketId",
          "type": "uint256"
        },
        {
          "internalType": "uint256",
          "name": "tokenId",
          "type": "uint256"
        },
        {
          "internalType": "address",
          "name": "seller",
          "type": "address"
        },
        {
          "internalType": "uint256",
          "name": "price",
          "type": "uint256"
        },
        {
          "internalType": "bool",
          "name": "active",
          "type": "bool"
        }
      ],
      "stateMutability": "view",
      "type": "function"
    },
    {
      "inputs": [],
      "name": "maxPrice",
      "outputs": [
        {
          "internalType": "uint256",
          "name": "",
          "type": "uint256"
        }
      ],
      "stateMutability": "view",
      "type": "function"
    },
    {
      "inputs": [],
      "name": "owner",
      "outputs": [
        {
          "internalType": "address",
          "name": "",
          "type": "address"
        }
      ],
      "stateMutability": "view",
      "type": "function"
    },
    {
      "inputs": [],
      "name": "royaltyBps",
      "outputs": [
        {
          "internalType": "uint16",
          "name": "",
          "type": "uint16"
        }
      ],
      "stateMutability": "view",
      "type": "function"
    },
    {
      "inputs": [
        {
          "internalType": "address payable",
          "name": "newRecipient",
          "type": "address"
        }
      ],
      "name": "setFeeRecipient",
      "outputs": [],
      "stateMutability": "nonpayable",
      "type": "function"
    },
    {
      "inputs": [
        {
          "internalType": "uint256",
          "name": "newMaxPrice",
          "type": "uint256"
        }
      ],
      "name": "setMaxPrice",
      "outputs": [],
      "stateMutability": "nonpayable",
      "type": "function"
    },
    {
      "inputs": [
        {
          "internalType": "uint16",
          "name": "newRoyaltyBps",
          "type": "uint16"
        }
      ],
      "name": "setRoyalty",
      "outputs": [],
      "stateMutability": "nonpayable",
      "type": "function"
    },
    {
      "inputs": [],
      "name": "ticketNft",
      "outputs": [
        {
          "internalType": "contract IERC721",
          "name": "",
          "type": "address"
        }
      ],
      "stateMutability": "view",
      "type": "function"
    },
    {
      "inputs": [
        {
          "internalType": "address",
          "name": "newOwner",
          "type": "address"
        }
      ],
      "name": "transferOwnership",
      "outputs": [],
      "stateMutability": "nonpayable",
      "type": "function"
    },
    {
      "stateMutability": "payable",
      "type": "receive"
    }
  ],
  "bytecode": "0x60803461020857601f61118138819003918201601f191683019291906001600160401b0384118385101761020d5781608092849260409687528339810103126102085761004b81610223565b9061005860208201610223565b818401516001600160a01b03928382169182900361020857606001519161ffff8316938484036102085760016000819055683635c9adc5dea0000060055580546001600160a01b031990811633179091559581169182156101c4571693841561018057821561013c57612710106101055784600254161760025560035493600454161760045561ffff60a01b9060a01b169160018060b01b031916171760035551610f4990816102388239f35b855162461bcd60e51b815260206004820152601060248201526f0e4def2c2d8e8f240e8dede40d0d2ced60831b6044820152606490fd5b865162461bcd60e51b815260206004820152601560248201527f666565526563697069656e7420726571756972656400000000000000000000006044820152606490fd5b865162461bcd60e51b815260206004820152601a60248201527f5469636b65744e667420616464726573732072657175697265640000000000006044820152606490fd5b875162461bcd60e51b815260206004820152601f60248201527f4576656e745469636b6574696e672061646472657373207265717569726564006044820152606490fd5b600080fd5b634e487b7160e01b600052604160045260246000fd5b51906001600160a01b03821682036102085756fe608060409080825260049081361015610088575b506020606492361561004b575162461bcd60e51b815291820152600c60248201526b1a5b9d985b1a590818d85b1b60a21b6044820152fd5b5162461bcd60e51b815291820152601960248201527f73656e642043454c4f20766961206275795469636b65742829000000000000006044820152fd5b600090813560e01c908163107a274a14610ccd57508063305a67a814610c1d578063305a905a146108a157806336e79a5a146107de57806346904840146107b55780636188c42d1461078c57806367dd74ca1461043d5780638da5cb5b14610414578063c63adb2b146103ee578063de74e57b1461037b578063e09b2a6214610352578063e38d6b5c1461032f578063e74b981b14610289578063f2fde38b146101d65763f43952e3036100135791346101d25760203660031901126101d25781359161016060018060a01b03600154163314610d6d565b82156101985750816020917f202e0ba938a78b3edea663296e8a06054c65df48fc652817d1e4231351a4c1e29360055551908152a180f35b6020606492519162461bcd60e51b8352820152601560248201527406d6178207072696365206d757374206265203e203605c1b6044820152fd5b8280fd5b509190346101d25760203660031901126101d2576001600160a01b038135818116939192908490036102855760015492831691610214833314610d6d565b841561025357505082907f8be0079c531659141344cd1fd0a4f28419497f9722a3daafe3b4186f6b6457e08580a36001600160a01b0319161760015580f35b906020606492519162461bcd60e51b8352820152600c60248201526b7a65726f206164647265737360a01b6044820152fd5b8480fd5b509190346101d25760203660031901126101d25780356001600160a01b038181169391849003610285576102c290600154163314610d6d565b8215610300575080546001600160a01b031916821790557f7a7b5a0a132f9e0581eb8527f66eae9ee89c2a3e79d4ac7e41a1f1f4d48a7fc28280a280f35b906020606492519162461bcd60e51b835282015260096024820152683d32b9379030b2323960b91b6044820152fd5b50823461034e578160031936011261034e576020906005549051908152f35b5080fd5b50823461034e578160031936011261034e5760035490516001600160a01b039091168152602090f35b508290346103eb5760203660031901126103eb57823581526006602090815290829020805460018201546002830154600384015493909601549451918252928101929092526001600160a01b039093166040820152606081019290925260ff161515608082015260a090f35b0390f35b80fd5b50823461034e578160031936011261034e5760209061ffff60035460a01c169051908152f35b50823461034e578160031936011261034e5760015490516001600160a01b039091168152602090f35b509160208060031936011261078857600284541461077a57600284558235845260068152818420908382019384549361047860ff8616610e77565b6003840154958634106107445760018060a01b03908160025416968654868551809a8193632e31150760e11b83528983015260249b8c915afa90811561073a576104ce9160ff918d9161070d575b501615610e36565b60ff191690556003549561ffff8760a01c168089029089820414891517156106fb5761271090049382610501868b610eb0565b9816916002880198848a5416938c60018b0195865490833b156101d257606490838b519586948593632142170760e11b85528b850152338a85015260448401525af180156106f1576106c5575b508b9087610663575b858b82610607575b5050508a8034116105b0575b8a8a7ffffc3deb35aa9e4517f4b252905c151b319d34187db6992abdc3dcd1b0ae382d60608c8c8c8c8c54965497541697815193338552840152820152a46001815580f35b81806105bd819334610eb0565b335af16105c8610ed3565b50156105d5578a8a61056b565b845162461bcd60e51b8152918201879052600d908201526c1c99599d5b990819985a5b1959609a1b6044820152606490fd5b83928392839254165af1610619610ed3565b5015610628578a38858b61055f565b845162461bcd60e51b8152918201879052601690820152751cd95b1b195c881d1c985b9cd9995c8819985a5b195960521b6044820152606490fd5b908080808a898854165af1610676610ed3565b5015610683578b90610557565b855162461bcd60e51b81528084018990526017818401527f726f79616c7479207472616e73666572206661696c65640000000000000000006044820152606490fd5b67ffffffffffffffff819d929d116106e05786529a3861054e565b50634e487b7160e01b815260418352fd5b87513d8f823e3d90fd5b50634e487b7160e01b89526011845288fd5b61072d9150893d8b11610733575b6107258183610dd7565b810190610e1d565b386104c6565b503d61071b565b85513d8d823e3d90fd5b5091606492519162461bcd60e51b83528201526011602482015270696e73756666696369656e742043454c4f60781b6044820152fd5b5051633ee5aeb560e01b8152fd5b8380fd5b50823461034e578160031936011261034e5760025490516001600160a01b039091168152602090f35b509190346101d257826003193601126101d2575490516001600160a01b03909116815260209150f35b5091346101d25760203660031901126101d257813561ffff8116928382036102855761081560018060a01b03600154163314610d6d565b612710841161086b57506003805461ffff60a01b191660a09290921b61ffff60a01b16919091179055519081527fda0fdc743bf03c626bcac6e6509af1b15dfa6dabfde58682f6706b85efa9f9b490602090a180f35b606490602084519162461bcd60e51b8352820152601060248201526f0e4def2c2d8e8f240e8dede40d0d2ced60831b6044820152fd5b5091346101d257806003193601126101d257813560249283359283151580610c11575b15610bdf5760035481516331a9108f60e11b8152808401859052602093916001600160a01b03919082169085818a81855afa908115610b7e5790610913918b91610bc2575b5083163314610d6d565b835163e985e9c560e01b8152338482015230898201528581604481855afa908115610b7e578a91610b88575b508015610b1f575b15610aee578589526006855260ff83858b20015416610abb579188918585948a98979651988980926333355e0b60e11b82528a878301525afa968715610a82578397610a8c575b5084816002541685519a8b8092632e31150760e11b82528b878301525afa988915610a825760ff7f8b84647ec667515d9ce59e74ab9bb64476ec404345ebb9dfc3ea275bb6d8ee9b9798999a6109ec928691610a6b57501615610e36565b8351906109f882610da5565b888252858201908882528583019033825260608401928c8452876080860197600189528c815260068b522094518555516001850155600284019151166bffffffffffffffffffffffff60a01b825416179055516003820155019051151560ff80198354169116179055519485523394a480f35b61072d9150883d8a11610733576107258183610dd7565b84513d85823e3d90fd5b9096508481813d8311610ab4575b610aa48183610dd7565b810103126101d25751953861098e565b503d610a9a565b835162461bcd60e51b8152808401869052600e818a01526d185b1c9958591e481b1a5cdd195960921b6044820152606490fd5b835162461bcd60e51b8152808401869052600c818a01526b1b9bdd08185c1c1c9bdd995960a21b6044820152606490fd5b50835163020604bf60e21b815283810187905285818a81855afa908115610b7e578a91610b51575b5082163014610947565b610b719150863d8811610b77575b610b698183610dd7565b810190610df9565b38610b47565b503d610b5f565b85513d8c823e3d90fd5b90508581813d8311610bbb575b610b9f8183610dd7565b81010312610bb757518015158103610bb7573861093f565b8980fd5b503d610b95565b610bd99150873d8911610b7757610b698183610dd7565b38610909565b90600d856020606494519362461bcd60e51b85528401528201526c696e76616c696420707269636560981b6044820152fd5b506005548411156108c4565b5091346101d25760203660031901126101d25781359182845260066020528184209080820190815490610c5260ff8316610e77565b60028401546001600160a01b03163303610c9d575060ff19169055549051918383527f8b84647ec667515d9ce59e74ab9bb64476ec404345ebb9dfc3ea275bb6d8ee9b60203394a480f35b606490602086519162461bcd60e51b8352820152600a6024820152693737ba1039b2b63632b960b11b6044820152fd5b848484346103eb5760203660031901126103eb5781836080926103e79435815260066020522090610cfd86610da5565b81549485875260018301549687602082015260ff60018060a01b0360028601541693848484015260038601549586606085015201541615159485910152519586958693909594919260809360a08601978652602086015260018060a01b0316604085015260608401521515910152565b15610d7457565b60405162461bcd60e51b81526020600482015260096024820152683737ba1037bbb732b960b91b6044820152606490fd5b60a0810190811067ffffffffffffffff821117610dc157604052565b634e487b7160e01b600052604160045260246000fd5b90601f8019910116810190811067ffffffffffffffff821117610dc157604052565b90816020910312610e1857516001600160a01b0381168103610e185790565b600080fd5b90816020910312610e18575160ff81168103610e185790565b15610e3d57565b60405162461bcd60e51b81526020600482015260126024820152716576656e74206e6f74207570636f6d696e6760701b6044820152606490fd5b15610e7e57565b60405162461bcd60e51b815260206004820152600a6024820152691b9bdd081b1a5cdd195960b21b6044820152606490fd5b91908203918211610ebd57565b634e487b7160e01b600052601160045260246000fd5b3d15610f0e573d9067ffffffffffffffff8211610dc15760405191610f02601f8201601f191660200184610dd7565b82523d6000602084013e565b60609056fea2646970667358221220041f0715276c880a29fc403e2c5f72c213a398c4e79684c7ece185a78fc3ecae64736f6c63430008140033",
  "linkReferences": {},
  "deployedLinkReferences": {}
}