{
  "_format": "hh-sol-artifact-1",
  "contractName": "EventTicketing",
  "sourceName": "contracts/EventTicketing.sol",
  "abi": [
    {
      "inputs": [
        {
          "internalType": "address",
          "name": "ticketNftAddress",
          "type": "address"
        },
        {
          "internalType": "address payable",
          "name": "feeRecipient_",
          "type": "address"
        },
        {
          "internalType": "uint16",
          "name": "feeBps",
          "type": "uint16"
        }
      ],
      "stateMutability": "nonpayable",
      "type": "constructor"
    },
    {
      "inputs": [
        {
          "internalType": "address",
          "name": "owner",
          "type": "address"
        }
      ],
      "name": "OwnableInvalidOwner",
      "type": "error"
    },
    {
      "inputs": [
        {
          "internalType": "address",
          "name": "account",
          "type": "address"
        }
      ],
      "name": "OwnableUnauthorizedAccount",
      "type": "error"
    },
    {
      "inputs": [],
      "name": "ReentrancyGuardReentrantCall",
      "type": "error"
    },
    {
      "anonymous": false,
      "inputs": [
        {
          "indexed": true,
          "internalType": "address",
          "name": "newRecipient",
          "type": "address"
        }
      ],
      "name": "FeeRecipientUpdated",
      "type": "event"
    },
    {
      "anonymous": false,
      "inputs": [
        {
          "indexed": true,
          "internalType": "uint256",
          "name": "ticketId",
          "type": "uint256"
        },
        {
          "indexed": false,
          "internalType": "uint256",
          "name": "newMaxSupply",
          "type": "uint256"
        }
      ],
      "name": "MaxSupplyUpdated",
      "type": "event"
    },
    {
      "anonymous": false,
      "inputs": [
        {
          "indexed": true,
          "internalType": "address",
          "name": "previousOwner",
          "type": "address"
        },
        {
          "indexed": true,
          "internalType": "address",
          "name": "newOwner",
          "type": "address"
        }
      ],
      "name": "OwnershipTransferred",
      "type": "event"
    },
    {
      "anonymous": false,
      "inputs": [
        {
          "indexed": true,
          "internalType": "uint256",
          "name": "ticketId",
          "type": "uint256"
        },
        {
          "indexed": true,
          "internalType": "address",
          "name": "creator",
          "type": "address"
        },
        {
          "indexed": false,
          "internalType": "uint256",
          "name": "creatorAmount",
          "type": "uint256"
        },
        {
          "indexed": false,
          "internalType": "uint256",
          "name": "feeAmount",
          "type": "uint256"
        }
      ],
      "name": "ProceedsWithdrawn",
      "type": "event"
    },
    {
      "anonymous": false,
      "inputs": [
        {
          "indexed": true,
          "internalType": "uint256",
          "name": "ticketId",
          "type": "uint256"
        },
        {
          "indexed": true,
          "internalType": "address",
          "name": "user",
          "type": "address"
        },
        {
          "indexed": false,
          "internalType": "uint256",
          "name": "amount",
          "type": "uint256"
        }
      ],
      "name": "RefundClaimed",
      "type": "event"
    },
    {
      "anonymous": false,
      "inputs": [
        {
          "indexed": true,
          "internalType": "uint256",
          "name": "ticketId",
          "type": "uint256"
        },
        {
          "indexed": true,
          "internalType": "address",
          "name": "registrant",
          "type": "address"
        },
        {
          "indexed": false,
          "internalType": "uint256",
          "name": "nftTokenId",
          "type": "uint256"
        }
      ],
      "name": "Registered",
      "type": "event"
    },
    {
      "anonymous": false,
      "inputs": [
        {
          "indexed": false,
          "internalType": "uint16",
          "name": "newFeeBps",
          "type": "uint16"
        }
      ],
      "name": "ServiceFeeUpdated",
      "type": "event"
    },
    {
      "anonymous": false,
      "inputs": [
        {
          "indexed": true,
          "internalType": "uint256",
          "name": "ticketId",
          "type": "uint256"
        },
        {
          "indexed": true,
          "internalType": "address",
          "name": "canceledBy",
          "type": "address"
        }
      ],
      "name": "TicketCanceled",
      "type": "event"
    },
    {
      "anonymous": false,
      "inputs": [
        {
          "indexed": true,
          "internalType": "uint256",
          "name": "ticketId",
          "type": "uint256"
        },
        {
          "indexed": true,
          "internalType": "address",
          "name": "closedBy",
          "type": "address"
        }
      ],
      "name": "TicketClosed",
      "type": "event"
    },
    {
      "anonymous": false,
      "inputs": [
        {
          "indexed": true,
          "internalType": "uint256",
          "name": "ticketId",
          "type": "uint256"
        },
        {
          "indexed": true,
          "internalType": "address",
          "name": "creator",
          "type": "address"
        },
        {
          "indexed": false,
          "internalType": "uint256",
          "name": "price",
          "type": "uint256"
        },
        {
          "indexed": false,
          "internalType": "string",
          "name": "eventName",
          "type": "string"
        },
        {
          "indexed": false,
          "internalType": "string",
          "name": "description",
          "type": "string"
        },
        {
          "indexed": false,
          "internalType": "uint256",
          "name": "eventTimestamp",
          "type": "uint256"
        },
        {
          "indexed": false,
          "internalType": "uint256",
          "name": "maxSupply",
          "type": "uint256"
        }
      ],
      "name": "TicketCreated",
      "type": "event"
    },
    {
      "anonymous": false,
      "inputs": [
        {
          "indexed": true,
          "internalType": "uint256",
          "name": "ticketId",
          "type": "uint256"
        },
        {
          "indexed": false,
          "internalType": "uint256",
          "name": "newPrice",
          "type": "uint256"
        },
        {
          "indexed": false,
          "internalType": "uint256",
          "name": "newTimestamp",
          "type": "uint256"
        },
        {
          "indexed": false,
          "internalType": "string",
          "name": "newLocation",
          "type": "string"
        }
      ],
      "name": "TicketUpdated",
      "type": "event"
    },
    {
      "stateMutability": "payable",
      "type": "fallback"
    },
    {
      "inputs": [
        {
          "internalType": "uint256",
          "name": "ticketId",
          "type": "uint256"
        }
      ],
      "name": "cancelTicket",
      "outputs": [],
      "stateMutability": "nonpayable",
      "type": "function"
    },
    {
      "inputs": [
        {
          "internalType": "uint256",
          "name": "ticketId",
          "type": "uint256"
        }
      ],
      "name": "claimRefund",
      "outputs": [],
      "stateMutability": "nonpayable",
      "type": "function"
    },
    {
      "inputs": [
        {
          "internalType": "uint256",
          "name": "ticketId",
          "type": "uint256"
        }
      ],
      "name": "closeTicket",
      "outputs": [],
      "stateMutability": "nonpayable",
      "type": "function"
    },
    {
      "inputs": [
        {
          "internalType": "uint256",
          "name": "price",
          "type": "uint256"
        },
        {
          "internalType": "string",
          "name": "eventName",
          "type": "string"
        },
        {
          "internalType": "string",
          "name": "description",
          "type": "string"
        },
        {
          "internalType": "uint256",
          "name": "eventTimestamp",
          "type": "uint256"
        },
        {
          "internalType": "uint256",
          "name": "maxSupply",
          "type": "uint256"
        },
        {
          "internalType": "string",
          "name": "metadata",
          "type": "string"
        },
        {
          "internalType": "string",
          "name": "location",
          "type": "string"
        }
      ],
      "name": "createTicket",
      "outputs": [
        {
          "internalType": "uint256",
          "name": "",
          "type": "uint256"
        }
      ],
      "stateMutability": "nonpayable",
      "type": "function"
    },
    {
      "inputs": [],
      "name": "feeRecipient",
      "outputs": [
        {
          "internalType": "address payable",
          "name": "",
          "type": "address"
        }
      ],
      "stateMutability": "view",
      "type": "function"
    },
    {
      "inputs": [
        {
          "internalType": "uint256",
          "name": "ticketId",
          "type": "uint256"
        }
      ],
      "name": "finalizeEvent",
      "outputs": [],
      "stateMutability": "nonpayable",
      "type": "function"
    },
    {
      "inputs": [],
      "name": "getRecentTickets",
      "outputs": [
        {
          "components": [
            {
              "internalType": "uint256",
              "name": "id",
              "type": "uint256"
            },
            {
              "internalType": "address payable",
              "name": "creator",
              "type": "address"
            },
            {
              "internalType": "uint256",
              "name": "price",
              "type": "uint256"
            },
            {
              "internalType": "string",
              "name": "eventName",
              "type": "string"
            },
            {
              "internalType": "string",
              "name": "description",
              "type": "string"
            },
            {
              "internalType": "uint256",
              "name": "eventTimestamp",
              "type": "uint256"
            },
            {
              "internalType": "string",
              "name": "location",
              "type": "string"
            },
            {
              "internalType": "bool",
              "name": "closed",
              "type": "bool"
            },
            {
              "internalType": "bool",
              "name": "canceled",
              "type": "bool"
            },
            {
              "internalType": "string",
              "name": "metadata",
              "type": "string"
            },
            {
              "internalType": "uint256",
              "name": "maxSupply",
              "type": "uint256"
            },
            {
              "internalType": "uint256",
              "name": "sold",
              "type": "uint256"
            },
            {
              "internalType": "uint256",
              "name": "totalCollected",
              "type": "uint256"
            },
            {
              "internalType": "uint256",
              "name": "totalRefunded",
              "type": "uint256"
            },
            {
              "internalType": "bool",
              "name": "proceedsWithdrawn",
              "type": "bool"
            }
          ],
          "internalType": "struct EventTicketingLib.Ticket[]",
          "name": "",
          "type": "tuple[]"
        }
      ],
      "stateMutability": "view",
      "type": "function"
    },
    {
      "inputs": [
        {
          "internalType": "uint256",
          "name": "ticketId",
          "type": "uint256"
        }
      ],
      "name": "getRegistrants",
      "outputs": [
        {
          "internalType": "address[]",
          "name": "",
          "type": "address[]"
        }
      ],
      "stateMutability": "view",
      "type": "function"
    },
    {
      "inputs": [
        {
          "internalType": "uint256",
          "name": "ticketId",
          "type": "uint256"
        }
      ],
      "name": "getStatus",
      "outputs": [
        {
          "internalType": "enum EventTicketing.Status",
          "name": "",
          "type": "uint8"
        }
      ],
      "stateMutability": "view",
      "type": "function"
    },
    {
      "inputs": [],
      "name": "getTotalTickets",
      "outputs": [
        {
          "internalType": "uint256",
          "name": "",
          "type": "uint256"
        }
      ],
      "stateMutability": "view",
      "type": "function"
    },
    {
      "inputs": [
        {
          "internalType": "uint256",
          "name": "ticketId",
          "type": "uint256"
        }
      ],
      "name": "isAvailable",
      "outputs": [
        {
          "internalType": "bool",
          "name": "",
          "type": "bool"
        }
      ],
      "stateMutability": "view",
      "type": "function"
    },
    {
      "inputs": [
        {
          "internalType": "uint256",
          "name": "",
          "type": "uint256"
        },
        {
          "internalType": "address",
          "name": "",
          "type": "address"
        }
      ],
      "name": "isRegistered",
      "outputs": [
        {
          "internalType": "bool",
          "name": "",
          "type": "bool"
        }
      ],
      "stateMutability": "view",
      "type": "function"
    },
    {
      "inputs": [],
      "name": "owner",
      "outputs": [
        {
          "internalType": "address",
          "name": "",
          "type": "address"
        }
      ],
      "stateMutability": "view",
      "type": "function"
    },
    {
      "inputs": [
        {
          "internalType": "uint256",
          "name": "",
          "type": "uint256"
        },
        {
          "internalType": "address",
          "name": "",
          "type": "address"
        }
      ],
      "name": "paidAmount",
      "outputs": [
        {
          "internalType": "uint256",
          "name": "",
          "type": "uint256"
        }
      ],
      "stateMutability": "view",
      "type": "function"
    },
    {
      "inputs": [],
      "name": "platformFeeBps",
      "outputs": [
        {
          "internalType": "uint16",
          "name": "",
          "type": "uint16"
        }
      ],
      "stateMutability": "view",
      "type": "function"
    },
    {
      "inputs": [
        {
          "internalType": "uint256",
          "name": "ticketId",
          "type": "uint256"
        }
      ],
      "name": "register",
      "outputs": [
        {
          "internalType": "uint256",
          "name": "",
          "type": "uint256"
        }
      ],
      "stateMutability": "payable",
      "type": "function"
    },
    {
      "inputs": [],
      "name": "renounceOwnership",
      "outputs": [],
      "stateMutability": "nonpayable",
      "type": "function"
    },
    {
      "inputs": [
        {
          "internalType": "address payable",
          "name": "newRecipient",
          "type": "address"
        }
      ],
      "name": "setFeeRecipient",
      "outputs": [],
      "stateMutability": "nonpayable",
      "type": "function"
    },
    {
      "inputs": [
        {
          "internalType": "uint16",
          "name": "feeBps",
          "type": "uint16"
        }
      ],
      "name": "setServiceFee",
      "outputs": [],
      "stateMutability": "nonpayable",
      "type": "function"
    },
    {
      "inputs": [
        {
          "internalType": "address",
          "name": "ticketNftAddress",
          "type": "address"
        }
      ],
      "name": "setTicketNft",
      "outputs": [],
      "stateMutability": "nonpayable",
      "type": "function"
    },
    {
      "inputs": [],
      "name": "ticketNft",
      "outputs": [
        {
          "internalType": "contract ITicketNft",
          "name": "",
          "type": "address"
        }
      ],
      "stateMutability": "view",
      "type": "function"
    },
    {
      "inputs": [
        {
          "internalType": "uint256",
          "name": "",
          "type": "uint256"
        }
      ],
      "name": "tickets",
      "outputs": [
        {
          "internalType": "uint256",
          "name": "id",
          "type": "uint256"
        },
        {
          "internalType": "address payable",
          "name": "creator",
          "type": "address"
        },
        {
          "internalType": "uint256",
          "name": "price",
          "type": "uint256"
        },
        {
          "internalType": "string",
          "name": "eventName",
          "type": "string"
        },
        {
          "internalType": "string",
          "name": "description",
          "type": "string"
        },
        {
          "internalType": "uint256",
          "name": "eventTimestamp",
          "type": "uint256"
        },
        {
          "internalType": "string",
          "name": "location",
          "type": "string"
        },
        {
          "internalType": "bool",
          "name": "closed",
          "type": "bool"
        },
        {
          "internalType": "bool",
          "name": "canceled",
          "type": "bool"
        },
        {
          "internalType": "string",
          "name": "metadata",
          "type": "string"
        },
        {
          "internalType": "uint256",
          "name": "maxSupply",
          "type": "uint256"
        },
        {
          "internalType": "uint256",
          "name": "sold",
          "type": "uint256"
        },
        {
          "internalType": "uint256",
          "name": "totalCollected",
          "type": "uint256"
        },
        {
          "internalType": "uint256",
          "name": "totalRefunded",
          "type": "uint256"
        },
        {
          "internalType": "bool",
          "name": "proceedsWithdrawn",
          "type": "bool"
        }
      ],
      "stateMutability": "view",
      "type": "function"
    },
    {
      "inputs": [
        {
          "internalType": "uint256",
          "name": "ticketId",
          "type": "uint256"
        }
      ],
      "name": "ticketsLeft",
      "outputs": [
        {
          "internalType": "uint256",
          "name": "",
          "type": "uint256"
        }
      ],
      "stateMutability": "view",
      "type": "function"
    },
    {
      "inputs": [
        {
          "internalType": "address",
          "name": "newOwner",
          "type": "address"
        }
      ],
      "name": "transferOwnership",
      "outputs": [],
      "stateMutability": "nonpayable",
      "type": "function"
    },
    {
      "inputs": [
        {
          "internalType": "uint256",
          "name": "ticketId",
          "type": "uint256"
        },
        {
          "internalType": "uint256",
          "name": "newMaxSupply",
          "type": "uint256"
        }
      ],
      "name": "updateMaxSupply",
      "outputs": [],
      "stateMutability": "nonpayable",
      "type": "function"
    },
    {
      "inputs": [
        {
          "internalType": "uint256",
          "name": "ticketId",
          "type": "uint256"
        },
        {
          "internalType": "uint256",
          "name": "newPrice",
          "type": "uint256"
        },
        {
          "internalType": "string",
          "name": "newLocation",
          "type": "string"
        },
        {
          "internalType": "uint256",
          "name": "newEventTimestamp",
          "type": "uint256"
        }
      ],
      "name": "updateTicket",
      "outputs": [],
      "stateMutability": "nonpayable",
      "type": "function"
    },
    {
      "inputs": [
        {
          "internalType": "uint256",
          "name": "ticketId",
          "type": "uint256"
        }
      ],
      "name": "withdrawProceeds",
      "outputs": [],
      "stateMutability": "nonpayable",
      "type": "function"
    },
    {
      "stateMutability": "payable",
      "type": "receive"
    }
  ],
  "bytecode": "0x608034620001ec57601f62002a5738819003918201601f191683019291906001600160401b03841183851017620001f1578160609284926040968752833981010312620001ec5780516001600160a01b039081811690819003620001ec5760208301519180831693848403620001ec578501519361ffff8516809503620001ec573315620001d4576000549160018060a01b03199233848216176000558751913391167f8be0079c531659141344cd1fd0a4f28419497f9722a3daafe3b4186f6b6457e0600080a3600180558315620001925750156200014e5761271084116200011b5760025416176002556008549062010000600160b01b039060101b169060018060b01b03191617176008555161284f9081620002088239f35b845162461bcd60e51b815260206004820152600c60248201526b0cccaca40e8dede40d0d2ced60a31b6044820152606490fd5b845162461bcd60e51b815260206004820152601560248201527f666565526563697069656e7420726571756972656400000000000000000000006044820152606490fd5b62461bcd60e51b815260206004820152601a60248201527f5469636b65744e667420616464726573732072657175697265640000000000006044820152606490fd5b8551631e4fbdf760e01b815260006004820152602490fd5b600080fd5b634e487b7160e01b600052604160045260246000fdfe608080604052600436101561008f575b50361561004a5760405162461bcd60e51b815260206004820152600c60248201526b1a5b9d985b1a590818d85b1b60a21b6044820152606490fd5b60405162461bcd60e51b815260206004820152601860248201527f73656e642043454c4f20766961207265676973746572282900000000000000006044820152606490fd5b60003560e01c908163017c565514611cf45750806306e8337f14611cd657806320e14e4914611bf057806322dcd13e14611bce578063238e875f14611ac75780633a178d9914611a9f5780633d914ecd14611253578063469048401461122657806350b44712146110ef5780635b7baf6414610fe25780635c622a0e14610f9d5780637031ff8014610f50578063710c597314610f2a578063715018a614610ed15780637c00e4db14610be15780638da5cb5b14610bb8578063999a27fe14610b705780639b3e745a14610ad15780639b71e67314610a97578063a2be261f1461094e578063b81f6e1814610901578063d9f1aed914610870578063e09b2a6214610847578063e74b981b146107c0578063ee355b1f146105eb578063f207564e146102535763f2fde38b146101c5573861000f565b3461024e57602036600319011261024e576101de611f32565b6101e6611f5e565b6001600160a01b0390811690811561023557600054826001600160601b0360a01b821617600055167f8be0079c531659141344cd1fd0a4f28419497f9722a3daafe3b4186f6b6457e0600080a3005b604051631e4fbdf760e01b815260006004820152602490fd5b600080fd5b6020600319818136011261024e5760043561026c612140565b806000526003835260406000209161028683541515612087565b6102a660ff600785015461029c828216156120c6565b60081c1615612102565b600583019081544210156105b7578260005260058552604060002033600052855260ff6040600020541661057d57600a8401546009850154111561054d57600284015434036105105782600052600685526040600020336000528552346040600020558260005260038552600b604060002001610324348254612504565b90558260005260038552600a604060002001805490600182018092116104fa57558260005260048552604060002090815492680100000000000000008410156104e457600184018084558410156104ce578693610423936000528460002001336001600160601b0360a01b825416179055846000526005845260406000203360005284526040600020600160ff19825416179055546000856104476103cb60038a01611e4c565b936103e460066103dd60048d01611e4c565b9b01611e4c565b60018060a01b0360025416966104336040519c8d9a8b998a98631b42d6a960e31b8a523360048b015260248a015260c060448a015260c4890190611ef2565b9083888303016064890152611ef2565b9260848601528483030160a4850152611ef2565b03925af19182156104c257600092610493575b50604051908282527f39dd062cc095bf933d83338d8e4591b7eb119264d876f173cacb1cfdf2c9737f843393a360018055604051908152f35b9091508281813d83116104bb575b6104ab8183611e2b565b8101031261024e5751908361045a565b503d6104a1565b6040513d6000823e3d90fd5b634e487b7160e01b600052603260045260246000fd5b634e487b7160e01b600052604160045260246000fd5b634e487b7160e01b600052601160045260246000fd5b60405162461bcd60e51b81526004810186905260156024820152741a5b98dbdc9c9958dd0810d15313c8185b5bdd5b9d605a1b6044820152606490fd5b60405162461bcd60e51b81526004810186905260086024820152671cdbdb19081bdd5d60c21b6044820152606490fd5b60405162461bcd60e51b8152600481018690526012602482015271185b1c9958591e481c9959da5cdd195c995960721b6044820152606490fd5b60405162461bcd60e51b815260048101869052600c60248201526b195d995b9d081c185cdcd95960a21b6044820152606490fd5b3461024e5760208060031936011261024e57600435610608612140565b806000526003825260406000209161062283541515612087565b60018060a01b03916007600194848682015416331480156107b3575b6106479061219e565b01805460ff8160081c1661077b5761ffff1916610101179055604051928492919033827f856f105c150817c7b4994960bcf1ff34f18912db8f0892ae56fb87470c8b9f3f600080a3816000526004835260406000208581549182825285820190600052856000209260005b888883831061076457505050506106cb92500386611e2b565b6000845b6106d857848055005b855181101561075f5780826106f061071c93896121db565b511684600052600686526040600020816000528652846040600020548781610722575b50505050612005565b846106cf565b8161074f7ff3f402280ef0a7905e124aa621b65eaeb2725c343e8b36d398ed78c29daf285c938686612784565b604051908152a388848187610713565b848055005b865488168552958101958b955090930192016106b2565b60405162461bcd60e51b815260048101859052601060248201526f185b1c9958591e4818d85b98d95b195960821b6044820152606490fd5b506000548516331461063e565b3461024e57602036600319011261024e576004356001600160a01b0381169081810361024e576107ee611f5e565b6107f9821515611f8a565b6008805462010000600160b01b03191660109290921b62010000600160b01b03169190911790557f7a7b5a0a132f9e0581eb8527f66eae9ee89c2a3e79d4ac7e41a1f1f4d48a7fc2600080a2005b3461024e57600036600319011261024e576002546040516001600160a01b039091168152602090f35b3461024e57602036600319011261024e576108fb60043561088f612140565b8060005260036020526040600020906108aa82541515612087565b6108c160018060a01b036001840154163314612163565b6108d560ff600784015460081c1615612102565b6108e560058301544210156121ef565b6108f660ff600d840154161561222e565b61227b565b60018055005b3461024e57604036600319011261024e5761091a611f48565b600435600052600560205260406000209060018060a01b0316600052602052602060ff604060002054166040519015158152f35b3461024e57600036600319011261024e57610967612511565b60405160209182820192808352815180945260408301938160408260051b8601019301916000955b82871061099c5785850386f35b909192938280600192603f1989820301855287519081518152848060a01b0383830151168382015260408201516040820152610a4e610a21610a046109f1606080870151906101e08091880152860190611ef2565b6080808701519086830390870152611ef2565b60a0808601519085015260c0808601519085830390860152611ef2565b60e0840151151560e084015261010080850151151590840152610120808501519084830390850152611ef2565b916101408082015190830152610160808201519083015261018080820151908301526101a080820151908301526101c0809101511515910152960192019601959291909261098f565b3461024e57602036600319011261024e576108fb600435610ab6612140565b8060005260036020526040600020906108c182541515612087565b3461024e57602036600319011261024e5760043561ffff811680910361024e57610af9611f5e565b6127108111610b3c576020817fb4c8a49c815aff443d1d27ce1429e4affed0237024410b84729f24d349b80e1a9261ffff196008541617600855604051908152a1005b60405162461bcd60e51b815260206004820152600c60248201526b0cccaca40e8dede40d0d2ced60a31b6044820152606490fd5b3461024e57604036600319011261024e57610b89611f48565b600435600052600660205260406000209060018060a01b03166000526020526020604060002054604051908152f35b3461024e57600036600319011261024e576000546040516001600160a01b039091168152602090f35b3461024e57608036600319011261024e576001600160401b0360043560243560443583811161024e57610c18903690600401611da8565b91906064359284600052602093600385526040600020610c3a81541515612087565b600190610c5360018060a01b0383830154163314612163565b610c7360ff6007830154610c6c828260081c1615612102565b16156120c6565b60058101918254421015610e9c5742841115610e66578615610e2d57610c9a851515611fc2565b6006610ca736878961202f565b92886002820155019180519a8b116104e4578a610cc48454611dd5565b601f8111610de2575b50508890601f8c11600114610d54579a8080879694610d449a999896947fc23f26eef4d4205025e77d6fc59bd3e912b6e335b222c54f5980d65a8fd5812e9e9f600094610d49575b50501b916000199060031b1c19161790555b556040519586958652850152606060408501526060840191612066565b0390a2005b015192508f80610d15565b90601f198c1691846000528a6000209260005b818110610dcd575092879694928e927fc23f26eef4d4205025e77d6fc59bd3e912b6e335b222c54f5980d65a8fd5812e9e9f610d449c9b9a989610610db4575b505050811b019055610d27565b015160001960f88460031b161c191690558d8080610da7565b83830151855593850193928c01928c01610d67565b846000528a600020908b601f840160051c83019310610e23575b601f0160051c019083905b828110610e1757508c9150610ccd565b60008155018390610e07565b9091508190610dfc565b60405162461bcd60e51b815260048101899052601160248201527007072696365206d757374206265203e203607c1b6044820152606490fd5b60405162461bcd60e51b815260048101899052600e60248201526d6d7573742062652066757475726560901b6044820152606490fd5b60405162461bcd60e51b815260048101899052600d60248201526c195d995b9d081cdd185c9d1959609a1b6044820152606490fd5b3461024e57600036600319011261024e57610eea611f5e565b600080546001600160a01b0319811682556001600160a01b03167f8be0079c531659141344cd1fd0a4f28419497f9722a3daafe3b4186f6b6457e08280a3005b3461024e57602036600319011261024e576020610f48600435612459565b604051908152f35b3461024e57602036600319011261024e57610f69611f32565b610f71611f5e565b6001600160a01b0316610f85811515611f8a565b6001600160601b0360a01b6002541617600255600080f35b3461024e57602036600319011261024e57610fb9600435612493565b6040516004821015610fcc576020918152f35b634e487b7160e01b600052602160045260246000fd5b3461024e5760208060031936011261024e57600435610fff612140565b806000526003825260ff6007604060002061101c81541515612087565b015460081c16156110bb5780600052600682526040600020336000528252604060002054918215611083577ff3f402280ef0a7905e124aa621b65eaeb2725c343e8b36d398ed78c29daf285c90611074843385612784565b6040519384523393a360018055005b6064906040519062461bcd60e51b8252600482015260116024820152701b9bdd1a1a5b99c81d1bc81c99599d5b99607a1b6044820152fd5b60405162461bcd60e51b815260048101839052600c60248201526b1b9bdd0818d85b98d95b195960a21b6044820152606490fd5b3461024e57602036600319011261024e57600435600052600360205260406000208054600160a01b600190036001830154169160028101546003820161113490611e4c565b9161114160048201611e4c565b6005820154939061115460068401611e4c565b600784015461116560088601611e4c565b91600986015497600a87015494600b88015496600c89015498600d015460ff16996040519d8e809e81526020015260408d01528b6101e06060819201528c016111ad91611ef2565b8b810360808d01526111be91611ef2565b9060a08b015289810360c08b01526111d591611ef2565b9060ff8116151560e08a015260081c60ff16151561010089015287810361012089015261120191611ef2565b946101408701526101608601526101808501526101a084015215156101c08301520390f35b3461024e57600036600319011261024e5760085460405160109190911c6001600160a01b03168152602090f35b3461024e5760e036600319011261024e576024356001600160401b03811161024e57611283903690600401611da8565b906044356001600160401b03811161024e576112a3903690600401611da8565b60a4939193356001600160401b03811161024e576112c5903690600401611da8565b939060c4356001600160401b03811161024e576112e6903690600401611da8565b9095426064351115611a5a5760843515611a1d5785156119e35761130b851515611fc2565b611348611319600754612005565b978860075561134061132c368a8961202f565b95611338368a8e61202f565b94369161202f565b93369161202f565b906040519361135685611e0f565b88855233602086015260043560408601526060850152608084015260643560a084015260c0830152600060e083015260006101008301526101208201526084356101408201526000610160820152600061018082015260006101a082015260006101c0820152846000526003602052604060002090805182556001820160018060a01b036020830151166001600160601b0360a01b8254161790556040810151600283015560608101518051906001600160401b0382116104e45781906114206003860154611dd5565b601f8111611990575b50602090601f831160011461191e57600092611913575b50508160011b916000199060031b1c19161760038301555b60808101518051906001600160401b0382116104e457819061147d6004860154611dd5565b601f81116118c0575b50602090601f831160011461184e57600092611843575b50508160011b916000199060031b1c19161760048301555b60a0810151600583015560c08101518051906001600160401b0382116104e45781906114e46006860154611dd5565b601f81116117f0575b50602090601f831160011461177e57600092611773575b50508160011b916000199060031b1c19161760068301555b6007820161153c60e08301511515829060ff801983541691151516179055565b610100820151815461ff00191690151560081b61ff00161790556101208101518051906001600160401b0382116104e45761157a6008850154611dd5565b601f811161172c575b50918795939160209995938a90601f83116001146116875793600d6101c061164f95857ff71b42493765497065cfba18b42f5fdcf53336aad1f5ae821f7e3b54482880679b99966116369661165d9c9a60009261167c575b50508160011b916000199060031b1c19161760088501555b6101408101516009850155610160810151600a850155610180810151600b8501556101a0810151600c8501550151151591019060ff801983541691151516179055565b60405197600435895260a08b8a015260a0890191612066565b918683036040880152612066565b92606435606082015260843560808201528033940390a3604051908152f35b0151905038806115db565b90600885016000528b6000209160005b601f198516811061171257506101c061164f956001866116369661165d9c9a96600d967ff71b42493765497065cfba18b42f5fdcf53336aad1f5ae821f7e3b54482880679f9d9a601f198116106116f9575b505050811b0160088501556115f3565b015160001960f88460031b161c191690553880806116e9565b8183015184558c9a50600190930192918d01918d01611697565b600885016000526020600020601f840160051c81016020851061176c575b601f830160051c82018110611760575050611583565b6000815560010161174a565b508061174a565b015190508980611504565b9250600685016000526020600020906000935b601f19841685106117d5576001945083601f198116106117bc575b505050811b01600683015561151c565b015160001960f88460031b161c191690558980806117ac565b81810151835560209485019460019093019290910190611791565b909150600685016000526020600020601f840160051c81016020851061183c575b90849392915b601f830160051c8201811061182d5750506114ed565b60008155859450600101611817565b5080611811565b01519050898061149d565b9250600485016000526020600020906000935b601f19841685106118a5576001945083601f1981161061188c575b505050811b0160048301556114b5565b015160001960f88460031b161c1916905589808061187c565b81810151835560209485019460019093019290910190611861565b909150600485016000526020600020601f840160051c81016020851061190c575b90849392915b601f830160051c820181106118fd575050611486565b600081558594506001016118e7565b50806118e1565b015190508980611440565b9250600385016000526020600020906000935b601f1984168510611975576001945083601f1981161061195c575b505050811b016003830155611458565b015160001960f88460031b161c1916905589808061194c565b81810151835560209485019460019093019290910190611931565b909150600385016000526020600020601f840160051c8101602085106119dc575b90849392915b601f830160051c820181106119cd575050611429565b600081558594506001016119b7565b50806119b1565b60405162461bcd60e51b8152602060048201526012602482015271195d995b9d13985b59481c995c5d5a5c995960721b6044820152606490fd5b60405162461bcd60e51b815260206004820152601560248201527406d6178537570706c79206d757374206265203e203605c1b6044820152606490fd5b60405162461bcd60e51b815260206004820152601d60248201527f6576656e7454696d657374616d70206d757374206265206675747572650000006044820152606490fd5b3461024e57602036600319011261024e576020611abd6004356123e3565b6040519015158152f35b3461024e57604036600319011261024e576004356024358160005260036020526040600020611af881541515612087565b611b0f60018060a01b036001830154163314612163565b611b2860ff6007830154610c6c828260081c1615612102565b600a8101548210611b9c578115611b6c57817f44ecfc706d63e347851cfd40acfa6cf2e3a41faa3e8b460210c03938e84a91ad9260096020930155604051908152a2005b60405162461bcd60e51b81526020600482015260086024820152670f4cae4de40dac2f60c31b6044820152606490fd5b60405162461bcd60e51b815260206004820152600a60248201526918995b1bddc81cdbdb1960b21b6044820152606490fd5b3461024e57600036600319011261024e57602061ffff60085416604051908152f35b3461024e57602036600319011261024e5760043580600052600360205260076040600020611c2081541515612087565b6001810154611c4490336001600160a01b0391821614908115611cc8575b5061219e565b01805460ff8116611c925780611c6260ff60019360081c1615612102565b60ff191617905533907f6b1b7348ef8c34cb796294e383344baff089786a86c14cd5cd96bb50382d7dfe600080a3005b60405162461bcd60e51b815260206004820152600e60248201526d185b1c9958591e4818db1bdcd95960921b6044820152606490fd5b905060005416331485611c3e565b3461024e57600036600319011261024e576020600754604051908152f35b3461024e576020908160031936011261024e576004356000526004825260406000208054808352838301908192600052846000209060005b86828210611d8b578686611d4282880383611e2b565b604051928392818401908285525180915260408401929160005b828110611d6b57505050500390f35b83516001600160a01b031685528695509381019392810192600101611d5c565b83546001600160a01b031685529093019260019283019201611d2c565b9181601f8401121561024e578235916001600160401b03831161024e576020838186019501011161024e57565b90600182811c92168015611e05575b6020831014611def57565b634e487b7160e01b600052602260045260246000fd5b91607f1691611de4565b6101e081019081106001600160401b038211176104e457604052565b90601f801991011681019081106001600160401b038211176104e457604052565b9060405191826000825492611e6084611dd5565b908184526001948581169081600014611ecf5750600114611e8c575b5050611e8a92500383611e2b565b565b9093915060005260209081600020936000915b818310611eb7575050611e8a93508201013880611e7c565b85548884018501529485019487945091830191611e9f565b915050611e8a94506020925060ff191682840152151560051b8201013880611e7c565b919082519283825260005b848110611f1e575050826000602080949584010152601f8019910116010190565b602081830181015184830182015201611efd565b600435906001600160a01b038216820361024e57565b602435906001600160a01b038216820361024e57565b6000546001600160a01b03163303611f7257565b60405163118cdaa760e01b8152336004820152602490fd5b15611f9157565b60405162461bcd60e51b81526020600482015260096024820152683d32b9379030b2323960b91b6044820152606490fd5b15611fc957565b60405162461bcd60e51b815260206004820152601460248201527319195cd8dc9a5c1d1a5bdb881c995c5d5a5c995960621b6044820152606490fd5b60001981146104fa5760010190565b6001600160401b0381116104e457601f01601f191660200190565b92919261203b82612014565b916120496040519384611e2b565b82948184528183011161024e578281602093846000960137010152565b908060209392818452848401376000828201840152601f01601f1916010190565b1561208e57565b60405162461bcd60e51b815260206004820152601060248201526f1d1a58dad95d081b9bdd08199bdd5b9960821b6044820152606490fd5b156120cd57565b60405162461bcd60e51b815260206004820152600d60248201526c1d1a58dad95d0818db1bdcd959609a1b6044820152606490fd5b1561210957565b60405162461bcd60e51b815260206004820152600f60248201526e1d1a58dad95d0818d85b98d95b1959608a1b6044820152606490fd5b600260015414612151576002600155565b604051633ee5aeb560e01b8152600490fd5b1561216a57565b60405162461bcd60e51b815260206004820152600c60248201526b37b7363c9031b932b0ba37b960a11b6044820152606490fd5b156121a557565b60405162461bcd60e51b815260206004820152600e60248201526d1b9bdd08185d5d1a1bdc9a5e995960921b6044820152606490fd5b80518210156104ce5760209160051b010190565b156121f657565b60405162461bcd60e51b815260206004820152601060248201526f195d995b9d081b9bdd081c185cdcd95960821b6044820152606490fd5b1561223557565b60405162461bcd60e51b815260206004820152601160248201527030b63932b0b23c903bb4ba34323930bbb760791b6044820152606490fd5b919082039182116104fa57565b61228e600b830154600c8401549061226e565b9161ffff600854168084029084820414841517156104fa576127106122b59104809461226e565b600d8201805460ff191660011790556008546001600160a01b039290859060101c84168161238a575b50506001018281541682612324575b50907ff267235ebfb630032a6a04de47e34751541c9a48e736f5c5ae79cbb519cbbd529260409254169482519182526020820152a3565b600080808581949695965af1612338612754565b50156123455790386122ed565b60405162461bcd60e51b815260206004820152601760248201527f63726561746f72207472616e73666572206661696c65640000000000000000006044820152606490fd5b600080809381935af161239b612754565b50156123a85784386122de565b60405162461bcd60e51b8152602060048201526013602482015272199959481d1c985b9cd9995c8819985a5b1959606a1b6044820152606490fd5b60005260036020526040600020805415801561244b575b801561243a575b801561242c575b612426576009600a820154910154111561242157600190565b600090565b50600090565b506005810154421015612408565b5060ff600782015460081c16612401565b5060ff6007820154166123fa565b60005260036020526040600020805415612426576009600a820154910154908181101561248c576124899161226e565b90565b5050600090565b6000526003602052604060002080541561208e57600781015460ff8160081c166124e65760ff166124d4575b600501544210156124cf57600090565b600190565b60058101544210156124bf5750600390565b5050600290565b6001600160401b0381116104e45760051b60200190565b919082018092116104fa57565b60078054801561272f5760648111908115612728576064915b1561271f576063198101908082116104fa57606219018091116104fa57915b612552826124ed565b9260409061256282519586611e2b565b838552601f19612571856124ed565b0160005b81811061269e57505060005b84811061259057505050505090565b8061259e6126999284612504565b60005260036020908082526125e386600020918751936125bd85611e0f565b8354855260018401546001600160a01b0316908501526002830154888501528201611e4c565b60608301526125f460048201611e4c565b6080830152600581015460a083015261260f60068201611e4c565b60c0830152600d878201549161264160ff93848116151560e087015284600891821c1615156101008701528201611e4c565b6101208501526009810154610140850152600a810154610160850152600b810154610180850152600c8101546101a085015201541615156101c082015261268882896121db565b5261269381886121db565b50612005565b612581565b60209084516126ac81611e0f565b600081528260008183015260008783015260608080840152806080840152600060a08401528060c0840152600060e0840152600061010084015261012083015260006101408301526000610160830152600061018083015260006101a083015260006101c0830152828a01015201612575565b50600191612549565b809161252a565b5050604051602081018181106001600160401b038211176104e4576040526000815290565b3d1561277f573d9061276582612014565b916127736040519384611e2b565b82523d6000602084013e565b606090565b60008093819383839484526006602052604084209160018060a01b03169182855260205283604081205583526003602052600c60408420016127c7838254612504565b90555af16127d3612754565b50156127db57565b60405162461bcd60e51b81526020600482015260166024820152751c99599d5b99081d1c985b9cd9995c8819985a5b195960521b6044820152606490fdfea26469706673582212208077b1fb4d5f4c36386f3b13834cd50987918fb23dcf75d3cce4b265f94cb91c64736f6c63430008140033",
  "linkReferences": {},
  "deployedLinkReferences": {}
}